:020000041102E7
:1000000003B40148019001BDADAE000003B4014846
:10001000019001BD456B010003B40148019001BD91
:100020000189000003B40148019001BDC53F0000F3
:1000300003B40148019001BDE94C010003B401483B
:10004000019001BDC95C010003B40148019001BDEC
:10005000CD4C010003B40148019001BD618900004D
:1000600003B40148019001BD154D010003B40148DE
:10007000019001BDF54E010003B40148019001BD9E
:10008000434D010003B40148019001BD2526000045
:1000900003B40148019001BD8B52010003B4014833
:1000A000019001BDB352010003B40148019001BDAC
:1000B0000D52010003B40148019001BDC94A01007D
:1000C00003B40148019001BD691F000003B4014859
:1000D000019001BD5D17000003B40148019001BD0E
:1000E0003D4B010003B40148019001BD595201008C
:1000F00003B40148019001BD5125000003B401483B
:10010000019001BD014C010003B40148019001BD03
:10011000594F010003B40148019001BD1D4B01007E
:1001200003B40148019001BD8D12000003B40148E1
:10013000019001BD4D1F000003B40148019001BDB5
:100140005522000003B40148019001BDDD520100B9
:1001500003B40148019001BD1D4D010003B40148E5
:10016000019001BD810E000003B40148019001BD62
:10017000017F000003B40148019001BDE1170000B8
:1001800003B40148019001BD7918000003B401488F
:10019000019001BDD949010003B40148019001BD9E
:1001A000E928000003B40148019001BD5549010050
:1001B00003B40148019001BD6556FF1F03B4014817
:1001C000019001BDC136FF1F03B40148019001BD7C
:1001D0005D5AFF1F03B40148019001BDD536FF1FD2
:1001E00003B40148019001BD5154FF1F03B40148FD
:1001F000019001BD8159FF1F03B40148019001BD69
:10020000AD53FF1F03B40148019001BD090E00006A
:1002100003B40148019001BDB53EFF1F03B401487E
:10022000019001BD955CFF1F03B40148019001BD21
:100230005F29FF1F03B40148019001BD4529FF1F3D
:1002400003B40148019001BDAD66FF1F03B401482E
:10025000019001BD6129FF1F03B40148019001BD58
:10026000D52DFF1F03B40148019001BD2959FF1F7F
:1002700003B40148019001BD4551010003B4014898
:10028000019001BDC926000003B40148019001BDE1
:10029000714CFF1F03B40148019001BDB527FF1F3A
:1002A00003B40148019001BD1DBC000003B4014826
:1002B000019001BD6DBC000003B40148019001BD77
:1002C0003555000003B40148019001BDC51D000073
:1002D00003B40148019001BD355EFF1F03B401481E
:1002E000019001BDD15DFF1F03B40148019001BD24
:1002F000F94C010003B40148019001BDC521000083
:1003000003B40148019001BD291C000003B4014859
:10031000019001BD851F000003B40148019001BD9B
:100320001147010003B40148019001BD094BFF1FB3
:1003300003B40148019001BDF159FF1F03B4014806
:10034000019001BDB952FF1F03B40148019001BDE6
:10035000715CFF1F03B40148019001BD3327FF1FEB
:1003600003B40148019001BD0D27FF1F03B40148EC
:10037000019001BDA946010003B40148019001BDEF
:10038000B13E000003B40148019001BD21240000EA
:1003900003B40148019001BD0137FF1F03B40148B8
:1003A000019001BDC90E000003B40148019001BDD8
:1003B000055E000003B40148019001BDE54800005E
:1003C00003B40148019001BD2951010003B4014863
:1003D000019001BDD91B000003B40148019001BD8B
:1003E000CD27FF1F03B40148019001BDF527FF1F72
:1003F00003B40148019001BD51470100F8B5D3494C
:10040000D14A002004464A608300401CD450FF2893
:10041000FADD4868CE4A014680318A606E22C262A7
:10042000CC4A1278002A01D07F22C2620A220265D9
:10043000C94A13788363C94BC36115781023022D11
:1004400008D01578012D05D01578032D02D0157828
:10045000042D00D10362C24D45611925AD018561AE
:100460003725CD6036272826C763082546640564EE
:100470004F6032270F603B27CF634127CF64392776
:100480004031E0C132274F6002274F6142270831D7
:10049000E0C11E274F60CE608D6005264E6142266A
:1004A0000E615A2660390E614D613C258D61AF2584
:1004B000ED000560AB4D05631578022D09D0157868
:1004C000012D08D01578032D07D01578042D06D0FE
:1004D00007E0152504E0436003E00E2500E00C254D
:1004E0004560FF252D358560C560FF25F535056123
:1004F0009D4D85647D25ED009C4ECD67C6644562AB
:100500009B4D85627325C565062545658565C51DB9
:100510000826F93502272E6047664B27FF008766BD
:100520000927C766934F07674667BE108467C6678B
:10053000914F8E4E3E601678022E09D01678012E0D
:100540000AD01678032E0BD01278042A0CD00EE0B5
:100550001A22CA61212205E01422CA61182201E090
:100560001322CB610A6202E00E220B62CA617E4A4C
:100570008A627D22D2008A6764224A620522CA62A8
:1005800002220A63C8228C634A63382169607B496E
:1005900029647B49A9614B21C900E9617349FF3096
:1005A000643929627D2109016962EC661E212C678C
:1005B000A9667049A965E965891029666964696752
:1005C0007049A9677049714A8130E96702608260A9
:1005D0004160FF21F531C16001616E486C495A4AA2
:1005E00081606D49803A11616A496C4A80318A6242
:1005F0006B4ACA626B4A82616B4AC2626B4A02638F
:100600006B4A64484038C2636A4ACA616A49816376
:1006100060496A48403188616A49694888605D4834
:10062000694A80384260694A4263694A0A62694994
:10063000816058496848C039C860FFF7E1FC012073
:10064000FFF7E4FCF8BDF3B50746644881B0C16923
:10065000634A1140FF310931C161002613E00025D2
:100660002C461120FFF7D8FC5C48406A8007800FB9
:10067000610088402843641CE4B20546102CF0D386
:1006800001C7761CF6B202988642E8D3FEBD10B5CB
:100690002E4C607800280AD104215248FFF7D3FF7E
:1006A000504804211030FFF7CEFF0120607010BDCC
:1006B000F0B500248BB00D460646102902D9012062
:1006C0000BB0F0BDFFF7E3FF464900200A5C401C79
:1006D0001419C0B21028F9D3002C03D0102D03D95F
:1006E0000B20EDE70E20EBE73F483E4C002300686F
:1006F00002A91034E25CC75C7A40CA545B1CDBB2CE
:10070000102BF7D306AA3748FFF78CFC102D00D921
:1007100010252A4606A93046FFF78AFCFFF78EFC13
:10072000216840182060FFF789FC6168401860600C
:10073000FFF784FCA1684018A060FFF77FFCE16828
:100740004018E0600020BBE70004FF1F507BFF1F44
:10075000C8C2FF1FCC76FF1F4A0AFF1F3A070000DE
:1007600080C3C9019A02000050C30000280A00009B
:100770006A180000204E0000F009FF1F0040001121
:1007800068100000DC05000040420F001027000048
:10079000D562FF1F0001FF1F9131FF1F8D67FF1FF3
:1007A000656AFF1FF92DFF1F8D2FFF1F152EFF1FDD
:1007B000C93EFF1FD973FF1FFD71FF1F8D27FF1F4C
:1007C0004935FF1F0002FF1F4D5FFF1F2961FF1FFB
:1007D0006D60FF1F095FFF1F7935FF1F40F000406C
:1007E00000FEFEFF50A1FF1F747BFF1F0A780270FE
:1007F0008A7842704A88120A82700979C17004208E
:1008000070470A7802700988090A4170022070470F
:1008100010B500220EE093005B189C7804705C8891
:10082000521C240A44701C7984709B88D2B21B0A23
:10083000C370001D0B789342EDD81806800D10BDD3
:10084000F8B50D4606464978012031700024761C23
:1008500016E06978012917D01221614349198A7875
:1008600032704A88871C120A7270B61C10223046F9
:10087000091DFFF7DDFB1037B8B21036641CE4B277
:100880002978A142E5D8F8BDA10049198A783270CB
:100890004A88871C120A7270B61C02223046091D53
:1008A000FFF7C6FBBF1CB8B2B61CE7E710B50C4695
:1008B000097801702188090A41706288211D801C15
:1008C000FFF7B6FB6088801C80B210BD10B50C46E7
:1008D000097801702188090A4170A17881706188C6
:1008E000090AC170A288A11D001DFFF7A1FBA08805
:1008F000001D80B210BD10B50C460A88891CFFF798
:1009000097FB208810BD10B50B788A78027053438E
:10091000DCB22246401C091DFFF78AFB601C10BD9B
:1009200010B50B788A7802705343DCB22246401C23
:10093000091DFFF77DFB601C10BD10B50C460A8831
:10094000891CFFF775FB208810BD10B50C460A887E
:10095000891CFFF76DFB208810BD7FB51546044646
:10096000022901D0102903D1022B04D0102B02D070
:10097000002004B070BD994202D10A46294607E022
:100980001029694607D000F00DF810226946284664
:10099000FFF75AFBEDE7104600F004F81022694615
:1009A0002046F5E770B50C4605000CD0002C0AD0A7
:1009B000102206492046FFF73BFB28782073687811
:1009C0006073012070BD002070BD000080800211A6
:1009D00010B50B460122024902F068FB10BD000071
:1009E000ED07021170B5064608880C46172812D389
:1009F0000B4603220949304602F058FB050008D196
:100A0000074920880988884200D20146304600F014
:100A1000B7F9284670BD022070BD0000030802111E
:100A2000827BFF1F10B500231922194602F03EFBFE
:100A300010BD000010B50A78002A05D00B46072229
:100A4000024902F033FB10BD022010BD1108021153
:100A500010B54A78012A01D0022A08D10A78002A62
:100A600005D00B460522034902F020FB10BD0220F1
:100A700010BD00004108021101494000085A7047AA
:100A8000807BFF1F10B50B461B22024902F00EFBB4
:100A900010BD0000AD080211014917200880704701
:100AA000807BFF1F0098022B01D004207047117833
:100AB0005278120289180180002070470098012B9B
:100AC00001D004207047117801700020704770B584
:100AD000049C1E461546062B1BD36978287809020C
:100AE00040182080E978A878090240186080022226
:100AF0002271291D601DFFF79BFAB61FB2B2228139
:100B0000F02A06D82046A91D0A30FFF791FA0020E6
:100B100070BD042070BD0098042B01D004207047E4
:100B2000537811781B02C91801809178D27812028B
:100B30008918418000207047F8B584890D46064623
:100B4000002C26D0B2681778380620D50C2C20D976
:100B50000C3CA4B21019009001217088234602F0C9
:100B6000D3F8002811D0022028707806C00F6870D2
:100B7000B806800EA870641E2004000CA88001D066
:100B8000B068401CA8600020F8BD0120ECE7002000
:100B9000EAE70120F8BD10B502981146042B14D3E2
:100BA0004C780A78240212190280CC788A782402C0
:100BB000121942801B1F9AB28280F22A05D8801D2A
:100BC000091DFFF735FA002010BD042010BD009864
:100BD000042B01D004207047537811781B02C918E8
:100BE00001809178D27812028918418000207047E4
:100BF00010B502981146062B03D0142B03D0042005
:100C000010BD022200E0102202714B780A781B020C
:100C1000D2180280CB788A781B02D21842800279DF
:100C2000401D091DFFF704FA002010BD30B5039CDC
:100C3000D80718D1D805010E022914D30B48808893
:100C4000814210D8F6200155002008E0557813782D
:100C50002D025B194500401C6353C0B2921C8842B0
:100C6000F4D3002030BD042030BD00007A7BFF1F8C
:100C70000098022B01D0042070471178527812029C
:100C8000891801800020704770B514460246049808
:100C9000022B18D3667825783602AD1905800546F3
:100CA000E0352A766976002A0BD0E8219B1E9AB29D
:100CB00042808A4207D8A11C001DFFF7B9F9002025
:100CC00070BDF421F2E7042070BD000010B50B46A2
:100CD0001722024902F0EAF910BD0000CD08021106
:100CE00010B50B460D22024902F0E0F910BD0000DC
:100CF000F708021110B50A78002A05D00B46112218
:100D0000024902F0D3F910BD022010BD07090211FB
:100D100010B50A78002A05D00B460922024902F0D4
:100D2000C5F910BD022010BD2109021110B50B46F6
:100D30000F22024902F0BAF910BD00003B0902116E
:100D400010B50B460B22024902F0B0F910BD0000AD
:100D50004B090211F72800D9F720084A01461080F4
:100D6000401EC3179B0F18188003000C5080491EAB
:100D7000C80F4018C003000C908070477A7BFF1F9B
:100D8000044A1288914203D8024A4000921D11522F
:100D9000704700007A7BFF1F10B50023132219460D
:100DA00002F084F910BD000070B50C460146032026
:100DB00000020A1A002534481300FFF74BF91D10F2
:100DC00012151C1F2326282C303234383A3C3E4062
:100DD000424446484A4E50525A5456585A00C079D6
:100DE00011E01022294902E0284910221031204642
:100DF000FFF71EF945E0C06A206042E02249062262
:100E00003C31F4E7007820703BE0808936E01E49F1
:100E100042784231EBE71D4982781F39E7E7007AD3
:100E2000F1E7407AEFE7184906223031DFE7807AB0
:100E3000E9E7C07AE7E7C08920E0808A1EE0C07851
:100E40001CE0C08A1AE0008B18E0408B16E0808B13
:100E500014E00D4906223631C9E7C08B0EE0008C44
:100E60000CE0408C0AE08079CDE7008A06E0408AF9
:100E700004E0272904D2084600F078FA208000E038
:100E80000225284670BD0000B877FF1FC59BFF1FD5
:100E900070B50E4C00256071A571691EE18100F0EE
:100EA00095FB0420E071102200210948FFF7D8F8D3
:100EB0000748102200211030FFF7D2F8E5622572B2
:100EC00065720720A072E57270BD0000B877FF1F41
:100ED000C59BFF1FFEB53B4D0C4608040CD5687939
:100EE000FFF7C4F8050004D002F086FE2846FFF79D
:100EF000C3F80120C00360E0600403D50120800333
:100F00004840FEBD2F48E1070126807900292AD0FC
:100F10002978002920D0052821D0297A6846017037
:100F2000697A4170274906223031801CFFF780F82A
:100F3000A97A68460172E97A41726946687900F0D7
:100F400031FA002808D00720A871696A002903D067
:100F50000968002900D0884720467040FEBD032064
:100F600069460870E4E7A1070DD5052809D1E8898D
:100F7000FFF788F8AA8A002A03D002216879FFF7D0
:100F800087F8022019E0600704D5002002F08CFEEB
:100F9000042012E0200712D52879012802D0022867
:100FA0000AD107E00096AB8B6A8B298BE88A00F0A8
:100FB0000BF801E000F05AF908206040FEBD002067
:100FC000FEBD0000B877FF1FF8B5134C069EA5794B
:100FD000052D01D01420F8BD104F851FBD4219D238
:100FE000062917D3BD1DA94214D2FF27F537BA42EF
:100FF00010D20A2B0ED3AB420CD2E0822183628343
:10100000A383304602F050FE04216079FFF746F8D2
:101010000020F8BD1820F8BDB877FF1F7A0C00003B
:10102000F7B50D4680490098164642187F4F0024B8
:101030007879B9791300FFF70DF8190E141BE92020
:1010400040455970777E888FE996A2A9B4BFC8E958
:10105000E9E9E9D3E900102D76D110223146744830
:101060006FE0102D70D1724810223146103068E0C8
:10107000042D69D13068F862CEE0012D64D13B784F
:1010800032783A70002B0AD0002A07D1022903D007
:10109000062901D0042901D100F03EF9BCE0002A64
:1010A0000AD0012905D0032903D0052901D004293C
:1010B00002D10121FEF7F8FFAEE0022D44D13088C5
:1010C000B881A9E01F2D3FD858481F220021423087
:1010D000FEF7C6FF55482A4631464230FEF7A8FFC4
:1010E000524B7D7042332A46012112E01F2D7CD8DD
:1010F0004F481F2200211F38FEF7B2FF4C482A46F6
:1011000031461F38FEF794FF494B2A461F3BBD70FE
:101110000021787900F0D0FA83E0012D65D1307894
:10112000042862D8387277E0012D5ED13078032828
:101130005BD8787270E0062D57D13C4806223146C4
:101140003030FEF775FF67E04FE0012D4DD130786C
:1011500007284AD8B8725FE0012D46D130780328BD
:1011600043D8F87258E0022D3FD13288BA82002A63
:1011700052D0052950D10221FEF78AFF4CE0012D03
:1011800033D13078012830D8F87045E03088022D0E
:101190002BD1062829D31921C901884225D8F882E4
:1011A0003AE03088022D20D106281ED31921C9012A
:1011B00088421AD838832FE03088022D15D1FF21BC
:1011C000F531884211D2788326E03088022D0CD187
:1011D0000A280AD31921C901884206D8B8831BE01E
:1011E0003178012D01D1012901D0182414E0082102
:1011F000FEF760FF002801D016240DE0002002F069
:1012000053FD04217879FEF749FF05E0009827286F
:1012100001D2022D02D002242046FEBD318800F00A
:10122000FBF90446F8E70000FFFCFFFFB877FF1F5B
:10123000C59BFF1F1CB50B4CA179002901D01120C3
:101240001CBD002800D06062064907482C310346C7
:1012500001910090103B0022E179607900F016F8CE
:1012600000201CBDB877FF1FD59BFF1F10B5064897
:101270008179052901D0122010BDC189132240793E
:1012800000F0DAF910BD0000B877FF1FFFB581B09C
:101290001E460D4602240B9F0B00FEF7DBFE0D1AC7
:1012A0000B1A1A0B1A1A1A1A1A1A1A081A000AA072
:1012B00001F03AFF2946019800F0D8F8040008D15F
:1012C0003A4630460A9900F087F900F0EBF801F051
:1012D0000BFD204605B0F0BD4741505F446576697F
:1012E0006365496E69743A204741505F50524F46DA
:1012F000494C455F43454E5452414C207C20474168
:10130000505F50524F46494C455F504552495048F6
:101310004552414C200A000070B5104C216800294C
:1013200004D00978814203D0032070BD122070BD23
:101330000B4D02212878FEF7B1FE0A4800264680B0
:1013400004212878FEF7AAFE0748068021680320BA
:1013500048700020FEF7B4FE70BD0000E47BFF1F64
:10136000157CFF1FF87BFF1F8A7BFF1F272803D2F6
:1013700002494000085A704701487047927BFF1F9E
:10138000FFFF000010B5064C607004F0FDFB6078B4
:10139000FEF79CFE0521607800F0BCFE10BD000049
:1013A000147CFF1F70B5284E054630680C46002897
:1013B00001D0112070BD254801780520014216D0CA
:1013C00023488068002805D00078002802D0C8078C
:1013D00006D101E0102070BD00F044F8002808D0CC
:1013E0002078032805D0022803D0002801D012203D
:1013F00070BD0C20FEF770FE3060002820D0057014
:10140000002141700A222146801CFEF711FE02F0E5
:101410002FFD040002D001F023FF12E00D480078F8
:1014200003280ED11D20FFF7A1FF0B4900280880DB
:1014300007D00B48094A04210078FEF753FE00E06C
:101440001324204670BD0000E47BFF1F877BFF1F35
:10145000F87BFF1F887BFF1F8A7BFF1F60EA00006D
:10146000157CFF1F10B504F0ADFB10BD70B50C4628
:1014700005461C2200210948FEF7F2FD08480570C8
:101480004470FEF735FE0549002803D0002008709F
:10149000122070BD01220A7070BD000080A1FF1FE4
:1014A000867BFF1F70B50F4C0025A068002802D076
:1014B000FEF724FEA560E068002802D0FEF71EFEBD
:1014C000E560094805210078084206D0054810303B
:1014D00002F098FA01F066FE70BD002002F092FA68
:1014E000002070BDF87BFF1F877BFF1FFEB5344DCA
:1014F0000C46080419D56878FEF7B8FD0121C90328
:101500004C40064600280ED002F09CF9002807D176
:101510002878FF2804D03146FEF7F6FD002802D0D7
:101520003046FEF7A9FD2046FEBDE0070127002852
:101530000AD0A868002804D04168002901D0002002
:10154000884720467840FEBDA00709D56868002876
:1015500004D04168002901D00120884702202AE0F8
:1015600060072AD5174E308800281FD0401E00047F
:10157000000C30801ED101F0E5FE002809D0124891
:1015800007706868002804D04168002901D0012054
:10159000884701F0B1FE694601F000FB684602F0A1
:1015A0003BF91D20FFF7E2FE308003E0042168785C
:1015B000FEF774FD04206040FEBD0020FEBD00006B
:1015C000147CFF1F8A7BFF1F897BFF1F0149087066
:1015D00070470000147CFF1F70B50E4C0B46261D93
:1015E00007C60546102200211846FEF793FD012884
:1015F00003D11021A06805F0D3FA1022002128465B
:10160000FEF788FD012803D11021606805F0C8FAB3
:1016100070BD000080A1FF1F272807D2044A914215
:1016200004D0044A40001152002070470220704745
:10163000FFFF0000927BFF1FF8B50D4617461D49BE
:1016400006461B4A1224C868954208D100282DD0AE
:101650000268002A2AD029463046904723E0144ADF
:10166000521C954213D1002807D00268002A04D0EA
:10167000294630469047040005D03946304601F0EF
:101680006BFD040012D10B48067047700EE028462F
:1016900004F04AFA002809D00078B04205D1394652
:1016A0002846FEF73DFD044600E003242046F8BD31
:1016B000FEFF0000E87BFF1FF8B50E460146194803
:1016C0001546007805221F46104028D0304326D00A
:1016D0001548012E1BD0C468002C20D01F2D18D80F
:1016E000002D01D0002F14D001701F220021601C9A
:1016F000FEF7B6FC2A463946601CFEF799FC2846E0
:101700002570002E07D0611CFEF710FDF8BD84681F
:10171000E2E70220F8BD611CFEF70EFDF8BD1220C5
:10172000F8BD0000877BFF1FF87BFF1F014610B547
:101730000020C90704D0034A0421034800F0A6F999
:1017400010BD0000E87F02113C78FF1F70B50F4DFF
:101750000F4CA87029461831204600F01DF80021D2
:1017600028460B461030CA0084521218491C09063C
:101770005360090EF7D0012003F05AFAA87800F060
:1017800023FB044804F030FA70BD00001C78FF1FF2
:10179000FFFF00006944021170B50A4C0025A04209
:1017A00009D1002082008C525218401CC0B29570A2
:1017B0000228F7D370BD02F026FE0028FAD004807C
:1017C000857070BDFFFF0000F8B50E46074606990C
:1017D00000240798002902D00B242046F8BD022BD4
:1017E00001D00D24F9E711785278120289188DB2D0
:1017F0002946814301D08024EFE73846F16800F0A4
:101800003DF9A842E9D02A463846F16800F0A8F927
:101810000400E2D171892A46384600F065F9DCE718
:1018200070B50C46080412D50A488078FEF71EFCF5
:10183000050008D02878B02802D1284602F000FF21
:101840002846FEF719FC0120C003604070BD00204F
:1018500070BD00001C78FF1FFFB587B0087A002517
:10186000109E1C460F46C0060DD5099802F0C4FD17
:10187000030006D00A22394607989847050035D15B
:1018800001E00E2532E0387802281DD1786829223F
:101890000178407812020002081880B2811A904242
:1018A0007ED009DC7249401A23D0012821D00228B9
:1018B00051D0032808D125E0012972D0022971D026
:1018C00003296DD004296ED0099802F0BDFD0028CF
:1018D000D7D00568002DD4D01299119801910090AD
:1018E0003346224639460798A847054628460BB096
:1018F000F0BD1198002873D1F86801783180027822
:10190000416897E0119800286AD101203080F8687A
:101910000021007820707889401C80B200F04EF9D8
:1019200000280FD0318802788918891C3180817A8B
:1019300061704189090AA17002784168E01CFEF7D4
:1019400077FBD3E730880422001D30800021601C23
:10195000FEF786FBCAE71198002872D1F86804A93F
:101960000088009004203080009820700098000AC1
:101970006070009800F022F9070028D0F868059000
:101980006846028A03AB3B49384600F06FF90028ED
:101990000FD13B78022138487A68FEF7DEFF03E07A
:1019A00027E031E01DE049E0002802D1401E6946F1
:1019B00088810598007802280CD105980222416898
:1019C000201DFEF735FB3088801C308002E0694620
:1019D0000098888168468089A070000AE07085E7D9
:1019E0002FE0119800282CD1F968079800F046F8EC
:1019F00004E01198002824D1F86800880221318081
:101A00002070000A607071E7F868FEF79BFB11997F
:101A1000C0B2814210D8814201D1002206E0129A60
:101A20008918814202D31199401AC2B23280F968F2
:101A300011980918204682E7072557E711980028D2
:101A400001D00B2552E70721F86831800178217019
:101A5000417861708178A1704188090AE17001794B
:101A6000217181796171C088000AA0713EE7000090
:101A700000280000FFFF0000F680021110B502F000
:101A8000C2FC002800D0807810BD00007CB5144650
:101A9000050019D068460195018000F09BF903000C
:101AA0001DD1002C1BD06D89002D0DD00C20FEF710
:101AB00013FB00280AD0002303608580094A846054
:101AC0009168002904D006E0022308E0132306E011
:101AD000906004E011460A68002AFBD108601846AD
:101AE0007CBD00001C78FF1FF8B50C4C0746207821
:101AF00015460E46FF280FD00A20FEF729FB0100ED
:101B00000AD0B12008700020487008714F80CE8044
:101B10000D812078FEF7F8FAF8BD00001C78FF1F51
:101B2000FFB583B008461F4601A90C9E00F046F899
:101B3000050012D06846808802F086FC00280AD092
:101B40004468002C07D000963B462946059A039826
:101B5000A04707B0F0BD0E20FBE70120F9E7000029
:101B600070B514460E46054602F04DFC002806D11D
:101B70003146054802F047FC002803D005808470F8
:101B8000002070BD112070BDFFFF000010B501786E
:101B9000B0290BD14178002908D10179122906D04A
:101BA0001B2903D14088012100F03EFA10BDFF211E
:101BB0000231095C0129F5D010BD0000F0B58C465A
:101BC00010494B6819E09F687C89A04214D39E8815
:101BD0003119814210D900220CE011017D18698968
:101BE000814205D16046002800D004802846F0BD1F
:101BF000521C92B29642F0D81B68002BE3D1002011
:101C0000F0BD0000207CFF1FFFB5174881B00A9F80
:101C1000446824E000251EE0A06829014618708968
:101C20000199884215D30299884212D80498002855
:101C300007D031787068049B039AFEF78EFE002867
:101C400007D0002F02D0A06840893880304605B008
:101C5000F0BD6D1CADB2A088A842DDD82468002C70
:101C6000D8D10020F3E70000207CFF1FFEB5174607
:101C700000256A469580044640891D4A1E469042CA
:101C800008D001AA0092401C237880B26268FFF756
:101C9000BBFF05462378022116486268FEF75DFE09
:101CA000002807D12378022113486268FEF755FE09
:101CB000002801D060890EE0237802210F48626875
:101CC000FEF74BFE00280DD0002D03D0684680881B
:101CD000B84203D0384603F0A9F804E06889401EF2
:101CE00080B200E06089002E00D030802846FEBD22
:101CF000FFFF0000F4800211F6800211FA80021149
:101D000010B505490870042100F004FA00F006F847
:101D1000FEF7C2FE10BD0000307CFF1F70B50E4CF8
:101D200000200C4B651CFF228100C91800280ED032
:101D30000D80401CCA70C0B28A700228F4D30748D4
:101D400002F04CFB064803F04FFF002070BD0C80F2
:101D5000EFE70000287CFF1FFEFF00005D4D021131
:101D6000DD4C0211F8B50D4614460646694602F0F0
:101D700091F917280CD0002C06D0012210213046F2
:101D800003F0ACFE002803D129463046FEF77AFE68
:101D9000F8BD000070B50C46080411D5094800785C
:101DA000FEF764F9050007D00178A02901D102F0FF
:101DB000B9FA2846FEF760F90120C003604070BD03
:101DC000002070BD307CFF1F014908707047000083
:101DD000207CFF1F70B50546008800281DD068686C
:101DE0000221037842682248FEF7B7FD002808D197
:101DF00068680221037842681E48FEF7AEFD00289D
:101E00000BD01D4C6088002805D0012229881204BF
:101E1000101A814203D9012070BD022070BD0C2030
:101E2000FEF75AF9060001D000200AE0132070BD29
:101E300002016B6861880A329952491C401C61801A
:101E400080B229888142F3D80020306008222946D8
:101E5000301DFEF7EDF86068002802D1666004E0EE
:101E6000084601680029FBD10660002070BD000013
:101E7000F4800211F6800211207CFF1F0649496898
:101E800006E08A685289824201D1888870470968D1
:101E90000029F6D100207047207CFF1F10B51422C6
:101EA000114201D0012202E04A0604D5002210218D
:101EB00003F014FE10BDC80701D0002010BD0220A1
:101EC00010BD10B514468A0604D50122102103F076
:101ED00005FE10BD882211420ED008220A401021B2
:101EE00003F0FCFD00280BD0E034617E0029F0D027
:101EF000217E0129EDD103E0880701D4032010BD24
:101F0000002010BD014610B50020C90704D0034AC7
:101F100007210348FFF7BAFD10BD0000D47F02116E
:101F20004477FF1F70B50D46164600241D49030077
:101F3000FEF790F808051234341934222934152D8F
:101F400023D8162200211848FEF78AF82A4631467F
:101F50001548FEF76DF822E0022D16D111491088C0
:101F6000103908801BE0082D0FD10E480822314699
:101F70000838FEF7F3F812E0012D06D1CA690949C5
:101F80003078283107E0012D01D0182407E0CA6B12
:101F900004493078483103F010F800E0022420466C
:101FA00070BD00004477FF1F909BFF1F0B780370EC
:101FB0000B8802221B0A43700B88801C012B02D065
:101FC000022B07D011E08A7802704988090A417013
:101FD00004220AE08A7802704A88120A42700A795A
:101FE00082708988090AC170062210467047000075
:101FF00008B5044B009313460A46012103F0BEFCCA
:1020000008BD0000AD1F02111CB50323019200930F
:102010000A46024B122103F0E1FC1CBD9D52021145
:1020200010B5FEF7A1F810BD13B5044800780128DB
:1020300003D101AA6946FEF79DF81CBD3C7CFF1F39
:1020400070B50F490F4A087000210B468C00491CDF
:10205000C9B213530429F9D30A4C00211034FF26C6
:102060000A460A256A4315196B80491CA354C9B254
:102070006E720329F4D3FEF783F803F053FC70BDAE
:102080003D7CFF1F9CA1FF1F082A01D00120704743
:102090004B780A781B02D2180280CB788A781B0210
:1020A000D21842804B790A791B02D21882808A7931
:1020B000C97909025118C1800020704770B50C46DB
:1020C000080411D509480078FDF7D0FF050007D0B6
:1020D0000178902901D103F087FB2846FDF7CCFF5A
:1020E0000120C003604070BD002070BD3D7CFF1F1B
:1020F00070B500280AD1064C00252580A581A58051
:10210000A068002802D0FEF741F8A56070BD00006D
:1021100018A2FF1F072907D0052905D0042903D0DD
:10212000062901D002207047044A8B009A181346F2
:10213000403B1986203A9074002070479CA1FF1FF5
:1021400070B506001BD10E4C0025214640310D74A0
:102150004D740D76606D002802D0FEF717F86565A6
:102160005C20002546433419E80020184068002808
:1021700001D0FEF70BF86D1CEDB20A2DF4D370BD43
:1021800028A2FF1F70B50A880C460546072A07D00B
:10219000052A05D0042A03D0062A01D0022070BDEA
:1021A000012103F04FFD002804D02146284603F00A
:1021B0008BF870BD142070BD10B5001D80B2FDF706
:1021C000EBFF002803D00321C943FDF7EBFF10BD4F
:1021D00010B50146044800F0E9FA03481021183808
:1021E0000078FDF761FF10BD347BFF1F10B500289C
:1021F00001D0012100E000210420FDF7D9FF10BD2E
:10220000F8B5002810D000240120FFF7EFFF64206C
:10221000FDF7D4FF0020FFF7E9FF6420FDF7CEFFB4
:10222000641CE4B2022CEFD300F058F80FA000F0C9
:102230007BFF092168460170002141700521418022
:102240006820FDF7C1FF0D4D7624EC600C4E03E0D5
:102250003046FDF7BFFFEC600920FDF7C1FF002805
:10226000F6D001216846FDF7C1FFF8BD737973749C
:10227000656D20666C61675B5D0A000000200040B0
:102280001027000010B50D4C207E012815D1E16902
:102290000BA0491EE16100F047FFE06900280CD166
:1022A0000D4802210078FDF7F9FE00202076E07C41
:1022B000012802D1002000F0AFF910BD987AFF1F6D
:1022C000776F726B696E672074696D65203D20259C
:1022D00064205B735D0A00001C7BFF1F10B50121A9
:1022E0001620FDF789FF00211620FDF761FF01216F
:1022F0000220FDF781FF00210220FDF759FF012197
:102300000320FDF779FF00210320FDF751FF012194
:102310000720FDF771FF01210720FDF749FF01218B
:102320000420FDF769FF00210420FDF741FF10BDE7
:1023300010B5FFF7D3FF002201230321104602F05E
:10234000DBFE1621002002F009FF012300220321F9
:10235000184602F0D1FE0221012002F0FFFE012307
:1023600000220321022002F0C7FE0321022002F016
:10237000F5FE00F01BF802F025FF10BD10B5014678
:10238000044800F013FA034810210C380078FDF7D8
:102390008BFE10BD287BFF1F10B5002801D0002147
:1023A00000E001210720FDF703FF10BD10B5084C28
:1023B000FF222188002002F0E9FE6188FF2201202F
:1023C00002F0E4FEA188FF22022002F0DFFE10BD31
:1023D000987AFF1F06480178491CC9B20170132979
:1023E00004D9002101704188491C418070470000D8
:1023F000D47AFF1F10B50548417D912904D1C289C7
:102400000349072000F006F810BD0000987AFF1F6E
:1024100058800211F7B51A480F46418882B09142A0
:102420002CD90021174C4180267C64217000301883
:102430000090385C257D6843FDF7E4FE208000981D
:102440006421C71978786843FDF7DCFE6080B878AE
:1024500064216843FDF7D6FEA080761CF0B220749C
:10246000029988420AD300202074E07D012805D11A
:1024700071206075A08900F007F8E08105B0F0BD1B
:10248000D47AFF1F987AFF1F10B510490246497D84
:1024900000200B46703B0B2B05D805211046FDF79D
:1024A000B1FE1E2106E00B46803B112B05D85000E3
:1024B0007D210901081A80B210BDA029FCD1052197
:1024C0001046FDF79FFE1921F4E70000987AFF1FE0
:1024D00010B560380300FDF7BDFD0705080B1411AA
:1024E0000E17070000F060F810BD00F037F810BDBF
:1024F00000F00EF810BD00F01FF810BD00F07AF8E3
:1025000010BD00F03FF810BD00F062F810BD0000F3
:1025100010B5084C0020E0802081FF216181217DE1
:10252000208060800802401A6421FDF76BFEA080C5
:1025300010BD0000987AFF1F10B5074C0020E08006
:10254000802121816181217D2080C8016421FDF7E6
:1025500059FE6080A08010BD987AFF1F70B5084CAE
:102560000025E580FF2020816581207D25800102F6
:10257000081A6421FDF746FE6080A58070BD00004A
:10258000987AFF1F70B5074C8020E08000252581D8
:102590006081207D6421C001FDF734FE20806580CC
:1025A000A08070BD987AFF1F70B5084CFF20E080B6
:1025B000002525816581207D0102081A6421FDF72F
:1025C00021FE20806580A58070BD0000987AFF1FE5
:1025D00010B5074C8020E08020816081207D64213F
:1025E000C001FDF70FFE20806080A08010BD0000BC
:1025F000987AFF1F70B5074C8020E080208100256D
:102600006581207D6421C001FDF7FCFD2080608094
:10261000A58070BD987AFF1F10B50021124C0028CC
:1026200018D00120E074A07D60750246603A062A49
:1026300002D8FFF74DFF09E0902807D108460B4963
:1026400048802074A081FFF71FFFE08108A000F000
:102650006BFD10BD607DA075E17421806180A1805B
:10266000617507A0F3E70000987AFF1FD47AFF1F77
:102670007475726E206F6E206C65640A0000000035
:102680007475726E206F6666206C65640A000000C7
:10269000F8B5214F01243A79002A01D07C71F8BDA8
:1026A0000E46002819D033E07D20C000FDF792FDD2
:1026B0001921A868FDF7ACFD00280FD0FDF7AEFD8D
:1026C0002043A8600920FDF78BFD002802D00020E0
:1026D00078711DE0761EF6B200E0104D002EE3D1B9
:1026E000FDF79CFD2043FF26F536A8600AE0314641
:1026F000A868FDF78DFD002804D0FDF78FFD20436D
:10270000A860CBE70920FDF76BFD0028EFD07C71B6
:102710000020FFF775FDF8BD8C7AFF1F1C7BFF1FA3
:1027200070B50446007900283BD0FDF777FD0246DE
:102730000121A0680A43821A8B07921E9A4230D365
:10274000A279002A06D06079002806D0FF2811D08F
:10275000401E6071607900280CD1207906256843FD
:102760002368401D185C20716843001D185C60716F
:10277000002806D02079062523686843185A0028C7
:1027800010D0002A10D00020A071FDF747FD21795C
:1027900006225143A279520089182268515A4018E2
:1027A000A06070BDA171F0E70120EDE710B504460F
:1027B0000268084606235843001D105C60712171B1
:1027C0000020A071FDF72AFD01210843A06010BD83
:1027D000F0B5A1480D460078BFB009040BD5FDF750
:1027E00045FC040004D0FDF71FFD2046FDF744FC26
:1027F0000120C0032BE1E90703D0FFF7D7FD01203B
:1028000025E1A90708D57D22D2000221FDF740FC71
:10281000FFF738FD02201AE1904C68077ED5904FF3
:1028200001AE39463A7A203902A8FDF701FC397A1F
:102830006846C180BB210172384620388178401C2F
:10284000891CFDF7F7FC0146009086A000F06CFCA7
:10285000397A38462138095C009881427DD1384662
:1028600020380178AA29F9D18249497A0029F5D17D
:102870004278F71C012A0AD0022A0DD0032A12D06E
:10288000042A2FD0052A53D0062A73D097E0E07C83
:10289000002865D1012003E0E07C012860D1002000
:1028A000FFF7BAFE5CE0E27C012A59D1C078421EF3
:1028B000062A05D85F30C0B26075FFF709FE4FE009
:1028C000082803D06CA000F02FFC49E0912060752F
:1028D00008466C4908802074E075A081FFF7D4FD9C
:1028E000E0813DE0C178204621750C46C17C01297C
:1028F00036D1417D6039062932D858486421C088D4
:102900006043FDF77FFC5549088008460089642133
:102910006043FDF777FC5149488000E057E00846E6
:10292000408964216043FDF76DFC4C49888017E0C5
:10293000C278012A02D0002A11D011E001212176AB
:10294000817940793C225043401C0818E06142489C
:1029500002210078FDF7A8FB02E036E00AE02176CC
:102960006946897A701D891CFDF764FC6946C9882F
:10297000C85524E0062268468272E27CC272607DFD
:102980000246603A062A02D86A465F3803E0912878
:1029900002D108206A461073207E6A4650739173F4
:1029A0003C21E069FDF72EFC6A46D07311740821C2
:1029B000701DFDF73FFC6A4650740A20D08002204B
:1029C000FFF706FC01A803F059FF04203FE02807A9
:1029D00027D52D4B6E460FCB0FC6607D69464870DC
:1029E000012802D0603806280CD8218868460A0AD7
:1029F0008270C17061880A0A02714171A1880A0A55
:102A00008271C171E0896946020A0A7348736A4695
:102A100010218820FDF714FC1CA000F085FB082085
:102A200015E0E80616D513484079012802D00028A1
:102A300009D00BE000F068F8074864221021007804
:102A4000FDF726FB02E00120FFF7DAFB10206840CB
:102A50003FB0F0BD0020FBE71C7BFF1F987AFF1FF3
:102A600044A1FF1F636865636B2073756D203D2073
:102A700025780A008C7AFF1F6D6F6465206572727D
:102A80000A000000D67AFF1F708002117772697405
:102A90006520666C617368206D6F64650A000000D4
:102AA00010B50F4C20700FA000F03EFBFDF7CEFBE1
:102AB0003C210020FFF7ECFDFFF73AFCFDF7CCFBD3
:102AC0001048407901280AD10A2210212078FDF708
:102AD000DFFA0220FFF752FC0120FFF779FB10BD5F
:102AE0001C7BFF1F4C435F4770696F5F55495F4C0C
:102AF00065645F42757A7A65725F496E69743A0AF5
:102B0000000000008C7AFF1FF8B52248FFF708FE8E
:102B1000009020480C30FFF703FE1E4E0025307950
:102B200037460C371C4C002802D13879002810D0C9
:102B3000B079002802D1B879002808D00125A57104
:102B4000FDF76CFB134928430C39486010E0A57170
:102B500011E0104A0C3A5068002809D06421FDF7B2
:102B600057FB002804D00B48A5710C38456002E0E3
:102B7000A079022803D06820FDF726FB02E0682038
:102B8000FDF770FBB079FFF707FCB879FFF72EFB74
:102B90000098F8BD287BFF1F8C7AFF1F38B50C46C4
:102BA000050014D0002C12D00321684603F0F8FF72
:102BB0006946887840218006800E084369468870FF
:102BC0002246284604F024FD050002D006E002203B
:102BD00038BD03226946E01CFDF72AFA284638BDB5
:102BE000F7B58EB00E9815460E4600282DD0002D54
:102BF0002BD0301DC0B20190FDF76EFA040039D021
:102C000000F086FB07463246201D0E99FDF730FB8B
:102C1000F8B20890E0703804000E0B90A0703802F3
:102C2000000E0A9060703F0E277000F06BFB0146AB
:102C3000102202A8FDF71CFB06AB214602A8019A50
:102C400004F03CFC060003D010E0022011B0F0BDFF
:102C5000089828700B9868700A98A870EF7008227E
:102C600006A9281DFDF704FB00F058FB2046FDF7E0
:102C700045FA00E013263046E8E7000010B5064CA0
:102C80002070FDF7FBFA06212078FFF743FA03488E
:102C900002F0AAFF10BD00004C7CFF1FF56B021173
:102CA00070B50C46080419D50D480078FDF7DEF91B
:102CB00005000FD004F0BEF8002808D109480078BC
:102CC000FF2804D02946FDF71FFA002802D0284625
:102CD000FDF7D2F90120C003604070BD002070BD37
:102CE0004C7CFF1F147CFF1F10B50548007840077F
:102CF00001D5044800E0002004F024F9002010BDB4
:102D0000877BFF1F407CFF1FFFB58DB00F98169C7F
:102D10000E46002815D0002C13D00D9802F004FFA9
:102D2000050011D06178207809024018A178E27876
:102D30000904120689184718286AB84206D3401CAD
:102D400004D0022011B0F0BD1420FBE7002E04D007
:102D50002879800701D40120F4E70822002106A881
:102D6000FDF77EF91098001DC0B20190FDF7B4F98F
:102D7000060017D0301D109A0F99FDF779FA04223A
:102D800021463046FDF774FA1022A91802A8FDF773
:102D90006FFA06AB314602A8019A04F08FFB0500DA
:102DA00002D013E01320CDE7082206A908A8FDF7FA
:102DB0005FFA0822211D08A8FDF746F9012801D075
:102DC000012503E039460D9801F0ACF83046FDF7D7
:102DD00095F92846B6E7000030B5614C8DB0A0707B
:102DE00006211F20FEF718FC00206946087001220A
:102DF0000A7107220A72088418228A8430220A85FE
:102E00008885FF202D30088656A003C807910690BC
:102E10000222E11C5548FDF737FA0422611D100318
:102E2000FDF732FA52A000F07FF90621E01C03F012
:102E30008DF8E11C084606221530FDF7F9F82078D8
:102E40006946087303AA01214E48FEF7E9F84D4888
:102E500006AA0621801CFEF7E3F8C32002AA01217E
:102E60008000FEF7DDF847486A460121001FFEF7A3
:102E7000D7F8444808AA0221C01EFEF7D1F822461E
:102E8000612014320F21C000FEF7CAF83D482246E7
:102E900023321121801EFEF7C3F8312001AA01213F
:102EA0000001FEF7BDF8374809AA02210830FEF7F5
:102EB000B7F834480AAA02210930FEF7B1F83148C0
:102EC0000BAA02210A30FEF7ABF8C5200CAA02219A
:102ED0008000FEF7A5F82246343215210020FFF7C6
:102EE00021F8FF25913529460620FEF795FB294656
:102EF0000720FEF791FB29460820FEF78DFB2946A7
:102F00000920FEF789FB0025ED432846FEF7FAFF6E
:102F10002846FEF70BFCFDF7BDF9284600F0A0F8A7
:102F200019A103C90591049004A9082003F040F9F0
:102F30001720FDF70FFF0020FDF7B2F90020FDF785
:102F4000B5F90121A078FDF7AFF8A078FEF73EFBB8
:102F50000F48FDF7B1F90FA000F0E6F80DB030BD55
:102F6000407AFF1F01020304050600000440000030
:102F70006465765F6D61635F646174613A20307887
:102F80000000000009030000464143454D41534BFA
:102F9000689FFF1F3D3D3D3D3D53696D706C65422F
:102FA0004C455065726970686572616C5F496E6905
:102FB0007420446F6E653D3D3D3D3D3D3D0A000042
:102FC00038B50C46080415D518488078FDF74EF83A
:102FD00005000CD02878912806D168780E2803D1F6
:102FE000A98813A000F0A0F82846FDF745F80120B5
:102FF000C00316E0E0070125002808D00B480C307C
:10300000FEF718F9FDF75EF92046684038BDA007C5
:1030100009D5684605706A4601211048FEF700F898
:103020000220604038BD002038BD0000407AFF1FFC
:103030003D3D3E204843495F434F4D4D414E445F27
:10304000434F4D504C4554455F4556454E545F43A4
:103050004F44453A2025780A00000000050300008F
:1030600070B50546002409490948FEF795FB094853
:1030700002F0BAFDE80706D00448074A08210830E4
:10308000FEF704FD0446204670BD0000F478FF1FE3
:10309000FFFF00004D6802114C8002110A4610B576
:1030A00001460020FDF714F910BD0000FFB583B004
:1030B0000F4603981B4940001646085AFFF77CF854
:1030C00004002AD00125601C2670002F03D0069929
:1030D000B847401C85B2300610D51021039802F085
:1030E000B1FD002801D0192613E06219E9B220468B
:1030F000FFF776FD06000CD10C35ADB20421684611
:1031000001800194058169460398FFF73BF80600AA
:1031100004D02046FDF73AF800E01326304607B009
:10312000F0BD0000807BFF1F0FB410B503AA044858
:10313000029902F0D7FD10BC08BC04B0184700008B
:103140009D30021138B5034B00240FCB0094FDF7DE
:10315000C5F838BDBC7F021110B50C4602F0F8FC72
:10316000002804D040882146FCF7DAFF10BD122069
:1031700010BD0022002913D0002811D0012806D04C
:103180004A799206920E4A71032805D007E04879E1
:10319000C0221043487102E0402002434A710122DC
:1031A0001046704770B51248002500780521084286
:1031B0001BD02020FCF790FF0E4C0028A06013D0FD
:1031C00020220021FCF74CFF2020FCF785FFE06067
:1031D000002804D020220021FCF742FF05E0A0686F
:1031E000FCF78CFF0020A0601325284670BD00006E
:1031F000877BFF1FF87BFF1F002909D0012807D11B
:10320000497989098901C02902D0402901D00220C9
:10321000704703207047FFB500200E4608701AE083
:103220001C5C401CC5B2002C17D02819904214D841
:103230005F5D6D1CEDB2384600F09DFE002806D0A3
:10324000641EE0B2307000998F4202D1581904B068
:10325000F0BD4019C0B29042E2D30020F7E7000071
:1032600010B5044C2068002803D0FCF747FF00206D
:10327000206010BDE47BFF1F70B50E4D84002859FF
:10328000002815D0006A002801D0FCF737FF285924
:10329000406A002801D0FCF731FF2859806A0028D5
:1032A00001D0FCF72BFF2859FCF728FF00202851FC
:1032B00070BD0000F07BFF1F10B5044C6068002853
:1032C00003D0FCF71BFF0020606010BDE87BFF1FF0
:1032D0000100044805D104498978002901D0024839
:1032E000801D704790A1FF1F867BFF1F01488078DB
:1032F00070470000867BFF1F014840687047000050
:1033000080A1FF1F014880687047000080A1FF1F57
:103310000148C0680068704780A1FF1F10B50748CA
:10332000C0680168491C016005480078FF2803D087
:1033300001218903FCF7B8FE10BD000080A1FF1F2A
:10334000867BFF1F02484068002800D0012070479C
:10335000E07BFF1FFFB581B00F460D9E0A9D0398CD
:1033600002F0E2FB040042D0019800283FD120790E
:103370001021084320710499490702D5022108430E
:1033800001E0FD21084020710B99284608430C9963
:1033900008433043207902D00421084301E0FB2197
:1033A00008402071002E06D030691022206231467C
:1033B000A018FCF73DFE002D01D0002F05D00B9882
:1033C000002814D0012F08D011E0606A002801D035
:1033D000FCF794FE1C21284606E0606A002801D014
:1033E000FCF78CFE1C210B98FCF77EFF60620398B3
:1033F000224C8700E05900283ED0002D0FD0006AF3
:10340000002806D11C20FCF767FEE159002808625D
:1034100005D0E0591C22006A2946FCF709FE0C98E9
:10342000002810D0E059406A002806D11620FCF789
:1034300053FEE1590028486205D0E0591622406A3F
:103440000C99FCF7F5FD002E10D0E059806A002899
:1034500006D11420FCF740FEE1590028886205D00F
:10346000E0591422806A3146FCF7E2FD0B9B049A76
:103470000399019803F0FEF805B0F0BDF07BFF1F43
:10348000F3B581B0019802F04FFB050029D00E2062
:10349000FCF75EFE040024D02620FDF767FF06003F
:1034A00000D12E78D0202070002767700B20A070EC
:1034B0000622E91DE01CFCF7BBFD01986081029823
:1034C000C1070120002901D0207300E02773029971
:1034D000890701D5607300E06773F0B22146FCF7FD
:1034E00013FEFEBD10B581881F4B0124CA1A9942F4
:1034F00037D011DC1D4BCA1A994219D007DC1C4A7F
:103500008A1810D0022A1ED0032A29D11BE0472A8C
:1035100027D0482A24D124E01300FCF79BFD062184
:103520002222222222218068007800F0E5FC08E0B7
:103530008068827841781202891889B2007800F098
:103540003BFD04460DE0094A921E914201D1012241
:1035500000E0002280680178104600F015FD00E0D0
:103560000024204610BD0000532000000A20000067
:10357000FADFFFFF70B51A4D1A4A01460026287877
:103580001268194C01290CD0002A09D01749097872
:10359000490705D50221FCF781FD6680FFF760FE33
:1035A00070BD6188002903D0114B1B78002B05D01A
:1035B000002AF5D01078FDF7AFFE70BD3C2902D38C
:1035C0003C39618070BD0221FCF768FD62887D2076
:1035D000C000424302212878FCF75AFD668070BD86
:1035E000157CFF1FE47BFF1FF87BFF1F877BFF1FFE
:1035F000897BFF1F08B5418900910389C2888188B2
:10360000C07800F0C5FB08BDF0B504468088A12154
:1036100089004843304987B009684018FF30FF30BF
:103620000230A1794167002C54D02C4D68680028E5
:1036300023D006782A480068002804D04168002971
:1036400001D0002088472146E07908310591FFF735
:10365000D3FDE0710246277D638A218AE0890190CB
:1036600002A88AC0A0880090E0783146059B03F04C
:1036700077F8E078002802D00DE01A48D9E7E07921
:10368000E2896B46059907C3A379A18801223046D8
:1036900002F0F8F9E0706868002811D0FFF70CFE1E
:1036A000287800280CD06978FFF756FD002807D04D
:1036B000E078A2880346297803F0A6F80020287055
:1036C000A0881721FDF75CFBA088FEF711FDA088FC
:1036D000FEF736FD07B0F0BD3409FF1FE87BFF1F82
:1036E000187CFF1F867BFF1F70B50446002680886C
:1036F00002F01AFA002803D00678A08802F086FAB1
:10370000144D2878002808D0864206D16978FFF742
:1037100023FD002809D000202870002E05D0A379B1
:10372000A288A078314603F06FF8A088094A81008A
:1037300008325158002901D0FFF79EFDA0881721BB
:10374000FDF71EFBA088FEF7D3FCA088FEF7F8FC6F
:1037500070BD0000E87BFF1F70B58288294D0124F1
:10376000531B2949AA4242D019DC284D531BAA42B7
:1037700018D00BDC264BD21826D0254B1033D2188C
:103780001ED0032A17D0042A39D10BE0012B09D00F
:10379000022B07D0032B21D0042B30D11AE0433B5E
:1037A000072B2CD8496800292AD00968002927D07E
:1037B0008847044624E08068007800F0ADF81FE0F8
:1037C000806800F001F9F4E78068411C007800F09F
:1037D000D9F8EEE783681B78002B11D0896800299F
:1037E0000ED00B6808E0014610469847E1E709490A
:1037F0000968002904D04B68002BF4D100E00024B4
:10380000204670BD0E200000147CFF1F0820000021
:10381000F7EFFFFFF47BFF1F10B5094CA1780029DB
:103820000CD001460622A01DFCF702FCA11DA078C9
:10383000FFF79FFCA01DFCF75DFD10BD002010BD33
:10384000867BFF1F1CB52F49037801240A68912B42
:1038500002D0A22B2ED13EE04178052909D00E29B5
:1038600004D00F2908D03E2924D115E0FFF774FFBA
:1038700010E0FFF739FF3AE001468088224B01242F
:10388000C31801D0062B15D1002A30D05268002A67
:103890002DD0904704462AE081780124032917D0CF
:1038A00004DC012911D0022904D105E015291ED01C
:1038B00016291CD000241AE014498968002916D062
:1038C0004968002913D0884711E0FFF79DFE0EE0FC
:1038D000FFF790FE0BE00E490978042909D0002A71
:1038E00005D05268002A02D001460A489047204677
:1038F0001CBD00216A46118001794088FEF778FBE3
:10390000F5E70000F47BFF1FF3DFFFFF147CFF1FD0
:10391000877BFF1FFFFF0000F8B5164F0646BD1F4F
:103920002878FF2814D00A20FCF712FC04000FD0DE
:10393000D020207066700820A070A878E070062261
:103940003946201DFCF774FB21462878FCF7DCFB88
:10395000E87801280DD108480068002803D0806865
:10396000002800D080470648044A04210078FCF76C
:10397000B9FBF8BD8C7BFF1F187CFF1F60EA0000BD
:10398000157CFF1F70B500240546002805D10029CD
:1039900003D006220B48FCF74BFB0A48103801788D
:1039A000012907D10124002D06D0002101702846ED
:1039B00000F0CAF9204670BD02210170FCF7A0FC9E
:1039C000F8E7000090A1FF1F10B50024002813D0D5
:1039D00002780B49002A03D14288CA8202790A760A
:1039E0000A78022A08D102780124002A06D000228F
:1039F0000A70007800F0A8F9204610BD0322F7E70E
:103A000080A1FF1F0149486070470000147CFF1F20
:103A1000F8B5774C87780146002507266079A279AA
:103A20003B00FCF717FB0805361A37375F94C7369B
:103A3000487800285CD16E4806223C30C91CFCF74F
:103A4000F7FA0120A0716A4B01464233627860792F
:103A5000FDF732FE00284BD1A2E00F46497800293D
:103A600046D1F978002906D0624BA2780021FDF7F3
:103A700023FE78700AE0022A0BD00121FCF71AFB22
:103A8000002803D101216079FCF70EFB787800282B
:103A90002ED1F8BD497800292AD1032F09D0A28957
:103AA000002A0CD0217800290AD00121FCF7F0FA75
:103AB00006E0052A01D0022012E0062010E0257061
:103AC000A079062802D0042802D008E0052007E0EB
:103AD0000120207001466079FCF7E6FA60E00320DF
:103AE000A0715DE048780F46002803D031282CD023
:103AF000A67155E03E480622391D3630FCF798FA8B
:103B00007889E081B8892082F88960820520A071D7
:103B1000A28A002A03D002216079FCF7B9FAB88999
:103B2000E083F8892084388A6084E07801280AD10B
:103B30001F20FDF71BFC7D21C900484302460421DC
:103B40006079FCF7A5FA25702AE02570C7E72848B8
:103B50000E46062200213630FCF782FAE5832584E2
:103B6000658404216079FCF799FA08216079FCF7F3
:103B700095FAB079082808D00320A0712078002891
:103B800005D06079FDF7C8FB07E00420F5E70120C8
:103B9000207001466079FCF787FA0020C043E0817D
:103BA000606A002800D174E701680029FBD0A07981
:103BB0008847F8BD0D460821FCF770FA6878294659
:103BC0000028F6D1E888E083288920844889608429
:103BD00004216079FCF76EFA0028EAD1A06A002877
:103BE000E7D00368628C218CE08B9847F8BD000019
:103BF000B877FF1FA69BFF1F10B50178224C9129B3
:103C000006D0A22926D0D02901D1FFF701FF10BD8F
:103C100041780E29FBD181881C4A91420FD18168DD
:103C200003200856A1790529F1D17F28EFD0616AD8
:103C30000029ECD049680029E9D0884710BD144A12
:103C40009142FBD1806883784278017811A0FFF718
:103C50006BFA10BD41791329FBD10089012802D1EB
:103C60002079022808D00520FDF780FB02460821B4
:103C70006079FCF70DFA10BD08216079FCF70EFAA7
:103C8000FDF7F4FA10BD0000B877FF1F051400001F
:103C9000222000005B48434920444C455D256420B8
:103CA00025642025640A00007CB5154C0546E08B90
:103CB000E18A88420AD3218B884207D8208C618B05
:103CC000884203D1608CA18B884217D00520FDF774
:103CD0004DFB0646E18A68460180218B4180618B5D
:103CE0008180A18BC18062796946E089FEF78CF9F9
:103CF0002571324608216079FCF7CAF97CBD0000C5
:103D0000B877FF1FF8B507460E46084601F00CFFCE
:103D1000040018D02620FDF729FB050000D12578E6
:103D20000620FCF715FA04000DD006220021FCF74E
:103D300097F9D020207067700E20A070A680E8B29E
:103D40002146FCF7E1F9F8BD70B50F4D064628781D
:103D5000FF2818D00E20FCF7FBF9040013D0D02068
:103D6000207066700020A07006220849E01CFCF755
:103D70005FF906481038C18A6181007E20732146B0
:103D80002878FCF7C1F970BD867BFF1F90A1FF1F4B
:103D9000FFB581B01E4617460D460C20FCF7D8F93A
:103DA000040013D0284601F0BFFE002810D0007890
:103DB000D0212170019961700721A170A580E78051
:103DC00026810A9961812146FCF79EF905B0F0BD74
:103DD0000048ECE7867BFF1F70B50D4D0446286850
:103DE0000E46002812D00620FCF7B2F9010009D0D7
:103DF000D02008704C70032088708E80286800786E
:103E0000FCF782F9002C01D0FFF72AFA70BD000000
:103E1000E47BFF1FFFB581B01F460E46084601F048
:103E200083FE050022D01020FCF792F904001DD07B
:103E300010220021FCF714F92620FDF797FA00283C
:103E400000D12878D0212170019961700F21A170D3
:103E5000A6800399217267720A99A1720B99E17287
:103E60000C99E160C0B22146FCF74EF905B0F0BDF7
:103E7000F0B51F4D85B02868002837D08778FDF74A
:103E8000F1FA002805D00A20FDF770FA04900B2003
:103E90000EE001F0D1F9002805D00620FDF766FA02
:103EA0000490072004E00820FDF760FA0490092040
:103EB000FDF75CFA04460F480078002814D001266C
:103EC0002968C878091DFFF754F929686D46CA7A30
:103ED0008B7A091D0BC5039233463A462146049856
:103EE000FCF714FA05B0F0BD0026E9E70120F9E778
:103EF000E47BFF1F887BFF1F10B509490968002973
:103F00000CD0002805D101204870FCF7D9F8002812
:103F100002D00021FFF760FF012010BD002010BD7E
:103F2000E47BFF1FF8B50C4601F0FEFD020021D036
:103F300026201462FDF71AFA05062D0E00D1157819
:103F40009679D01D00901020176AFCF701F9040043
:103F500010D0D0202070002060700920A070E67082
:103F60000622201D0099FCF763F821462846E760E9
:103F7000FCF7CAF8F8BD411E152903D9FF2801D066
:103F8000002070470120704770B50A4E0546307812
:103F90000C46FF280DD00420FCF7DAF8010008D009
:103FA000D02008704C7002208870CD703078FCF7FB
:103FB000ABF870BDF87BFF1FF3B5284D81B02868C2
:103FC00000284AD04078264E012803D030780028B7
:103FD00031D041E001F030F9224F002813D0012008
:103FE000FDF7C4F90446412808D91F4A0221387850
:103FF000FCF778F81D483C3C44800EE07D20C00072
:104000002246424303E00020FDF7B0F90246002AB1
:1040100003D002213878FCF73BF829680220487069
:104020003078002802D00020307015E00299019805
:10403000FFF7D2FE10E00320019CFCF789F8010095
:1040400008D0D02008704C70042088702868007850
:10405000FCF75AF8FFF704F90120FEBDE47BFF1FCF
:10406000897BFF1F157CFF1F60EA0000F87BFF1FA4
:10407000074A00218B00D35A834202D1880080185E
:104080007047491CC9B20229F4D3002070470000D0
:10409000287CFF1F10B50C46FFF7EAFF00280DD063
:1040A000002C00D020608078FE2803D0FF2803D0A9
:1040B000162010BD172010BD002010BD022010BD1D
:1040C000FFB581B0FF201E46174605300A9DFCF75C
:1040D0003FF804001BD0B020207067700298608009
:1040E0002671002D06D02046FC2229460830FBF719
:1040F0009FFF05E02046FC2200210830FBF7B0FFBF
:1041000021460198FCF700F8002005B0F0BD13200F
:10411000FBE700000548172202800988172901D211
:10412000042070470180002070470000827BFF1F41
:104130000020704708B50A460888498888420BD88D
:10414000002809D0002300931379521DFDF75CFD70
:10415000002803D0002008BD012008BD0A2008BDAA
:10416000F3B50D4608884988002687B0814215D3EB
:10417000002813D0002769460F7100970023698833
:104180001A46FDF741FD04004FD06846007900282B
:1041900007D069464979012925D008E0012009B0F6
:1041A000F0BD217802291BD002216A4651711222EA
:1041B000504301AA61898018418068460079122322
:1041C000584380181022001D6168FBF731FF6846D4
:1041D0000079401C0106090E684601711FD11AE0E2
:1041E00001216A465171217802291ED1820001A85D
:1041F0006189121851806A4612796168920010181C
:104200000222001DFBF714FF6A461079401CC0B261
:104210001071052803D261890A48814200D1012624
:104220006089401C80B2002EA7D068460079002823
:1042300005D001A90798FCF70BFC0020AFE70A2086
:10424000ADE70000FFFF000038B50C46088849883C
:10425000884215D8002813D02379621D02210B480B
:10426000FCF77BFB00280DD00020009023796188AB
:104270002088621DFDF7C8FC002805D0002038BD4D
:10428000012038BD102038BD0A2038BDF48002114D
:1042900008B50A460888498888420BD8002809D002
:1042A000002300931379521DFDF7AEFC002803D0C4
:1042B000002008BD012008BD0A2008BDF8B5002572
:1042C0000F4606460C46E03717E06800205A0021EA
:1042D000FDF774FC002809D0017A3046FDF7DEFDB9
:1042E000002808D06900615A2180F8BD6800205A72
:1042F00020800120F8BD6D1CEDB2B87DA842E4D845
:104300000020F8BD10B5044608880021FDF756FCD2
:10431000002804D0017A2046FDF7C0FD10BD012021
:1043200010BD000030B585B005466946FCF704FCB9
:10433000040026D168468078C1071E4809D08268EB
:10434000002A04D0688869469047044619E006248C
:1043500017E04268002A05D0688869469047040043
:1043600001D10EE0062468464078002809D168464D
:10437000817801730021C1810474688803A9FCF766
:1043800027FBA868002801D0FBF700FF002C05D10F
:1043900068468078122807D01B2803D0688801213E
:1043A000FDF742FE05B030BD684640780128F5D1E2
:1043B000F8E70000307CFF1F70B505460C46088802
:1043C0000021FDF7FBFB002805D0017A2246284694
:1043D000FDF777FD70BD012070BD00000149486008
:1043E00070470000307CFF1F10B50446801C00F0B1
:1043F00029FDFF20E07010BD10B500F025F8002861
:1044000000D0806810BD00229300CB5A834202D1B5
:10441000900040187047521CD2B2022AF4D30020F8
:1044200070470000074A0021CB00D35A834202D1D3
:10443000C80080187047491C0906090EF4D00020F6
:10444000704700002C78FF1F0649896805E08A88BC
:10445000824201D18868704709680029F7D100209D
:10446000704700001C78FF1FF8B50746012906D0E9
:10447000022924D1012101F0E5FB00281FD1384693
:10448000FFF7D0FF050015D000240D4E0CE0F820FA
:104490006968604308180188002908D0F8220021C3
:1044A000FBF7DEFD641CE4B270788442EFD3002099
:1044B000C0432880024938461831FDF76DF9F8BD30
:1044C0001C78FF1FF3B5064683B00830019000202A
:1044D00000907088FFF7A6FF07002FD0002523E08B
:1044E000F820796868430C182188002920D00198A9
:1044F000007801280FD160880090A3887088A21DE1
:10450000FDF70EFB0090002805D0019900200870EF
:10451000049821880180F82200212046FBF7A0FDA5
:1045200000206D1C2080EDB2074840788542D7D32B
:104530000020C04338800098002802D17088FCF722
:1045400071FA009805B0F0BD1C78FF1FF3B5054661
:10455000374C064685B00835F62200212046FBF789
:104560007FFD03A800902B79698828886A1DFDF7D4
:104570004BFB074645E070882E4A4100515C2E4BAC
:10458000C91FC9B20093002202910192284B6946CB
:104590008A89F63B3946FDF75FF9002812D1264893
:1045A0002989001F828891420CD121492846F63979
:1045B0000A30FBF749FD002804D02178788989006A
:1045C0000919488068468289698804AB3846FDF736
:1045D0004DFB07462078810009194A88002A10D02F
:1045E000002F05D06A46128A401C20708A800AE09B
:1045F00002060021920DC9431219401C20709180BF
:1046000006E0002F04D00D48217800888142B2D303
:104610002078002806D070882146FCF70BFA00208D
:1046200007B0F0BD0698298801800A20F8E700004D
:10463000D49DFF1F807BFF1F2078FF1F7C7BFF1F07
:10464000F0B585B0044600206946888120790E289F
:1046500069D00FDC082823D004DC022813D00628F8
:1046600018D118E025460835484F0A281DD00C28D7
:1046700010D138E010285BD012285ED0162861D007
:10468000182877D163E04348414900880880608852
:10469000FCF7A8F96EE003A92046FFF757FF5AE0A0
:1046A00003A9204600F076F955E0288804A9FDF713
:1046B00085FA010015D06088354E4200BA5C0023AF
:1046C000521ED2B20193029200966A46B31C128A1D
:1046D000FDF7C2F800281DD160883146FCF730FB99
:1046E00048E0012016E0288804A9FDF767FA0100D8
:1046F000F7D060886B884200BA5C254E521ED2B259
:104700000193029200966A46B31C128AFDF7A4F840
:10471000002803D029886A4691811CE060883146D0
:10472000FCF7DEFA26E003A9204600F0D3F912E0F8
:1047300003A9204600F082F80DE003A9204600F00E
:1047400039FA08E003A9204600F028F803E003A99D
:104750002046FFF7B7FE00280CD06178142909D055
:104760000B4922790A706A4692894A8008716088EA
:10477000FCF72EF92046FDF709FA0748C168002921
:1047800001D02046884705B0F0BD0000807BFF1FA8
:10479000D49DFF1F7A7BFF1F1C78FF1FF8B50446CE
:1047A0000F460546083400896946FDF707FA0600FA
:1047B0003AD0307A80060ED568460088FFF71CFE96
:1047C000030006D06888122231469847060002D0BE
:1047D0002BE00E2629E06E883046FFF723FE01000D
:1047E00005D11448FFF71EFE01000ED00E80124ABC
:1047F0000020527807E0F8264B6846439B5B002B6D
:1048000005D0401CC0B29042F5D309260DE049689E
:10481000F822504308182146FBF70AFC0026688856
:104820002146FCF753FA02E0012620883880304602
:10483000F8BD0000FFFF00001C78FF1FF3B58BB030
:1048400000200B9E0746039004A800903246337B5D
:10485000718930894C4C0D320836FDF7D5F9054683
:1048600078E00B98297A4088FDF718FB070003D001
:104870000C98698901806FE00B9844494088444B4B
:104880004200895C0093891FC9B200220291019203
:104890003D4B69460A8AF63B2946FCF7DDFF0700D7
:1048A000E6D10398002833D039486188001F8088FA
:1048B000021D914253D1039909180B984088420078
:1048C0003248805A801F814249DC0399A87A6118D6
:1048D000087103986989401C80B22218090A401C9B
:1048E000117180B203906846028A718807AB28462E
:1048F000FDF7BCF9050011D003986946898B201893
:10490000017103986946401C898B80B2090A0CE04A
:104910001F48001F8088001D6080D6E70398FF2194
:10492000201801710398401C80B222181171401C9C
:1049300080B217490390091F8A8813492018F63955
:10494000001DFBF775FB12490398091F8988401861
:1049500080B20390002D84D1039800280CD0618888
:104960000398FBF74FFC20700B9821464088FCF71A
:10497000C1F900200DB0F0BD002F00D10A270C981E
:10498000318801803846F5E7D49DFF1F807BFF1FEB
:104990002078FF1FF3B50746044608378BB0494817
:1049A0000490388800252E4605906AE007A80090FC
:1049B0003B7979887A1D0598FDF726F9089000283B
:1049C00052D0408905900898017A6088FDF766FA10
:1049D00006005DD160883C494200895C3B4B091F61
:1049E000C9B20093002202910192364B69468A8B2C
:1049F000F63B0899FCF730FF060049D1002D36D070
:104A0000049841883148001F8088801C814241D130
:104A10002E4B1B1F98882918608842002A48805A0C
:104A2000001F814220DC0898817A049840190171A6
:104A300008996D1C4989E8B20A0A049909180A7193
:104A4000401CC5B2194604988A881E494019F63997
:104A5000001DFBF7EDFA1D481D49001F00792818BD
:104A6000C5B20598884209D1002D13D123E017481B
:104A70000499001F8088801C4880C9E7401C80B2D0
:104A80000590608841001048405A001FA8428DDA06
:104A9000002D0ED0049841882846FBF7B3FB014651
:104AA0000498017060880499FCF732F900200DB079
:104AB000F0BD002E00D10A260C99059808803046DA
:104AC000F5E70000D49DFF1F807BFF1F2078FF1FAC
:104AD000FFFF0000F3B506460446002085B0324DC6
:104AE00000900836288007463046E030049048E0C1
:104AF0007800305A03A9FDF761F801001AD06088E8
:104B00002B4B844642002948805C0093401EC0B273
:104B1000002202900192244B68468289F63B60464F
:104B2000FCF79AFE0090002807D07800315A0698CA
:104B3000018035E001200090F7E71D492888091F12
:104B40008988421861884B001849C95A4B1E9A42FD
:104B500004DD081A1649091F401E88802988A81CF0
:104B600008181349091F8A880F49F639FBF760FABC
:104B70000F482988001F8088081828807F1C049807
:104B8000FFB2807DB84207D9608829884200074873
:104B9000805A401E8142ABDB60882946FCF7C6F88C
:104BA000009807B0F0BD0000D49DFF1F807BFF1F61
:104BB0002078FF1FF3B5054683B004460835008909
:104BC00001A9FCF7FBFF2746E8370646002822D05C
:104BD000307A80060ED568468088FFF70DFC03000A
:104BE00006D06088122231469847060002D013E0B2
:104BF0000E2611E0002000906B88298860882A1D0D
:104C0000FCF78EFF060007D1787E002807D1608868
:104C1000FCF7C2F803E00126049829880180787E19
:104C2000002802D0002005B0F0BD3046FBE70000B0
:104C3000F8B504460246F8204243194800250746C5
:104C4000457010377868002807D00020C100C919C6
:104C5000401C00064D60000EF8D0124E0021304678
:104C6000FBF7FEF9002001466143C9B2F822514327
:104C70008B190B49C200103152180021536005E016
:104C8000F8274F435368491CDD53C9B2A142F7D3FB
:104C9000401C0006000EE6D0014844700020F8BD1C
:104CA0001C78FF1FE69BFF1F7CB50C78069D022C2D
:104CB0000FD14C682678647824023419064EA4B2C9
:104CC000F44206D10224DBB200950194FCF77CFD8E
:104CD0007CBD01207CBD0000FED6FFFFF8B5054677
:104CE0001D48854223D0461C002921D001292BD004
:104CF00002291CD10121284600F0A4FF002816D16A
:104D00002846FFF7B5F9040011D0A078FF280ED08F
:104D1000FE2807D000200090E0781E2314222946A8
:104D2000FFF7CEF92046FFF75FFBFF20A070F8BD2C
:104D30002846FFF79DF90028F9D13046FFF798F98A
:104D40000028F4D00580F8BD2846FFF791F904004B
:104D5000F9D02680D9E70000FEFF0000F3B50C462D
:104D60008978C1B01E2914D02E4D2878FF2829D06B
:104D7000182927D84808C2002B481218803A976F84
:104D8000002F1FD0D06F00281CD02078002817D10A
:104D900013E04198FFF76CF905000BD0002000905C
:104DA000A378E87800224199FFF78AF90646284659
:104DB000FFF71AFB304643B0F0BD6278012A03D1F9
:104DC000122901D00620F6E702AE0096A38861788A
:104DD000A268B8470028EED1A0784008C100124868
:104DE00008188038C26F02A94198904700280FD058
:104DF00061780029DFD1A27869460A700871684697
:104E00000189418069464198FBF7E2FD0020D2E725
:104E1000A378042BCFD00096002228784199FFF781
:104E20004FF9C8E7207CFF1F9080021100B50346B0
:104E3000FDF724F8002803D0C018401E80B200BD42
:104E4000184600BD10B5040008D02078FF2805D012
:104E5000FE2803D0FBF760FAFF20207010BD000091
:104E6000F7B506460F461020FBF736F90546102029
:104E7000FBF732F90446002D3AD0002C2DD0102239
:104E80000021FBF7EDF82A462146304601F006FEE8
:104E9000060023D12878000604D43946284600F0BD
:104EA000E3FD08E02146284600F0DEFD3A461149C0
:104EB000204603F077F83878000604D43846029983
:104EC00000F0D2FD0AE02146384600F0CDFD094948
:104ED0002046029A03F066F800E013262846FBF706
:104EE0000DF9002C02D02046FBF708F93046FEBD34
:104EF0001326F6E71A810211F8B5069800271D4619
:104F000014460E46002801D00B20F8BD3078002151
:104F1000022801D019804DE07068027840780002C4
:104F20001018152280B25202801A0300FBF792F883
:104F30000504121F1A254100F068FBF703F9C2B2FD
:104F40000798824200D902462A80F1682046FBF782
:104F50006FF830E0F0680221008829802070000A94
:104F6000607028E0062028800246F168EEE7012004
:104F70002880F068007820701DE0F068002816D0C6
:104F800008212980017821700188090A61708178DF
:104F9000A1704188090AE170017921718188090AAB
:104FA00061718179A171C088000AE07103E02980F4
:104FB00001E0298001273846F8BD10B50B78840739
:104FC00002D50224234301E0FD2423400B70030794
:104FD0000B7802D50824234301E0F72423400B700B
:104FE00083060B7802D52024234301E0DF242340ED
:104FF0000B700A21084201D1810603D510780C21DB
:10500000084304E0002803D11078F3210840107011
:1050100010BD0000FFB581B0087800240A9E1F462D
:105020000D4602280FD16868017840780002081800
:10503000152180B24902401A09D0012829D002283E
:1050400048D003283CD00124204605B0F0BDE868D4
:10505000FBF778F8C0B2864205D8F0190090152801
:1050600003D90D24F0E70724EEE7E8683A468019F3
:105070000399FAF7DDFF0098EA6880B20021115425
:105080001C4840680028DFD001680029DCD00020DF
:1050900012E0002E12D1022BE3D10399E8680A78BE
:1050A0004978090251180180124840680028CBD085
:1050B00001680029C8D001208847C5E70B24C3E751
:1050C000002EFBD1062BCCD10622E8680399FAF713
:1050D000AFFFB9E7002EF1D1012BC2D103980078C0
:1050E000002803D0012801D08024ADE7E9680870CA
:1050F000AAE700003477FF1FF8B507461C4615469F
:105100000E461220FBF70EF90C20474312483818C0
:1051100041684908490041604168072212039143F0
:105120003203114341604168FF22013291432A0258
:1051300011434160416810229143220111434160B3
:1051400041680122D207114341600022114612201A
:10515000FBF7EEF8F8BD000000E0004070B5044633
:105160000D460A30C1B22846FBF7E8F80C20054985
:1051700060434018416801221143416002480555CF
:1051800070BD000000E00040F876FF1F10B59142AE
:1051900015D80C2358430A4BC018446801231B043C
:1051A0009C43446084680904A4B20C438460816811
:1051B000090C09041143816041681943416010BD25
:1051C00000E0004010B5094C206800280CD11220E6
:1051D000FBF748F80648026801210A4302600268AA
:1051E00010231A430260216010BD0000F476FF1FF7
:1051F00000E0004070B505460D4885420CD00D4CCE
:1052000001290AD0022905D10121284600F01AFD02
:10521000002802D00020607070BD06492846891C15
:10522000FCF7BAFA60780028F6D0FBF78DF870BD6D
:10523000FEFF00008078FF1F08B509488368002B37
:105240000CD01A78694601205B1CFDF7E4FF0028AA
:1052500004D00078C00701D0012008BD002008BD9F
:10526000F87BFF1F10B503460B4A00200A2141437B
:1052700089184988002905D0401CC0B20328F5D3FD
:10528000002010BD0A2100244143545404464034F8
:1052900088184480037210BDACA1FF1F0A78027009
:1052A0000A88120A42708A7882704A88120AC2708A
:1052B0000A7902718A88120A42718A798271C988D0
:1052C000090AC17108207047F8B505460C464868C0
:1052D0000421FAF767FF217A017021890346401CF7
:1052E000090A0170217841702188090A8170207AA9
:1052F000001DC2B2FB2A36D81C48854215D114467F
:105300001E460C20FAF724FF01000CD090200870F4
:10531000022008714D808E601548CC800078FAF725
:10532000F3FE00271DE013271BE05C2011496843B2
:10533000441826464036307E002806D008465C30A9
:10534000416A0727491C41620BE02146284600F0CC
:1053500095F90746307E002803D121462846FAF702
:10536000F9FF3846F8BD0220F8BD0000FEFF00003E
:105370003D7CFF1F28A2FF1F10B50A4A00210A2307
:105380004B439B185C88002C06D01B79834203D1C9
:105390000A204143881810BD491CC9B20329EED325
:1053A000002010BDACA1FF1F00214180017070479B
:1053B00070477CB504000FD0608800280CD0002511
:1053C000009501951323E188207A172200F028F830
:1053D000FF206072658025707CBDF8B507461546D4
:1053E0000E461020FAF7B4FE040017D0A02020705B
:1053F000002060706680002D05D00C222946201DFB
:10540000FAF716FE04E00C220021201DFAF728FE10
:1054100021463846FAF778FE0020F8BD0120F8BD95
:10542000FFB581B01E46174614200B9DFAF790FE7B
:1054300004001AD0A22020706770029860800A9839
:1054400020716671002D06D020460C2229460830B6
:10545000FAF7EEFD05E020460C2200210830FAF7AD
:10546000FFFD21460198FAF74FFE05B0F0BD022A74
:105470001CD34B780A781B02D21892B20280012A00
:1054800002D0022A06D00FE08A78C97809025118A2
:10549000418009E0CB788A781B02D21842800A79D1
:1054A0004979090251188180002070470120704716
:1054B000F8B506464D88002070600A790C46022A2D
:1054C00012D0290160480091415A002906D0009B62
:1054D0001F18BB68002B01D0012A7DD05A486C30C0
:1054E0004169491C4161A9E0E288042A43D3A068CC
:1054F000437801781B02C91889B20091C37881787A
:105500001B02C9188FB2017AC079000208184F49EE
:1055100048800099091D8A4220D1072F13D0052FFA
:1055200011D0042F02D0062F25D10CE046482901C6
:10553000405A002807D02846FCF7DAFD42486C3074
:105540000169491C01610098308137800321C943FA
:10555000A068FAF727FE70600020F8BD072F18D06A
:10556000052F16D0042F07D0062F12D036486C30E6
:10557000C168491CC16064E033482901405A0028D1
:1055800007D02846FCF7B4FD2F486C300169491C50
:1055900001612D492D01002048536E180098B081FB
:1055A000B7800098FCF708FEB060002818D00321EF
:1055B000C943A068FAF7F6FDE2880146224F121FA0
:1055C000B068FAF735FD785BE1884018001F785322
:1055D00038466C30016800E008E0491C016030E0AA
:1055E00019486C308169491C81612AE0E288891878
:1055F000009A89B28152BA8991421AD80546B86890
:10560000E2884018801AA168FAF712FD0098295A1A
:10561000B889814215D13081B8883080B86870600F
:1056200000990020685208486C304168491C41606C
:1056300007E005486C308168491C81602846FCF70A
:1056400057FD0120F8BD000018A2FF1F4E7CFF1F70
:10565000022A01D0012070470A78497809025118BE
:105660000180002070470A7802704A7842708A7878
:10567000C97809025118418070470000FFB50C46F7
:1056800007463D49A1208000096878434018FF3053
:10569000C130067E89B015463846FBF7EDF9001D8E
:1056A000B04204D23846FBF7E7F9001DC6B2B54256
:1056B00007D82A46002138460C9BFAF751FE0DB058
:1056C000F0BD31462846FAF79DFD2746403738742D
:1056D0000C99616501467143691AC9B202910C992E
:1056E00004910299002901D0401C3874002523E060
:1056F0000299002904D0401EA84201D1084600E0CA
:105700003046E900059103916054FCF789FC039948
:105710000919486000281BD00599625C0499FAF7C2
:1057200087FC0598215C0498081804901348C16907
:10573000491C6D1CEDB2C161387CA842D8D8606D9F
:10574000002803D0FAF722FD002060650020B6E7AC
:10575000002038740646606506E0F00000194068D5
:10576000FAF714FD761CF6B2AE42F6D30348C16ACE
:10577000491CC1621320A2E73409FF1F84A2FF1F46
:10578000F7B586B016460D464878FFF7F5FD0400DC
:1057900010D0002727712878012802D0132809D1BA
:1057A00005E06A88314602A8FFF761FE0AE020782A
:1057B000032802D0002009B0F0BD6A88314602A853
:1057C000FFF746FF0646204600F046F902A8019082
:1057D00000972B78207A32460699FFF721FE204663
:1057E000FFF7E2FD3046E6E7FEB50446468801468F
:1057F0006846FFF75DFE0546019800282FD06846F1
:105800000088052806D0042809D0062807D00728D4
:1058100005D026E06946304600F030F821E08100EE
:105820001548081801464039098E002919D020383A
:10583000807C6A463146FFF7D0FD002811D16846CA
:105840000088042803D001213046FCF7EDFB012D30
:1058500004D1A068002801D0FAF798FCFEBD012D04
:1058600004D1A068002801D0FAF790FC012130464D
:10587000FCF7DAFBFEBD00009CA1FF1F30B505461A
:10588000088987B00C46042817D302A86168FFF77F
:10589000EAFE68464089172837D82189001D8142D1
:1058A0001ED16846007AC10709D0626802A928465D
:1058B000121DFFF765FF002812D107B030BD6168E7
:1058C000091D122805D0002069460880497A6A46D9
:1058D00022E06846428903A8FCF7D6FB002803D0E3
:1058E0002846FFF765FDE8E70D4881880029E4D0E8
:1058F0006946497A03AA0192009169460B7A807938
:1059000000222946FFF78CFDD7E701216846018078
:1059100017214180417A6A462846FCF769FBCCE7AB
:105920009CA1FF1F70B5144C00262680A681A6807E
:10593000A0683546002802D0FAF728FCA5600E4C76
:10594000103420464030057445740576606D00289B
:1059500002D0FAF71BFC65655C200025464334192C
:10596000E80020184068002801D0FAF70FFC6D1CF1
:105970000A2DF5DB70BD000018A2FF1FFFB589B02E
:1059800015460E461720129FFCF716FC040021D086
:10599000684606704570002F03D0201D0C99B8474B
:1059A00000E0002069464880267065704888A07035
:1059B000010AE170052269468A82001D06948883E7
:1059C00005A90998FFF780FC050004D02046FAF7E6
:1059D000DDFB00E0132528460DB0F0BDFFB581B01A
:1059E0001E46054601210A9F0B9C00F02BF900285A
:1059F00011D02046FFF736FC00280AD0C5800446A7
:105A0000077012484178491C0A06120E427004D0F1
:105A100005E015250FE014250DE0012242702271EA
:105A200000962846039B0299FFF7A8FF050005D0C2
:105A30002046FFF7B9FC284605B0F0BD23462146B5
:105A4000034A09330348FAF791FCF4E74E7CFF1F41
:105A500030750000B353021110B50446407AFAF7CE
:105A60005BFCFF20607210BD10B500240F22835C28
:105A70005B0023438B54835C521EDC0952B2002A24
:105A8000F5DA10BDFFB581B01E4617460D46084633
:105A900000F04AF8002802D0112005B0F0BD0E48F1
:105AA00000F042F8040015D00A98A0710622E01D0B
:105AB0000B99FAF7BDFA658027716671019820701D
:105AC000002060620C98E0810021284600F08CFDE7
:105AD0000020E2E71520E0E7FFFF000070B5144664
