:020000041102E7
:1000000003B40148019001BDADAE000003B4014846
:10001000019001BD456B010003B40148019001BD91
:100020000189000003B40148019001BDC53F0000F3
:1000300003B40148019001BDE94C010003B401483B
:10004000019001BDC95C010003B40148019001BDEC
:10005000CD4C010003B40148019001BD618900004D
:1000600003B40148019001BD154D010003B40148DE
:10007000019001BDF54E010003B40148019001BD9E
:10008000434D010003B40148019001BD2526000045
:1000900003B40148019001BD8B52010003B4014833
:1000A000019001BDB352010003B40148019001BDAC
:1000B0000D52010003B40148019001BDC94A01007D
:1000C00003B40148019001BD691F000003B4014859
:1000D000019001BD5D17000003B40148019001BD0E
:1000E0003D4B010003B40148019001BD595201008C
:1000F00003B40148019001BD5125000003B401483B
:10010000019001BD014C010003B40148019001BD03
:10011000594F010003B40148019001BD1D4B01007E
:1001200003B40148019001BD8D12000003B40148E1
:10013000019001BD4D1F000003B40148019001BDB5
:100140005522000003B40148019001BDDD520100B9
:1001500003B40148019001BD1D4D010003B40148E5
:10016000019001BD810E000003B40148019001BD62
:10017000017F000003B40148019001BDE1170000B8
:1001800003B40148019001BD7918000003B401488F
:10019000019001BDD949010003B40148019001BD9E
:1001A000E928000003B40148019001BD5549010050
:1001B00003B40148019001BD4D35FF1F03B4014850
:1001C000019001BD3558FF1F03B40148019001BDE6
:1001D0006135FF1F03B40148019001BD2952FF1F83
:1001E00003B40148019001BD5957FF1F03B40148F2
:1001F000019001BD8551FF1F03B40148019001BD6D
:100200003D54FF1F03B40148019001BD090E0000D9
:1002100003B40148019001BD413DFF1F03B40148F3
:10022000019001BD6D5AFF1F03B40148019001BD4B
:10023000FF28FF1F03B40148019001BDE528FF1FFF
:1002400003B40148019001BDB963FF1F03B4014825
:10025000019001BD0129FF1F03B40148019001BDB8
:10026000612CFF1F03B40148019001BD0157FF1F1E
:1002700003B40148019001BD4551010003B4014898
:10028000019001BDC926000003B40148019001BDE1
:10029000494AFF1F03B40148019001BD8527FF1F94
:1002A00003B40148019001BD1DBC000003B4014826
:1002B000019001BD6DBC000003B40148019001BD77
:1002C0003555000003B40148019001BDC51D000073
:1002D00003B40148019001BDF94C010003B4014889
:1002E000019001BDC521000003B40148019001BD8A
:1002F000291C000003B40148019001BD851F0000C6
:1003000003B40148019001BD1147010003B4014845
:10031000019001BD5D49FF1F03B40148019001BD7B
:10032000C957FF1F03B40148019001BD9150FF1F41
:1003300003B40148019001BD495AFF1F03B40148AD
:10034000019001BD0327FF1F03B40148019001BDC7
:10035000DD26FF1F03B40148019001BDA94601003D
:1003600003B40148019001BDB13E000003B401484F
:10037000019001BD2124000003B40148019001BD9A
:100380008D35FF1F03B40148019001BDC90E000067
:1003900003B40148019001BD055E000003B40148AB
:1003A000019001BDE548000003B40148019001BD82
:1003B0002951010003B40148019001BDD91B00007F
:1003C00003B40148019001BD9D27FF1F03B40148FC
:1003D000019001BDC527FF1F03B40148019001BD75
:1003E00051470100F8B5D349D14A002004464A607C
:1003F0008300401CD450FF28FADD4868CE4A0146ED
:1004000080318A606E22C262CC4A1278002A01D002
:100410007F22C2620A220265C94A13788363C94BEC
:10042000C36115781023022D08D01578012D05D051
:100430001578032D02D01578042D00D10362C24D2A
:1004400045611925AD0185613725CD603627282600
:10045000C7630825466405644F6032270F603B2759
:10046000CF634127CF6439274031E0C132274F6045
:1004700002274F6142270831E0C11E274F60CE603E
:100480008D6005264E6142260E615A2660390E6146
:100490004D613C258D61AF25ED000560AB4D0563D9
:1004A0001578022D09D01578012D08D01578032D67
:1004B00007D01578042D06D007E0152504E0436029
:1004C00003E00E2500E00C254560FF252D358560F5
:1004D000C560FF25F53505619D4D85647D25ED00E1
:1004E0009C4ECD67C66445629B4D85627325C5658C
:1004F000062545658565C51D0826F93502272E6048
:1005000047664B27FF0087660927C766934F076733
:100510004667BE108467C667914F8E4E3E60167860
:10052000022E09D01678012E0AD01678032E0BD091
:100530001278042A0CD00EE01A22CA61212205E0AA
:100540001422CA61182201E01322CB610A6202E080
:100550000E220B62CA617E4A8A627D22D2008A67BD
:1005600064224A620522CA6202220A63C8228C639C
:100570004A63382169607B4929647B49A9614B2121
:10058000C900E9617349FF30643929627D2109019D
:100590006962EC661E212C67A9667049A965E96548
:1005A00089102966696469677049A9677049714A49
:1005B0008130E967026082604160FF21F531C160EE
:1005C00001616E486C495A4A81606D49803A1161F7
:1005D0006A496C4A80318A626B4ACA626B4A82619C
:1005E0006B4AC2626B4A02636B4A64484038C2631A
:1005F0006A4ACA616A49816360496A4840318861D0
:100600006A49694888605D48694A80384260694A39
:100610004263694A0A626949816058496848C03939
:10062000C860FFF7EDFC0120FFF7F0FCF8BDF3B563
:100630000746644881B0C169634A1140FF310931FE
:10064000C161002613E000252C461120FFF7E4FCD1
:100650005C48406A8007800F610088402843641C22
:10066000E4B20546102CF0D301C7761CF6B202980E
:100670008642E8D3FEBD10B52E4C607800280AD122
:1006800004215248FFF7D3FF504804211030FFF7F0
:10069000CEFF0120607010BDF0B500248BB00D4678
:1006A0000646102902D901200BB0F0BDFFF7E3FF89
:1006B000464900200A5C401C1419C0B21028F9D326
:1006C000002C03D0102D03D90B20EDE70E20EBE713
:1006D0003F483E4C0023006802A91034E25CC75C2E
:1006E0007A40CA545B1CDBB2102BF7D306AA3748FA
:1006F000FFF798FC102D00D910252A4606A9304690
:10070000FFF796FCFFF79AFC216840182060FFF77E
:1007100095FC616840186060FFF790FCA168401884
:10072000A060FFF78BFCE1684018E0600020BBE7A9
:100730000004FF1F4C75FF1FC8BCFF1FD070FF1FB8
:100740004A0AFF1F3A07000080C3C9019A0200004D
:1007500050C30000280A00006A180000204E000064
:10076000F009FF1F0040001168100000DC050000C8
:1007700040420F00102700002960FF1F0001FF1FEB
:100780001D30FF1F9964FF1F7167FF1F852CFF1F1E
:10079000192EFF1FA12CFF1F553DFF1FDD6DFF1FF1
:1007A000016CFF1F5D27FF1FD533FF1F0002FF1FD6
:1007B000A15CFF1F7D5EFF1FC15DFF1F5D5CFF1F12
:1007C0000534FF1F40F0004000FEFEFF4C9BFF1F62
:1007D0007075FF1F0A7802708A7842704A88120A80
:1007E00082700979C170042070470A780270098804
:1007F000090A41700220704710B500220EE09300F4
:100800005B189C7804705C88521C240A44701C7924
:1008100084709B88D2B21B0AC370001D0B78934270
:10082000EDD81806800D10BDF8B50D46064649787E
:10083000012031700024761C16E06978012917D058
:100840001221614349198A7832704A88871C120A3A
:100850007270B61C10223046091DFFF7E9FB1037F5
:10086000B8B21036641CE4B22978A142E5D8F8BDCC
:10087000A10049198A7832704A88871C120A72705E
:10088000B61C02223046091DFFF7D2FBBF1CB8B2CE
:10089000B61CE7E710B50C46097801702188090AF3
:1008A00041706288211D801CFFF7C2FB6088801C9C
:1008B00080B210BD10B50C46097801702188090A74
:1008C0004170A17881706188090AC170A288A11D58
:1008D000001DFFF7ADFBA088001D80B210BD10B554
:1008E0000C460A88891CFFF7A3FB208810BD10B5B1
:1008F0000B788A7802705343DCB22246401C091DF3
:10090000FFF796FB601C10BD10B50B788A7802705B
:100910005343DCB22246401C091DFFF789FB601CD3
:1009200010BD10B50C460A88891CFFF781FB208892
:1009300010BD10B50C460A88891CFFF779FB20888A
:1009400010BD7FB515460446022901D0102903D1F8
:10095000022B04D0102B02D0002004B070BD9942AD
:1009600002D10A46294607E01029694607D000F05F
:100970000DF8102269462846FFF766FBEDE71046A2
:1009800000F004F8102269462046F5E770B50C46E1
:1009900005000CD0002C0AD0102206492046FFF793
:1009A00047FB2878207368786073012070BD0020B1
:1009B00070BD00006478021110B50B460122024997
:1009C00002F0B2FA10BD0000D507021170B506465C
:1009D00008880C46172812D30B46032209493046D3
:1009E00002F0A2FA050008D1074920880988884248
:1009F00000D20146304600F0B7F9284670BD02200B
:100A000070BD0000EB0702117E75FF1F10B50023BB
:100A10001922194602F088FA10BD000010B50A78B4
:100A2000002A05D00B460722024902F07DFA10BDCC
:100A3000022010BDF907021110B54A78012A01D031
:100A4000022A08D10A78002A05D00B46052203495C
:100A500002F06AFA10BD022010BD00002908021140
:100A600001494000085A70477C75FF1F10B50B46BE
:100A70001B22024902F058FA10BD0000950802112D
:100A800001491720088070477C75FF1F0098022BD2
:100A900001D0042070471178527812028918018021
:100AA000002070470098012B01D004207047117876
:100AB00001700020704770B5049C1E461546062B39
:100AC0001BD369782878090240182080E978A87833
:100AD00009024018608002222271291D601DFFF763
:100AE000A7FAB61FB2B22281F02A06D82046A91D65
:100AF0000A30FFF79DFA002070BD042070BD0098F9
:100B0000042B01D004207047537811781B02C918B8
:100B100001809178D27812028918418000207047B4
:100B2000F8B584890D460646002C26D0B2681778A1
:100B3000380620D50C2C20D90C3CA4B210190090FA
:100B400001217088234602F071F8002811D002209C
:100B500028707806C00F6870B806800EA870641EF2
:100B60002004000CA88001D0B068401CA8600020C0
:100B7000F8BD0120ECE70020EAE70120F8BD10B540
:100B800002981146042B14D34C780A7824021219C7
:100B90000280CC788A782402121942801B1F9AB2F4
:100BA0008280F22A05D8801D091DFFF741FA002036
:100BB00010BD042010BD0098042B01D00420704704
:100BC000537811781B02C91801809178D2781202EB
:100BD000891841800020704710B502981146062BF5
:100BE00003D0142B03D0042010BD022200E01022F9
:100BF00002714B780A781B02D2180280CB788A786F
:100C00001B02D21842800279401D091DFFF710FA1D
:100C1000002010BD30B5039CD80718D1D805010EAF
:100C2000022914D30B488088814210D8F620015540
:100C3000002008E0557813782D025B194500401C10
:100C40006353C0B2921C8842F4D3002030BD04200C
:100C500030BD00007675FF1F0098022B01D00420E4
:100C6000704711785278120289180180002070476D
:100C700070B5144602460498022B18D3667825787E
:100C80003602AD1905800546E0352A766976002AD8
:100C90000BD0E8219B1E9AB242808A4207D8A11C41
:100CA000001DFFF7C5F9002070BDF421F2E7042014
:100CB00070BD000010B50B461722024902F034F94E
:100CC00010BD0000B508021110B50B460D220249F7
:100CD00002F02AF910BD0000DF08021110B50A78F1
:100CE000002A05D00B461122024902F01DF910BD61
:100CF000022010BDEF08021110B50A78002A05D0B5
:100D00000B460922024902F00FF910BD022010BD66
:100D10000909021110B50B460F22024902F004F92D
:100D200010BD00002309021110B50B460B22024929
:100D300002F0FAF810BD000033090211F72800D9BB
:100D4000F720084A01461080401EC3179B0F181851
:100D50008003000C5080491EC80F4018C003000CCF
:100D6000908070477675FF1F044A1288914203D81D
:100D7000024A4000921D1152704700007675FF1F15
:100D800010B500231322194602F0CEF810BD000062
:100D900070B50C460146032000020A1A00253448AB
:100DA0001300FFF757F91D1012151C1F2326282CBE
:100DB000303234383A3C3E40424446484A4E505223
:100DC0005A5456585A00C07911E01022294902E0BD
:100DD0002849102210312046FFF72AF945E0C06A61
:100DE000206042E0224906223C31F4E7007820707E
:100DF0003BE0808936E01E4942784231EBE71D49ED
:100E000082781F39E7E7007AF1E7407AEFE718497F
:100E100006223031DFE7807AE9E7C07AE7E7C08968
:100E200020E0808A1EE0C0781CE0C08A1AE0008BB7
:100E300018E0408B16E0808B14E00D490622363115
:100E4000C9E7C08B0EE0008C0CE0408C0AE0807992
:100E5000CDE7008A06E0408A04E0272904D208464C
:100E600000F052FA208000E00225284670BD000004
:100E7000B471FF1FC195FF1F70B50E4C0025607146
:100E8000A571691EE18100F06FFB0420E071102262
:100E900000210948FFF7E4F807481022002110302C
:100EA000FFF7DEF8E562257265720720A072E57231
:100EB00070BD0000B471FF1FC195FF1FFEB53B4D13
:100EC0000C4608040CD56879FFF7D0F8050004D06B
:100ED00002F0B8FD2846FFF7CFF80120C00360E01C
:100EE000600403D5012080034840FEBD2F48E10780
:100EF0000126807900292AD02978002920D00528C8
:100F000021D0297A68460170697A41702749062202
:100F10003031801CFFF78CF8A97A68460172E97AB3
:100F200041726946687900F00BFA002808D0072062
:100F3000A871696A002903D00968002900D0884790
:100F400020467040FEBD032069460870E4E7A10713
:100F50000DD5052809D1E889FFF794F8AA8A002A57
:100F600003D002216879FFF793F8022019E06007A7
:100F700004D5002002F0A6FD042012E0200712D5BF
:100F80002879012802D002280AD107E00096AB8B0D
:100F90006A8B298BE88A00F00BF801E000F05AF91F
:100FA00008206040FEBD0020FEBD0000B471FF1FA0
:100FB000F8B5134C069EA579052D01D01420F8BD77
:100FC000104F851FBD4219D2062917D3BD1DA94256
:100FD00014D2FF27F537BA4210D20A2B0ED3AB42F8
:100FE0000CD2E08221836283A383304602F06AFD43
:100FF00004216079FFF752F80020F8BD1820F8BDF1
:10100000B471FF1F7A0C0000F7B50D4680490098B7
:10101000164642187F4F00247879B9791300FFF7FC
:1010200019F8190E141BE92040455970777E888FF6
:10103000E996A2A9B4BFC8E9E9E9E9D3E900102D0E
:1010400076D11022314674486FE0102D70D172486D
:1010500010223146103068E0042D69D13068F86202
:10106000CEE0012D64D13B7832783A70002B0AD063
:10107000002A07D1022903D0062901D0042901D171
:1010800000F018F9BCE0002A0AD0012905D0032994
:1010900003D0052901D0042902D10121FFF704F86A
:1010A000AEE0022D44D13088B881A9E01F2D3FD891
:1010B00058481F2200214230FEF7D2FF55482A46E9
:1010C00031464230FEF7B4FF524B7D7042332A4620
:1010D000012112E01F2D7CD84F481F2200211F380C
:1010E000FEF7BEFF4C482A4631461F38FEF7A0FFE8
:1010F000494B2A461F3BBD700021787900F0AAFABF
:1011000083E0012D65D13078042862D8387277E009
:10111000012D5ED1307803285BD8787270E0062DFF
:1011200057D13C48062231463030FEF781FF67E058
:101130004FE0012D4DD1307807284AD8B8725FE0D2
:10114000012D46D13078032843D8F87258E0022D9B
:101150003FD13288BA82002A52D0052950D10221CB
:10116000FEF796FF4CE0012D33D13078012830D8BE
:10117000F87045E03088022D2BD1062829D319219B
:10118000C901884225D8F8823AE03088022D20D162
:1011900006281ED31921C90188421AD838832FE0A6
:1011A0003088022D15D1FF21F531884211D2788384
:1011B00026E03088022D0CD10A280AD31921C90152
:1011C000884206D8B8831BE03178012D01D101296E
:1011D00001D0182414E00821FEF76CFF002801D08C
:1011E00016240DE0002002F06DFC04217879FEF752
:1011F00055FF05E00098272801D2022D02D00224D5
:101200002046FEBD318800F0D5F90446F8E700001D
:10121000FFFCFFFFB471FF1FC195FF1F1CB50B4CF6
:10122000A179002901D011201CBD002800D06062E6
:10123000064907482C31034601910090103B0022DB
:10124000E179607900F016F800201CBDB471FF1F31
:10125000D195FF1F10B506488179052901D01220CC
:1012600010BDC1891322407900F0B4F910BD00000F
:10127000B471FF1FF8B51D460224069F079E0B00A0
:10128000FEF7E8FE0D1508151508151515151515A9
:101290001508150000F0B8F8040008D132463946A8
:1012A000284600F067F900F0CBF801F0AFFC2046CB
:1012B000F8BD000070B5104C2168002904D00978F1
:1012C000814203D0032070BD122070BD0B4D02215E
:1012D0002878FEF7E3FE0A48002646800421287895
:1012E000FEF7DCFE074806802168032048700020D6
:1012F000FEF7E6FE70BD0000E075FF1F1176FF1FD0
:10130000F475FF1F8675FF1F272803D2024940008E
:10131000085A7047014870478E75FF1FFFFF000095
:1013200010B5064C607004F03DFB6078FEF7CEFE11
:101330000521607800F0BCFE10BD00001076FF1F94
:1013400070B5284E054630680C46002801D01120A3
:1013500070BD254801780520014216D023488068D9
:10136000002805D00078002802D0C80706D101E087
:10137000102070BD00F044F8002808D02078032821
:1013800005D0022803D0002801D0122070BD0C2007
:10139000FEF7A2FE3060002820D0057000214170C9
:1013A0000A222146801CFEF743FE02F06FFC040077
:1013B00002D001F07BFE12E00D48007803280ED128
:1013C0001D20FFF7A1FF0B490028088007D00B481C
:1013D000094A04210078FEF785FE00E01324204628
:1013E00070BD0000E075FF1F8375FF1FF475FF1FC0
:1013F0008475FF1F8675FF1F60EA00001176FF1FCE
:1014000010B504F0EDFA10BD70B50C4605461C226F
:1014100000210948FEF724FE084805704470FEF7D5
:1014200067FE0549002803D000200870122070BD17
:1014300001220A7070BD00007C9BFF1F8275FF1F98
:1014400070B50F4C0025A068002802D0FEF756FEAC
:10145000A560E068002802D0FEF750FEE56009486C
:1014600005210078084206D00548103002F0F0F956
:1014700001F0BEFD70BD002002F0EAF9002070BD51
:10148000F475FF1F8375FF1FFEB5344D0C4608042D
:1014900019D56878FEF7EAFD0121C9034C400646DC
:1014A00000280ED002F0F4F8002807D12878FF2891
:1014B00004D03146FEF728FE002802D03046FEF761
:1014C000DBFD2046FEBDE007012700280AD0A86802
:1014D000002804D04168002901D000208847204618
:1014E0007840FEBDA00709D56868002804D041688F
:1014F000002901D00120884702202AE060072AD570
:10150000174E308800281FD0401E0004000C308089
:101510001ED101F03DFE002809D01248077068680E
:10152000002804D04168002901D00120884701F03B
:1015300009FE694601F0C4FA684602F093F81D20DE
:10154000FFF7E2FE308003E004216878FEF7A6FD95
:1015500004206040FEBD0020FEBD00001076FF1F8D
:101560008675FF1F8575FF1F0149087070470000D1
:101570001076FF1F70B50E4C0B46261D07C605469C
:10158000102200211846FEF7C5FD012803D11021C5
:10159000A06804F0FFFE102200212846FEF7BAFDE5
:1015A000012803D11021606804F0F4FE70BD000032
:1015B0007C9BFF1F272807D2044A914204D0044A8B
:1015C000400011520020704702207047FFFF0000CA
:1015D0008E75FF1FF8B50D4617461D4906461B4A76
:1015E0001224C868954208D100282DD00268002A2C
:1015F0002AD029463046904723E0144A521C95428F
:1016000013D1002807D00268002A04D029463046AA
:101610009047040005D03946304601F0C3FC040071
:1016200012D10B48067047700EE0284604F08AF984
:10163000002809D00078B04205D139462846FEF787
:101640006FFD044600E003242046F8BDFEFF0000C5
:10165000E475FF1FF8B50E46014619481546007897
:1016600005221F46104028D0304326D01548012EB1
:101670001BD0C468002C20D01F2D18D8002D01D0FD
:10168000002F14D001701F220021601CFEF7E8FC1F
:101690002A463946601CFEF7CBFC28462570002EF2
:1016A00007D0611CFEF742FDF8BD8468E2E7022026
:1016B000F8BD611CFEF740FDF8BD1220F8BD00002A
:1016C0008375FF1FF475FF1F014610B50020C90781
:1016D00004D0034A0421034800F0A6F910BD00001D
:1016E000CC7702113872FF1F70B50F4D0F4CA870E8
:1016F00029461831204600F01DF8002128460B46E7
:101700001030CA0084521218491C09065360090E91
:10171000F7D0012003F09AF9A87800F023FB0448E1
:1017200004F070F970BD00001872FF1FFFFF000089
:101730008542021170B50A4C0025A04209D1002053
:1017400082008C525218401CC0B295700228F7D308
:1017500070BD02F066FD0028FAD00480857070BD6F
:10176000FFFF0000F8B50E460746069900240798CB
:10177000002902D00B242046F8BD022B01D00D24F5
:10178000F9E711785278120289188DB229468143FF
:1017900001D08024EFE73846F16800F03DF9A84217
:1017A000E9D02A463846F16800F0A8F90400E2D1F1
:1017B00071892A46384600F065F9DCE770B50C46B9
:1017C000080412D50A488078FEF750FC050008D0BE
:1017D0002878B02802D1284602F040FE2846FEF7BD
:1017E0004BFC0120C003604070BD002070BD0000B4
:1017F0001872FF1FFFB587B0087A0025109E1C469F
:101800000F46C0060DD5099802F004FD030006D06E
:101810000A22394607989847050035D101E00E2580
:1018200032E0387802281DD1786829220178407882
:1018300012020002081880B2811A90427ED009DCA0
:101840007249401A23D0012821D0022851D0032800
:1018500008D125E0012972D0022971D003296DD069
:1018600004296ED0099802F0FDFC0028D7D0056845
:10187000002DD4D012991198019100903346224640
:1018800039460798A847054628460BB0F0BD119881
:10189000002873D1F868017831800278416897E0B8
:1018A000119800286AD101203080F8680021007862
:1018B00020707889401C80B200F04EF900280FD0CB
:1018C000318802788918891C3180817A6170418958
:1018D000090AA17002784168E01CFEF7A9FBD3E772
:1018E00030880422001D30800021601CFEF7B8FB08
:1018F000CAE71198002872D1F86804A900880090FE
:1019000004203080009820700098000A60700098D1
:1019100000F022F9070028D0F86805906846028A8E
:1019200003AB3B49384600F06FF900280FD13B78F4
:10193000022138487A68FFF704F803E027E031E035
:101940001DE049E0002802D1401E694688810598C3
:10195000007802280CD1059802224168201DFEF76C
:1019600067FB3088801C308002E0694600988881DF
:1019700068468089A070000AE07085E72FE0119822
:1019800000282CD1F968079800F046F804E0119877
:10199000002824D1F8680088022131802070000AD4
:1019A000607071E7F868FEF7CDFB1199C0B2814213
:1019B00010D8814201D1002206E0129A8918814292
:1019C00002D31199401AC2B23280F96811980918ED
:1019D000204682E7072557E71198002801D00B25FC
:1019E00052E70721F86831800178217041786170F1
:1019F0008178A1704188090AE170017921718179AA
:101A00006171C088000AA0713EE700000028000054
:101A1000FFFF0000DA78021110B502F002FC002886
:101A200000D0807810BD00007CB51446050019D0A8
:101A300068460195018000F09BF903001DD1002C40
:101A40001BD06D89002D0DD00C20FEF745FB002822
:101A50000AD0002303608580094A846091680029C8
:101A600004D006E0022308E0132306E0906004E0BF
:101A700011460A68002AFBD1086018467CBD0000A8
:101A80001872FF1FF8B50C4C0746207815460E4615
:101A9000FF280FD00A20FEF75BFB01000AD0B1201F
:101AA00008700020487008714F80CE800D8120782A
:101AB000FEF72AFBF8BD00001872FF1FFFB583B0C8
:101AC00008461F4601A90C9E00F046F8050012D0FA
:101AD0006846808802F0C6FB00280AD04468002CC3
:101AE00007D000963B462946059A0398A04707B0C1
:101AF000F0BD0E20FBE70120F9E7000070B51446A9
:101B00000E46054602F08DFB002806D131460548F9
:101B100002F087FB002803D005808470002070BD90
:101B2000112070BDFFFF000010B50178B0290BD166
:101B30004178002908D10179122906D01B2903D147
:101B40004088012100F03EFA10BDFF210231095CFE
:101B50000129F5D010BD0000F0B58C4610494B6846
:101B600019E09F687C89A04214D39E883119814274
:101B700010D900220CE011017D186989814205D13C
:101B80006046002800D004802846F0BD521C92B266
:101B90009642F0D81B68002BE3D10020F0BD000076
:101BA0001C76FF1FFFB5174881B00A9F446824E0E8
:101BB00000251EE0A0682901461870890199884215
:101BC00015D30299884212D80498002807D031789A
:101BD0007068049B039AFEF7B4FE002807D0002F1C
:101BE00002D0A06840893880304605B0F0BD6D1C39
:101BF000ADB2A088A842DDD82468002CD8D100203E
:101C0000F3E700001C76FF1FFEB5174600256A4665
:101C10009580044640891D4A1E46904208D001AA7C
:101C20000092401C237880B26268FFF7BBFF054634
:101C30002378022116486268FEF783FE002807D148
:101C40002378022113486268FEF77BFE002801D04A
:101C500060890EE0237802210F486268FEF771FE6A
:101C600000280DD0002D03D068468088B84203D0EC
:101C7000384602F0E9FF04E06889401E80B200E0C7
:101C80006089002E00D030802846FEBDFFFF000096
:101C9000D8780211DA780211DE78021110B5054900
:101CA0000870042100F004FA00F006F8FEF7E8FEE0
:101CB00010BD00002C76FF1F70B50E4C00200C4BA1
:101CC000651CFF228100C91800280ED00D80401C21
:101CD000CA70C0B28A700228F4D3074802F08CFAA6
:101CE000064803F08FFE002070BD0C80EFE7000077
:101CF0002476FF1FFEFF0000794B0211F94A021102
:101D0000F8B50D4614460646694602F0D1F8172884
:101D10000CD0002C06D001221021304603F0ECFD3F
:101D2000002803D129463046FEF7A0FEF8BD00008A
:101D300070B50C46080411D509480078FEF796F9ED
:101D4000050007D00178A02901D102F0F9F9284651
:101D5000FEF792F90120C003604070BD002070BD05
:101D60002C76FF1F01490870704700001C76FF1F8A
:101D700070B50546008800281DD0686802210378E8
:101D800042682248FEF7DDFD002808D1686802217C
:101D9000037842681E48FEF7D4FD00280BD01D4C86
:101DA0006088002805D0012229881204101A814277
:101DB00003D9012070BD022070BD0C20FEF78CF904
:101DC000060001D000200AE0132070BD02016B68FC
:101DD00061880A329952491C401C618080B229886E
:101DE0008142F3D80020306008222946301DFEF7DA
:101DF0001FF96068002802D1666004E008460168A7
:101E00000029FBD10660002070BD0000D8780211C7
:101E1000DA7802111C76FF1F0649496806E08A68D5
:101E20005289824201D18888704709680029F6D119
:101E3000002070471C76FF1F10B51422114201D0FC
:101E4000012202E04A0604D50022102103F054FDCD
:101E500010BDC80701D0002010BD022010BD10B574
:101E600014468A0604D50122102103F045FD10BD59
:101E7000882211420ED008220A40102103F03CFDB6
:101E800000280BD0E034617E0029F0D0217E0129AA
:101E9000EDD103E0880701D4032010BD002010BD60
:101EA000014610B50020C90704D0034A07210348A2
:101EB000FFF7BAFD10BD0000B87702114071FF1F97
:101EC00070B50D46164600241D490300FEF7C2F802
:101ED00008051234341934222934152D23D816223A
:101EE00000211848FEF7BCF82A4631461548FEF78F
:101EF0009FF822E0022D16D1114910881039088070
:101F00001BE0082D0FD10E48082231460838FEF795
:101F100025F912E0012D06D1CA6909493078283126
:101F200007E0012D01D0182407E0CA6B044930787E
:101F3000483102F050FF00E00224204670BD00004E
:101F40004071FF1F8C95FF1F0B7803700B880222D6
:101F50001B0A43700B88801C012B02D0022B07D078
:101F600011E08A7802704988090A417004220AE067
:101F70008A7802704A88120A42700A7982708988C7
:101F8000090AC170062210467047000008B5044BCC
:101F9000009313460A46012103F0FEFB08BD000032
:101FA000491F02111CB50323019200930A46024BFC
:101FB000122103F021FC1CBDB950021110B5FEF72F
:101FC000D3F810BD13B504480078012803D101AA45
:101FD0006946FEF7CFF81CBD3876FF1F70B50F4974
:101FE0000F4A087000210B468C00491CC9B21353DC
:101FF0000429F9D30A4C00211034FF260A460A2589
:102000006A4315196B80491CA354C9B26E72032927
:10201000F4D3FEF7B5F803F093FB70BD3976FF1FDC
:10202000989BFF1F082A01D0012070474B780A783F
:102030001B02D2180280CB788A781B02D218428009
:102040004B790A791B02D21882808A79C9790902F0
:102050005118C1800020704770B50C46080411D596
:1020600009480078FEF702F8050007D001789029AA
:1020700001D103F0C7FA2846FDF7FEFF0120C00397
:10208000604070BD002070BD3976FF1F70B500281C
:102090000AD1064C00252580A581A580A0680028CE
:1020A00002D0FEF773F8A56070BD0000149CFF1FFE
:1020B000072907D0052905D0042903D0062901D016
:1020C00002207047044A8B009A181346403B198639
:1020D000203A907400207047989BFF1F70B506004F
:1020E0001BD10E4C0025214640310D744D740D76E8
:1020F000606D002802D0FEF749F865655C20002578
:1021000046433419E80020184068002801D0FEF743
:102110003DF86D1CEDB20A2DF4D370BD249CFF1F59
:1021200070B50A880C460546072A07D0052A05D04F
:10213000042A03D0062A01D0022070BD012103F039
:102140008FFC002804D02146284602F0CBFF70BD4A
:10215000142070BD10B5001D80B2FEF71DF80028D8
:1021600003D00321C943FEF71DF810BD10B5014689
:10217000044800F0D7FA0348102118380078FDF71A
:1021800093FF10BD3075FF1F10B5054A002801D020
:10219000511000E00021042002F006FF10BD0000F5
:1021A000E3020000F8B5002810D000240120FFF75A
:1021B000EBFF6420FDF7FCFF0020FFF7E5FF642044
:1021C000FDF7F6FF641CE4B2022CEFD300F040F8F8
:1021D0000921684601700021417005214180682075
:1021E000FDF7ECFF094D7624EC60094E03E0304624
:1021F000FDF7EAFFEC600920FDF7ECFF0028F6D0C0
:1022000001216846FDF7ECFFF8BD0000002000400A
:102210001027000010B50C480022017E012906D0CD
:102220000A480168491E016000D1427110BDC169B0
:10223000491EC161FAD10276C07C0128F6D1002086
:1022400000F0BAF910BD00009474FF1F8874FF1FDE
:1022500010B501211620FDF7C9FF00211620FDF75A
:10226000CBFF01210220FDF7C1FF00210220FDF775
:10227000C3FF01210320FDF7B9FF00210320FDF773
:10228000BBFF01210720FDF7B1FF01210720FDF76A
:10229000B3FF01210420FDF7A9FF00210420FDF771
:1022A000ABFF10BD10B5FFF7D3FF00F01DF800F035
:1022B0004DF802F095FE10BD10B50146044800F03F
:1022C00031FA034810210C380078FDF7EDFE10BDFF
:1022D0002475FF1F10B5002801D0002100E0012166
:1022E0000720FDF789FF10BD10B50022012303214F
:1022F000104602F00FFE1621002002F03DFE0123E1
:1023000000220321184602F005FE0221012002F0FE
:1023100033FE012300220321022002F0FBFD0321F2
:10232000022002F029FE012300220321042002F0F2
:10233000F1FD0421084602F01FFE034A002104209B
:1023400002F032FE10BD0000E302000010B5084CA0
:10235000FF222188002002F027FE6188FF22012051
:1023600002F022FEA188FF22022002F01DFE10BD15
:102370009474FF1F06480178491CC9B201701329E3
:1023800004D9002101704188491C41807047000038
:10239000D074FF1F10B50548417D912904D1C28931
:1023A0000349072000F006F810BD00009474FF1FD9
:1023B0003C780211F7B51A480F46418882B0914225
:1023C0002CD90021174C4180267C642170003018E4
:1023D0000090385C257D6843FDF714FF208000984D
:1023E0006421C71978786843FDF70CFF6080B878DE
:1023F00064216843FDF706FFA080761CF0B22074CC
:10240000029988420AD300202074E07D012805D17A
:1024100071206075A08900F007F8E08105B0F0BD7B
:10242000D074FF1F9474FF1F10B510490246497DF8
:1024300000200B46703B0B2B05D805211046FDF7FD
:10244000E1FE1E2106E00B46803B112B05D8500013
:102450007D210901081A80B210BDA029FCD10521F7
:102460001046FDF7CFFE1921F4E700009474FF1F1A
:1024700010B560380300FDF7EDFD0705080B1411DA
:102480000E17070000F060F810BD00F037F810BD1F
:1024900000F00EF810BD00F01FF810BD00F07AF843
:1024A00010BD00F03FF810BD00F062F810BD000054
:1024B00010B5084C0020E0802081FF216181217D42
:1024C000208060800802401A6421FDF79BFEA080F6
:1024D00010BD00009474FF1F10B5074C0020E08071
:1024E000802121816181217D2080C8016421FDF747
:1024F00089FE6080A08010BD9474FF1F70B5084CE9
:102500000025E580FF2020816581207D2580010256
:10251000081A6421FDF776FE6080A58070BD00007A
:102520009474FF1F70B5074C8020E0800025258142
:102530006081207D6421C001FDF764FE20806580FC
:10254000A08070BD9474FF1F70B5084CFF20E08020
:10255000002525816581207D0102081A6421FDF78F
:1025600051FE20806580A58070BD00009474FF1F1F
:1025700010B5074C8020E08020816081207D64219F
:10258000C001FDF73FFE20806080A08010BD0000EC
:102590009474FF1F70B5074C8020E08020810025D7
:1025A0006581207D6421C001FDF72CFE20806080C4
:1025B000A58070BD9474FF1F10B50021104C002839
:1025C00015D00120E074A07D60750246603A062AAD
:1025D00002D8FFF74DFF10BD9028FCD108460949ED
:1025E00048802074A081FFF71FFFE08110BD607D4F
:1025F000A075E17421806180A180617510BD00002B
:102600009474FF1FD074FF1FF8B5214F01243A794D
:10261000002A01D07C71F8BD0E46002819D033E0A5
:102620007D20C000FDF7D0FD1921A868FDF7F0FD61
:1026300000280FD0FDF7F2FD2043A8600920FDF728
:10264000C9FD002802D0002078711DE0761EF6B288
:1026500000E0104D002EE3D1FDF7E0FD2043FF2602
:10266000F536A8600AE03146A868FDF7D1FD0028DC
:1026700004D0FDF7D3FD2043A860CBE70920FDF788
:10268000A9FD0028EFD07C710020FFF78BFDF8BD7D
:102690008874FF1F1875FF1F70B504460079002865
:1026A0003BD0FDF7BBFD02460121A0680A43821A18
:1026B0008B07921E9A4230D3A279002A06D0607905
:1026C000002806D0FF2811D0401E607160790028D4
:1026D0000CD12079062568432368401D185C2071C1
:1026E0006843001D185C6071002806D0207906251B
:1026F00023686843185A002810D0002A10D0002000
:10270000A071FDF78BFD217906225143A279520079
:1027100089182268515A4018A06070BDA171F0E775
:102720000120EDE710B50446026808460623584329
:10273000001D105C607121710020A071FDF76EFD1D
:1027400001210843A06010BDF0B5984EBFB00D4602
:1027500008040CD53078FDF789FC040004D0FDF79F
:1027600063FD2046FDF788FC0120C00319E1E8075E
:1027700003D0FFF7EBFD012013E1A80709D5FFF710
:1027800049FD7D22D20002213078FDF781FC022034
:1027900007E1874C68077CD5864F6E4639463A7A02
:1027A000203901A8FDF744FC397A68464180BB21F5
:1027B0000171384620388178401C891CFDF73AFDAC
:1027C0003A7A39462139515C814273D138462038F2
:1027D0000178AA29F9D1784B597A00296AD142782F
:1027E000F71C012A0AD0022A0DD0032A12D0042A8B
:1027F0002BD0052A4ED0062A6AD08EE0E07C002835
:102800005CD1012003E0E07C012857D10020FFF7D4
:10281000D3FE53E0E27C012A50D1C078421E062A42
:1028200005D85F30C0B26075FFF722FE46E0082889
:1028300044D1912060750846604908802074E07595
:10284000A081FFF7F1FDE08138E0C17820462175D5
:102850000C46C17C012931D1417D603906292DD832
:1028600053486421C0886043FDF7CCFC5049088080
:102870000846008964216043FDF7C4FC4C49488048
:102880000846408964216043FDF7BCFC48498880C4
:1028900014E04AE0C278012A02D0002A0BD00DE0F1
:1028A00001212176817940793C225043401C08184F
:1028B000E06101E037E021763C20186069468979C3
:1028C000701D891CFDF7B6FC69464988C85524E08F
:1028D000062268468271E27CC271607D0246603ADF
:1028E000062A02D86A465F3803E0912802D1082000
:1028F0006A461072207E6A46507291723C21E069ED
:10290000FDF780FC6A46D07211730821701DFDF737
:1029100091FC6A4650730A2050800220FFF726FC83
:10292000684603F0E5FB04203BE0280724D5244952
:102930006E460FC90FC6607D69464870012802D0F7
:10294000603806280CD8218868460A0A8270C1704F
:1029500061880A0A02714171A1880A0A8271C171F3
:10296000E0896946020A0A7348736A461021882082
:10297000FDF766FC082014E0E80615D50E484079FE
:10298000012802D0002808D00AE000F04FF86422A5
:1029900010213078FDF77CFB02E00120FFF702FCFC
:1029A000102068403FB0F0BD0020FBE71875FF1F06
:1029B0009474FF1F409BFF1F8874FF1FD274FF1F7A
:1029C0005478021170B5174C2070FDF73FFC3C2184
:1029D0000020FFF719FEFFF765FCFDF73DFC0C201A
:1029E000FDF7F8FB104D002806D000206871642226
:1029F00010212078FDF74CFB6879012810D10A22BC
:102A000010212078FDF744FB7D22D200022120789E
:102A1000FDF73EFB0220FFF74FFC0120FFF7A6FB6E
:102A200070BD00001875FF1F8874FF1FF8B522489D
:102A3000FFF732FE009020480C30FFF72DFE1E4EAF
:102A40000025307937460C371C4C002802D13879E4
:102A5000002810D0B079002802D1B879002808D019
:102A60000125A571FDF7DAFB134928430C394860AD
:102A700010E0A57111E0104A0C3A5068002809D006
:102A80006421FDF7C5FB002804D00B48A5710C3864
:102A9000456002E0A079022803D06820FDF78EFB94
:102AA00002E06820FDF7DEFBB079FFF713FCB87990
:102AB000FFF76AFB0098F8BD2475FF1F8874FF1F9D
:102AC00038B50C46050014D0002C12D003216846FE
:102AD00003F060FC6946887840218006800E084338
:102AE000694688702246284604F08CF9050002D019
:102AF00006E0022038BD03226946E01CFDF798FA83
:102B0000284638BDF7B58EB00E9815460E460028FB
:102B10002DD0002D2BD0301DC0B20190FDF7DCFA76
:102B2000040039D000F01AFB07463246201D0E99EA
:102B3000FDF79EFBF8B20890E0703804000E0B9091
:102B4000A0703802000E0A9060703F0E277000F0EF
:102B5000FFFA0146102202A8FDF78AFB06AB2146C8
:102B600002A8019A04F0A4F8060003D010E00220A5
:102B700011B0F0BD089828700B9868700A98A8707A
:102B8000EF70082206A9281DFDF772FB00F0ECFA91
:102B90002046FDF7B3FA00E013263046E8E70000D0
:102BA00010B5064C2070FDF769FB06212078FFF771
:102BB0007FFA034802F026FF10BD00004876FF1F91
:102BC000E963021170B50C46080419D50D48007868
:102BD000FDF74CFA05000FD003F026FD002808D1C0
:102BE00009480078FF2804D02946FDF78DFA00280F
:102BF00002D02846FDF740FA0120C003604070BDB6
:102C0000002070BD4876FF1F1076FF1F10B50548E5
:102C10000078400701D5044800E0002003F08CFD57
:102C2000002010BD8375FF1F3C76FF1FFFB58DB0E0
:102C30000F98169C0E46002815D0002C13D00D9826
:102C400002F080FE050011D061782078090240185A
:102C5000A178E2780904120689184718286AB84250
:102C600006D3401C04D0022011B0F0BD1420FBE7B5
:102C7000002E04D02879800701D40120F4E708222F
:102C8000002106A8FDF7ECF91098001DC0B20190D4
:102C9000FDF722FA060017D0301D109A0F99FDF7A4
:102CA000E7FA042221463046FDF7E2FA1022A9187D
:102CB00002A8FDF7DDFA06AB314602A8019A03F03F
:102CC000F7FF050002D013E01320CDE7082206A984
:102CD00008A8FDF7CDFA0822211D08A8FDF7B4F9D0
:102CE000012801D0012503E039460D9801F028F8AC
:102CF0003046FDF703FA2846B6E7000030B55C4CD5
:102D00008DB0A07006211F20FEF754FC00206946FC
:102D1000087001220A7107220A72088418228A8424
:102D200030220A858885FF202D30088651A003C8EF
:102D3000079106900222E11C5048FDF7A5FA0422F3
:102D4000611D1003FDF7A0FAE11C084606221530AC
:102D5000FDF76EF920786946087303AA01214848F7
:102D6000FEF752F9464806AA0621801CFEF74CF9E8
:102D7000C32002AA01218000FEF746F940486A46B6
:102D80000121001FFEF740F93D4808AA0221C01E9C
:102D9000FEF73AF92246612014320F21C000FEF7F7
:102DA00033F93748224623321121801EFEF72CF9D1
:102DB000312001AA01210001FEF726F9304809AAB5
:102DC00002210830FEF720F92D480AAA0221093015
:102DD000FEF71AF92A480BAA02210A30FEF714F965
:102DE000C5200CAA02218000FEF70EF922463432DB
:102DF00015210020FFF764F8FF25913529460620AC
:102E0000FEF7D8FB29460720FEF7D4FB2946082009
:102E1000FEF7D0FB29460920FEF7CCFB0025ED4349
:102E20002846FFF73DF82846FEF74EFCFDF732FA3C
:102E3000284600F05BF813A103C90591049004A98A
:102E4000082002F073FE1720FDF778FF0020FDF741
:102E500027FA0020FDF72AFA0121A078FDF724F9CE
:102E6000A078FEF781FB0948FDF726FA0DB030BDCA
:102E70003C74FF1F0102030405060000044000002B
:102E800009030000464143454D41534B6499FF1FE0
:102E900038B50C4608040AD512488078FDF7E6F8E4
:102EA000002801D0FDF7E8F80120C00316E0E00794
:102EB0000125002808D00B480C30FEF7AFF9FDF7CC
:102EC00001FA2046684038BDA00709D5684605705C
:102ED0006A4601210448FEF797F80220604038BD99
:102EE000002038BD3C74FF1F0503000070B5054687
:102EF000002409490948FEF71DFC094802F082FD3B
:102F0000E80706D00448074A08210830FEF78CFD80
:102F10000446204670BD0000F072FF1FFFFF000056
:102F2000C160021130780211FFB583B00F460398DB
:102F30001B4940001646085AFFF70CF904002AD036
:102F40000125601C2670002F03D00699B847401C4D
:102F500085B2300610D51021039802F081FD0028BB
:102F600001D0192613E06219E9B22046FFF7CAFD25
:102F700006000CD10C35ADB20421684601800194E5
:102F8000058169460398FFF7CBF8060004D0204678
:102F9000FDF7FCF800E01326304607B0F0BD000056
:102FA0007C75FF1F10B50C4602F0E0FC002804D031
:102FB00040882146FDF7B4F810BD122010BD002254
:102FC000002913D0002811D0012806D04A79920692
:102FD000920E4A71032805D007E04879C0221043B9
:102FE000487102E0402002434A71012210467047B6
:102FF00070B5124800250078052108421BD020201A
:10300000FDF76AF80E4C0028A06013D020220021A2
:10301000FDF726F82020FDF75FF8E060002804D0D7
:1030200020220021FDF71CF805E0A068FDF766F8F6
:103030000020A0601325284670BD00008375FF1F87
:10304000F475FF1F002909D0012807D149798909A2
:103050008901C02902D0402901D0022070470320F5
:103060007047FFB500200E4608701AE01C5C401C3B
:10307000C5B2002C17D02819904214D85F5D6D1C82
:10308000EDB2384600F085FE002806D0641EE0B29E
:10309000307000998F4202D1581904B0F0BD401928
:1030A000C0B29042E2D30020F7E7000010B5044C14
:1030B0002068002803D0FDF721F80020206010BD13
:1030C000E075FF1F70B50E4D84002859002815D0FB
:1030D000006A002801D0FDF711F82859406A00283D
:1030E00001D0FDF70BF82859806A002801D0FDF7C0
:1030F00005F82859FDF702F80020285170BD00009E
:10310000EC75FF1F10B5044C6068002803D0FCF775
:10311000F5FF0020606010BDE475FF1F010004484A
:1031200005D104498978002901D00248801D7047E3
:103130008C9BFF1F8275FF1F01488078704700003D
:103140008275FF1F01484068704700007C9BFF1F8D
:1031500001488068704700007C9BFF1F0148C068E1
:10316000006870477C9BFF1F10B50748C068016866
:10317000491C016005480078FF2803D0012189031C
:10318000FCF792FF10BD00007C9BFF1F8275FF1FA4
:1031900002484068002800D001207047DC75FF1FFE
:1031A000FFB581B00F460D9E0A9D039802F0CAFB41
:1031B000040042D0019800283FD120791021084313
:1031C00020710499490702D50221084301E0FD213D
:1031D000084020710B99284608430C990843304356
:1031E000207902D00421084301E0FB21084020712E
:1031F000002E06D03069102220623146A018FCF75C
:1032000017FF002D01D0002F05D00B98002814D0F7
:10321000012F08D011E0606A002801D0FCF76EFF92
:103220001C21284606E0606A002801D0FCF766FFF2
:103230001C210B98FDF74CF860620398224C870024
:10324000E05900283ED0002D0FD0006A002806D19A
:103250001C20FCF741FFE1590028086205D0E05925
:103260001C22006A2946FCF7E3FE0C98002810D0C7
:10327000E059406A002806D11620FCF72DFFE159DD
:103280000028486205D0E0591622406A0C99FCF7E4
:10329000CFFE002E10D0E059806A002806D11420FD
:1032A000FCF71AFFE1590028886205D0E059142282
:1032B000806A3146FCF7BCFE0B9B049A0399019887
:1032C00002F012FE05B0F0BDEC75FF1FF3B581B042
:1032D000019802F037FB050029D00E20FCF738FFDB
:1032E000040024D02620FEF70FF8060000D12E7827
:1032F000D0202070002767700B20A0700622E91DE7
:10330000E01CFCF795FE019860810298C10701203E
:10331000002901D0207300E027730299890701D5A5
:10332000607300E06773F0B22146FCF7EDFEFEBD6E
:1033300010B581881F4B0124CA1A994237D011DC7D
:103340001D4BCA1A994219D007DC1C4A8A1810D0A2
:10335000022A1ED0032A29D11BE0472A27D0482A57
:1033600024D124E01300FCF775FE0621222222223C
:1033700022218068007800F0CDFC08E08068827827
:1033800041781202891889B2007800F023FD0446C2
:103390000DE0094A921E914201D1012200E0002273
:1033A00080680178104600F0FDFC00E00024204613
:1033B00010BD0000532000000A200000FADFFFFFCC
:1033C00070B51A4D1A4A0146002628781268194C21
:1033D00001290CD0002A09D017490978490705D5D9
:1033E0000221FCF75BFE6680FFF760FE70BD61881E
:1033F000002903D0114B1B78002B05D0002AF5D0F3
:103400001078FDF757FF70BD3C2902D33C3961802D
:1034100070BD0221FCF742FE62887D20C00042435D
:1034200002212878FCF734FE668070BD1176FF1FFC
:10343000E075FF1FF475FF1F8375FF1F8575FF1F64
:1034400008B5418900910389C2888188C07800F05D
:10345000ADFB08BDF0B504468088A1218900484332
:10346000304987B009684018FF30FF300230A17939
:103470004167002C54D02C4D6868002823D0067872
:103480002A480068002804D04168002901D00020A3
:1034900088472146E07908310591FFF7D3FDE071B7
:1034A0000246277D638A218AE089019002A88AC0AA
:1034B000A0880090E0783146059B02F08BFDE07813
:1034C000002802D00DE01A48D9E7E079E2896B467E
:1034D000059907C3A379A1880122304602F0E0F9DB
:1034E000E0706868002811D0FFF70CFE28780028EB
:1034F0000CD06978FFF756FD002807D0E078A28845
:103500000346297802F0BAFD00202870A088172110
:10351000FDF72AFCA088FEF7B9FDA088FEF7DEFDC6
:1035200007B0F0BD3409FF1FE475FF1F1476FF1FBD
:103530008275FF1F70B504460026808802F002FAEB
:10354000002803D00678A08802F06EFA144D28787F
:10355000002808D0864206D16978FFF723FD0028AD
:1035600009D000202870002E05D0A379A288A07869
:10357000314602F083FDA088094A81000832515883
:10358000002901D0FFF79EFDA0881721FDF7ECFB75
:10359000A088FEF77BFDA088FEF7A0FD70BD0000AF
:1035A000E475FF1F70B58288294D0124531B2949FA
:1035B000AA4242D019DC284D531BAA4218D00BDC7A
:1035C000264BD21826D0254B1033D2181ED0032AF2
:1035D00017D0042A39D10BE0012B09D0022B07D0D8
:1035E000032B21D0042B30D11AE0433B072B2CD8DE
:1035F000496800292AD00968002927D0884704464D
:1036000024E08068007800F0ADF81FE0806800F0EA
:1036100001F9F4E78068411C007800F0D9F8EEE782
:1036200083681B78002B11D0896800290ED00B68A5
:1036300008E0014610469847E1E709490968002972
:1036400004D04B68002BF4D100E00024204670BD6C
:103650000E2000001076FF1F08200000F7EFFFFF8C
:10366000F075FF1F10B5094CA17800290CD0014658
:103670000622A01DFCF7DCFCA11DA078FFF79FFC33
:10368000A01DFCF72BFE10BD002010BD8275FF1F92
:103690001CB52F49037801240A68912B02D0A22B74
:1036A0002ED13EE04178052909D00E2904D00F29FA
:1036B00008D03E2924D115E0FFF774FF10E0FFF792
:1036C00039FF3AE001468088224B0124C31801D01B
:1036D000062B15D1002A30D05268002A2DD09047F1
:1036E00004462AE081780124032917D004DC01294B
:1036F00011D0022904D105E015291ED016291CD0AD
:1037000000241AE014498968002916D04968002964
:1037100013D0884711E0FFF79DFE0EE0FFF790FE03
:103720000BE00E490978042909D0002A05D0526817
:10373000002A02D001460A48904720461CBD0021BD
:103740006A46118001794088FEF720FCF5E7000009
:10375000F075FF1FF3DFFFFF1076FF1F8375FF1F5C
:10376000FFFF0000F8B5164F0646BD1F2878FF285A
:1037700014D00A20FCF7ECFC04000FD0D0202070FD
:1037800066700820A070A878E07006223946201DD7
:10379000FCF74EFC21462878FCF7B6FCE8780128B7
:1037A0000DD108480068002803D08068002800D0A8
:1037B00080470648044A04210078FCF793FCF8BDD2
:1037C0008875FF1F1476FF1F60EA00001176FF1F47
:1037D00070B500240546002805D1002903D0062233
:1037E0000B48FCF725FC0A4810380178012907D15D
:1037F0000124002D06D000210170284600F0B2F906
:10380000204670BD02210170FCF76EFDF8E7000054
:103810008C9BFF1F10B50024002813D002780B49A1
:10382000002A03D14288CA8202790A760A78022ADB
:1038300008D102780124002A06D000220A700078FC
:1038400000F090F9204610BD0322F7E77C9BFF1F94
:1038500001494860704700001076FF1FF8B5774CAB
:1038600087780146002507266079A2793B00FCF79E
:10387000F1FB0805361A37375F94C73648780028B9
:103880005CD16E4806223C30C91CFCF7D1FB0120FC
:10389000A0716A4B0146423362786079FDF7DAFE27
:1038A00000284BD1A2E00F464978002946D1F9788B
:1038B000002906D0624BA2780021FDF7CBFE78707C
:1038C0000AE0022A0BD00121FCF7F4FB002803D107
:1038D00001216079FCF7E8FB787800282ED1F8BD4B
:1038E000497800292AD1032F09D0A289002A0CD0B7
:1038F000217800290AD00121FCF7CAFB06E0052A3D
:1039000001D0022012E0062010E02570A0790628E0
:1039100002D0042802D008E0052007E00120207032
:1039200001466079FCF7C0FB60E00320A0715DE018
:1039300048780F46002803D031282CD0A67155E0D6
:103940003E480622391D3630FCF772FB7889E0814B
:10395000B8892082F88960820520A071A28A002A95
:1039600003D002216079FCF793FBB889E083F889E2
:103970002084388A6084E07801280AD11F20FDF76E
:10398000C3FC7D21C9004843024604216079FCF74D
:103990007FFB25702AE02570C7E728480E460622DF
:1039A00000213630FCF75CFBE58325846584042127
:1039B0006079FCF773FB08216079FCF76FFBB07945
:1039C000082808D00320A0712078002805D060794D
:1039D000FDF770FC07E00420F5E7012020700146A8
:1039E0006079FCF761FB0020C043E081606A002839
:1039F00000D174E701680029FBD0A0798847F8BDA1
:103A00000D460821FCF74AFB687829460028F6D1C4
:103A1000E888E083288920844889608404216079CB
:103A2000FCF748FB0028EAD1A06A0028E7D0036829
:103A3000628C218CE08B9847F8BD0000B471FF1FA9
:103A4000A295FF1F10B501781C4C912906D0A22920
:103A50001BD0D02901D1FFF701FF10BD41780E29FD
:103A6000FBD18188164A9142F7D18168032008561C
:103A7000A1790529F1D17F28EFD0616A0029ECD026
:103A800049680029E9D0884710BD41791329FBD145
:103A90000089012802D12079022808D00520FDF7ED
:103AA00033FC024608216079FCF7F2FA10BD0821C8
:103AB0006079FCF7F3FAFDF7CDFB10BDB471FF1F81
:103AC000051400007CB5154C0546E08BE18A884260
:103AD0000AD3218B884207D8208C618B884203D17E
:103AE000608CA18B884217D00520FDF70DFC06469F
:103AF000E18A68460180218B4180618B8180A18BA6
:103B0000C18062796946E089FEF74CFA2571324638
:103B100008216079FCF7BCFA7CBD0000B471FF1F7E
:103B2000F8B507460E46084601F00CFF040018D011
:103B30002620FDF7E9FB050000D125780620FCF7DB
:103B400007FB04000DD006220021FCF789FAD020E3
:103B5000207067700E20A070A680E8B22146FCF7A6
:103B6000D3FAF8BD70B50F4D06462878FF2818D057
:103B70000E20FCF7EDFA040013D0D0202070667000
:103B80000020A07006220849E01CFCF751FA064804
:103B90001038C18A6181007E207321462878FCF7A5
:103BA000B3FA70BD8275FF1F8C9BFF1FFFB581B0FC
:103BB0001E4617460D460C20FCF7CAFA040013D027
:103BC000284601F0BFFE002810D00078D0212170D7
:103BD000019961700721A170A580E78026810A996B
:103BE00061812146FCF790FA05B0F0BD0048ECE792
:103BF0008275FF1F70B50D4D044628680E460028DB
:103C000012D00620FCF7A4FA010009D0D0200870D9
:103C10004C70032088708E8028680078FCF774FA56
:103C2000002C01D0FFF742FA70BD0000E075FF1FC5
:103C3000FFB581B01F460E46084601F083FE050021
:103C400022D01020FCF784FA04001DD0102200219D
:103C5000FCF706FA2620FDF757FB002800D128784C
:103C6000D0212170019961700F21A170A680039964
:103C7000217267720A99A1720B99E1720C99E16045
:103C8000C0B22146FCF740FA05B0F0BDF0B51F4DBB
:103C900085B02868002837D08778FDF7B1FB002869
:103CA00005D00A20FDF730FB04900B200EE001F058
:103CB000D1F9002805D00620FDF726FB0490072047
:103CC00004E00820FDF720FB04900920FDF71CFB11
:103CD00004460F480078002814D001262968C878C7
:103CE000091DFFF76CF929686D46CA7A8B7A091DA0
:103CF0000BC5039233463A4621460498FCF7FAFA7C
:103D000005B0F0BD0026E9E70120F9E7E075FF1FE7
:103D10008475FF1F10B50949096800290CD00028D7
:103D200005D101204870FCF7CBF9002802D0002112
:103D3000FFF760FF012010BD002010BDE075FF1FE0
:103D4000F8B50C4601F0FEFD020021D026201462D9
:103D5000FDF7DAFA05062D0E00D115789679D01DFB
:103D600000901020176AFCF7F3F9040010D0D0205F
:103D70002070002060700920A070E6700622201DCF
:103D80000099FCF755F921462846E760FCF7BCF995
:103D9000F8BD411E152903D9FF2801D00020704726
:103DA0000120704770B50A4E054630780C46FF2852
:103DB0000DD00420FCF7CCF9010008D0D020087009
:103DC0004C7002208870CD703078FCF79DF970BD82
:103DD000F475FF1FF3B5284D81B0286800284AD03C
:103DE0004078264E012803D03078002831D041E0B9
:103DF00001F030F9224F002813D00120FDF784FA9A
:103E00000446412808D91F4A02213878FCF76AF98C
:103E10001D483C3C44800EE07D20C00022464243C9
:103E200003E00020FDF770FA0246002A03D00221C9
:103E30003878FCF72DF9296802204870307800287E
:103E400002D00020307015E002990198FFF7D2FEF1
:103E500010E00320019CFCF77BF9010008D0D02082
:103E600008704C700420887028680078FCF74CF9C2
:103E7000FFF71CF90120FEBDE075FF1F8575FF1FD0
:103E80001176FF1F60EA0000F475FF1F074A00214A
:103E90008B00D35A834202D1880080187047491C96
:103EA000C9B20229F4D30020704700002476FF1F16
:103EB00010B50C46FFF7EAFF00280DD0002C00D00B
:103EC00020608078FE2803D0FF2803D0162010BD84
:103ED000172010BD002010BD022010BDFFB581B01D
:103EE000FF201E46174605300A9DFCF731F90400F5
:103EF0001BD0B02020706770029860802671002D62
:103F000006D02046FC2229460830FCF791F805E04F
:103F10002046FC2200210830FCF7A2F82146019837
:103F2000FCF7F2F8002005B0F0BD1320FBE700001D
:103F30000548172202800988172901D204207047FA
:103F400001800020704700007E75FF1F0020704731
:103F500008B50A460888498888420BD8002809D045
:103F6000002300931379521DFDF71CFE002803D097
:103F7000002008BD012008BD0A2008BDF3B50D468C
:103F800008884988002687B0814215D3002813D0BD
:103F9000002769460F710097002369881A46FDF7CC
:103FA00001FE04004FD068460079002807D069461A
:103FB0004979012925D008E0012009B0F0BD217818
:103FC00002291BD002216A4651711222504301AAD4
:103FD000618980184180684600791223584380180F
:103FE0001022001D6168FCF723F868460079401C28
:103FF0000106090E684601711FD11AE001216A46C7
:104000005171217802291ED1820001A861891218FC
:1040100051806A4612796168920010180222001DD0
:10402000FCF706F86A461079401CC0B210710528EA
:1040300003D261890A48814200D101266089401C6F
:1040400080B2002EA7D068460079002805D001A9CB
:104050000798FCF7F1FC0020AFE70A20ADE700006D
:10406000FFFF000038B50C4608884988884215D8FB
:10407000002813D02379621D02210B48FCF761FC54
:1040800000280DD000200090237961882088621DCF
:10409000FDF788FD002805D0002038BD012038BD7F
:1040A000102038BD0A2038BDD878021108B50A465C
:1040B0000888498888420BD8002809D0002300933B
:1040C0001379521DFDF76EFD002803D0002008BDB6
:1040D000012008BD0A2008BDF8B500250F46064698
:1040E0000C46E03717E06800205A0021FDF734FD48
:1040F000002809D0017A3046FDF79EFE002808D03E
:104100006900615A2180F8BD6800205A2080012092
:10411000F8BD6D1CEDB2B87DA842E4D80020F8BD12
:1041200010B5044608880021FDF716FD002804D0CC
:10413000017A2046FDF780FE10BD012010BD000071
:1041400030B585B005466946FCF7EAFC040026D187
:1041500068468078C1071E4809D08268002A04D0CA
:10416000688869469047044619E0062417E04268CB
:10417000002A05D0688869469047040001D10EE006
:10418000062468464078002809D168468178017382
:104190000021C1810474688803A9FCF70DFCA8689C
:1041A000002801D0FBF7F2FF002C05D1684680788B
:1041B000122807D01B2803D068880121FDF702FFD1
:1041C00005B030BD684640780128F5D1F8E7000019
:1041D0002C76FF1F70B505460C4608880021FDF7B8
:1041E000BBFC002805D0017A22462846FDF737FEA1
:1041F00070BD012070BD000001494860704700009B
:104200002C76FF1F10B50446801C00F029FDFF200E
:10421000E07010BD10B500F025F8002800D08068CF
:1042200010BD00229300CB5A834202D19000401867
:104230007047521CD2B2022AF4D30020704700000B
:10424000074A0021CB00D35A834202D1C80080180C
:104250007047491C0906090EF4D000207047000081
:104260002872FF1F0649896805E08A88824201D1C9
:104270008868704709680029F7D10020704700005E
:104280001872FF1FF8B50746012906D0022924D16C
:10429000012101F0E5FB00281FD13846FFF7D0FFD0
:1042A000050015D000240D4E0CE0F820696860432D
:1042B00008180188002908D0F8220021FBF7D0FE59
:1042C000641CE4B270788442EFD30020C04328809D
:1042D000024938461831FDF72DFAF8BD1872FF1F54
:1042E000F3B5064683B00830019000200090708836
:1042F000FFF7A6FF07002FD0002523E0F8207968FC
:1043000068430C182188002920D0019800780128E2
:104310000FD160880090A3887088A21DFDF7CEFBA6
:104320000090002805D00199002008700498218889
:104330000180F82200212046FBF792FE00206D1C30
:104340002080EDB2074840788542D7D30020C04393
:1043500038800098002802D17088FCF757FB00983D
:1043600005B0F0BD1872FF1FF3B50546374C064681
:1043700085B00835F62200212046FBF771FE03A820
:1043800000902B79698828886A1DFDF70BFC074689
:1043900045E070882E4A4100515C2E4BC91FC9B2BE
:1043A0000093002202910192284B69468A89F63BCC
:1043B0003946FDF71FFA002812D126482989001F27
:1043C000828891420CD121492846F6390A30FBF700
:1043D0003BFE002804D0217878898900091948809B
:1043E00068468289698804AB3846FDF70DFC0746AC
:1043F0002078810009194A88002A10D0002F05D0A2
:104400006A46128A401C20708A800AE00206002157
:10441000920DC9431219401C2070918006E0002FB4
:1044200004D00D48217800888142B2D3207800283A
:1044300006D070882146FCF7F1FA002007B0F0BDE5
:104440000698298801800A20F8E70000D097FF1F0E
:104450007C75FF1F1C72FF1F7875FF1FF0B585B0BC
:10446000044600206946888120790E2869D00FDC37
:10447000082823D004DC022813D0062818D118E01D
:1044800025460835484F0A281DD00C2810D138E0A1
:1044900010285BD012285ED0162861D0182877D15A
:1044A00063E043484149008808806088FCF78EFA41
:1044B0006EE003A92046FFF757FF5AE003A9204604
:1044C00000F076F955E0288804A9FDF745FB0100C6
:1044D00015D06088354E4200BA5C0023521ED2B21D
:1044E0000193029200966A46B31C128AFDF782F984
:1044F00000281DD160883146FCF716FC48E00120F9
:1045000016E0288804A9FDF727FB0100F7D0608892
:104510006B884200BA5C254E521ED2B201930292C1
:1045200000966A46B31C128AFDF764F9002803D08E
:1045300029886A4691811CE060883146FCF7C4FBFB
:1045400026E003A9204600F0D3F912E003A9204693
:1045500000F082F80DE003A9204600F039FA08E0E7
:1045600003A9204600F028F803E003A92046FFF73E
:10457000B7FE00280CD06178142909D00B492279A4
:104580000A706A4692894A8008716088FCF714FABA
:104590002046FDF7C9FA0748C168002901D0204626
:1045A000884705B0F0BD00007C75FF1FD097FF1F46
:1045B0007675FF1F1872FF1FF8B504460F460546B3
:1045C000083400896946FDF7C7FA06003AD0307A08
:1045D00080060ED568460088FFF71CFE030006D053
:1045E0006888122231469847060002D02BE00E263A
:1045F00029E06E883046FFF723FE010005D11448FC
:10460000FFF71EFE01000ED00E80124A00205278E5
:1046100007E0F8264B6846439B5B002B05D0401C07
:10462000C0B29042F5D309260DE04968F822504304
:1046300008182146FBF7FCFC002668882146FCF799
:1046400039FB02E00126208838803046F8BD0000A2
:10465000FFFF00001872FF1FF3B58BB000200B9E08
:104660000746039004A800903246337B7189308955
:104670004C4C0D320836FDF795FA054678E00B985C
:10468000297A4088FDF7D8FB070003D00C98698988
:1046900001806FE00B9844494088444B4200895C9C
:1046A0000093891FC9B20022029101923D4B6946D5
:1046B0000A8AF63B2946FDF79DF80700E6D10398E4
:1046C000002833D039486188001F8088021D91423C
:1046D00053D1039909180B98408842003248805AF8
:1046E000801F814249DC0399A87A611808710398F8
:1046F0006989401C80B22218090A401C117180B2DD
:1047000003906846028A718807AB2846FDF77CFA59
:10471000050011D003986946898B20180171039810
:104720006946401C898B80B2090A0CE01F48001FB3
:104730008088001D6080D6E70398FF212018017152
:104740000398401C80B222181171401C80B2174996
:104750000390091F8A8813492018F639001DFBF7BA
:1047600067FC12490398091F8988401880B203909A
:10477000002D84D1039800280CD061880398FBF7A2
:1047800041FD20700B9821464088FCF7A7FA0020D5
:104790000DB0F0BD002F00D10A270C9831880180A0
:1047A0003846F5E7D097FF1F7C75FF1F1C72FF1F6F
:1047B000F3B50746044608378BB04948049038885B
:1047C00000252E4605906AE007A800903B7979887D
:1047D0007A1D0598FDF7E6F90890002852D0408927
:1047E00005900898017A6088FDF726FB06005DD1E8
:1047F00060883C494200895C3B4B091FC9B2009369
:10480000002202910192364B69468A8BF63B089949
:10481000FCF7F0FF060049D1002D36D004984188FE
:104820003148001F8088801C814241D12E4B1B1FC4
:1048300098882918608842002A48805A001F8142BF
:1048400020DC0898817A04984019017108996D1C40
:104850004989E8B20A0A049909180A71401CC5B2CC
:10486000194604988A881E494019F639001DFBF73D
:10487000DFFB1D481D49001F00792818C5B20598A7
:10488000884209D1002D13D123E017480499001F55
:104890008088801C4880C9E7401C80B205906088F1
:1048A00041001048405A001FA8428DDA002D0ED05A
:1048B000049841882846FBF7A5FC0146049801703E
:1048C00060880499FCF718FA00200DB0F0BD002EA6
:1048D00000D10A260C99059808803046F5E70000BB
:1048E000D097FF1F7C75FF1F1C72FF1FFFFF00008A
:1048F000F3B506460446002085B0324D00900836D8
:10490000288007463046E030049048E07800305A6E
:1049100003A9FDF721F901001AD060882B4B8446CA
:1049200042002948805C0093401EC0B200220290E1
:104930000192244B68468289F63B6046FCF75AFF99
:104940000090002807D07800315A0698018035E0A1
:1049500001200090F7E71D492888091F898842181F
:1049600061884B001849C95A4B1E9A4204DD081A47
:104970001649091F401E88802988A81C0818134959
:10498000091F8A880F49F639FBF752FB0F4829881F
:10499000001F8088081828807F1C0498FFB2807D43
:1049A000B84207D96088298842000748805A401ECB
:1049B0008142ABDB60882946FCF7ACF9009807B070
:1049C000F0BD0000D097FF1F7C75FF1F1C72FF1FFA
:1049D000F3B5054683B004460835008901A9FDF703
:1049E000BBF82746E8370646002822D0307A8006F2
:1049F0000ED568468088FFF70DFC030006D060885E
:104A0000122231469847060002D013E00E2611E02C
:104A1000002000906B88298860882A1DFDF74EF8D9
:104A2000060007D1787E002807D16088FCF7A8F936
:104A300003E00126049829880180787E002802D0AE
:104A4000002005B0F0BD3046FBE70000F8B5044695
:104A50000246F820424319480025074645701037A2
:104A60007868002807D00020C100C919401C000642
:104A70004D60000EF8D0124E00213046FBF7F0FAE0
:104A8000002001466143C9B2F82251438B190B49FA
:104A9000C200103152180021536005E0F8274F433F
:104AA0005368491CDD53C9B2A142F7D3401C00062C
:104AB000000EE6D0014844700020F8BD1872FF1FB8
:104AC000E295FF1F7CB50C78069D022C0FD14C6837
:104AD0002678647824023419064EA4B2F44206D132
:104AE0000224DBB200950194FCF73CFE7CBD012062
:104AF0007CBD0000FED6FFFFF8B505461D48854287
:104B000023D0461C002921D001292BD002291CD1F9
:104B10000121284600F0A4FF002816D12846FFF7FF
:104B2000B5F9040011D0A078FF280ED0FE2807D0D8
:104B300000200090E0781E2314222946FFF7CEF9CA
:104B40002046FFF75FFBFF20A070F8BD2846FFF767
:104B50009DF90028F9D13046FFF798F90028F4D0E4
:104B60000580F8BD2846FFF791F90400F9D02680AA
:104B7000D9E70000FEFF0000F3B50C468978C1B00C
:104B80001E2914D02E4D2878FF2829D0182927D87F
:104B90004808C2002B481218803A976F002F1FD088
:104BA000D06F00281CD02078002817D113E041983E
:104BB000FFF76CF905000BD000200090A378E8788F
:104BC00000224199FFF78AF906462846FFF71AFBAB
:104BD000304643B0F0BD6278012A03D1122901D0DA
:104BE0000620F6E702AE0096A3886178A268B8476F
:104BF0000028EED1A0784008C1001248081880387B
:104C0000C26F02A94198904700280FD0617800290F
:104C1000DFD1A27869460A7008716846018941802F
:104C200069464198FBF7C8FE0020D2E7A378042B21
:104C3000CFD00096002228784199FFF74FF9C8E7B6
:104C40001C76FF1F7478021100B50346FDF7E4F8E7
:104C5000002803D0C018401E80B200BD184600BD19
:104C600010B5040008D02078FF2805D0FE2803D016
:104C7000FBF746FBFF20207010BD0000F7B506468D
:104C80000F461020FBF728FA05461020FBF724FA00
:104C90000446002D3AD0002C2DD010220021FBF725
:104CA000DFF92A462146304601F0F2FA060023D108
:104CB0002878000604D43946284600F0E3FD08E0D1
:104CC0002146284600F0DEFD3A461149204602F012
:104CD00063FD3878000604D43846029900F0D2FD0E
:104CE0000AE02146384600F0CDFD09492046029AE7
:104CF00002F052FD00E013262846FBF7FFF9002CD6
:104D000002D02046FBF7FAF93046FEBD1326F6E73F
:104D1000FE780211F8B5069800271D4614460E4687
:104D2000002801D00B20F8BD30780021022801D0E6
:104D300019804DE070680278407800021018152242
:104D400080B25202801A0300FBF784F90504121F97
:104D50001A254100F068FBF7F5F9C2B207988242C4
:104D600000D902462A80F1682046FBF761F930E05D
:104D7000F0680221008829802070000A607028E015
:104D8000062028800246F168EEE701202880F068BE
:104D9000007820701DE0F068002816D008212980D6
:104DA000017821700188090A61708178A1704188B9
:104DB000090AE170017921718188090A617181799B
:104DC000A171C088000AE07103E0298001E0298018
:104DD00001273846F8BD10B50B78840702D50224A8
:104DE000234301E0FD2423400B7003070B7802D519
:104DF0000824234301E0F72423400B7083060B783B
:104E000002D52024234301E0DF2423400B700A2134
:104E1000084201D1810603D510780C21084304E033
:104E2000002803D11078F3210840107010BD000055
:104E3000FFB581B0087800240A9E1F460D4602285F
:104E40000FD168680178407800020818152180B2F7
:104E50004902401A09D0012829D0022848D0032845
:104E60003CD00124204605B0F0BDE868FBF76AF9A4
:104E7000C0B2864205D8F0190090152803D90D2438
:104E8000F0E70724EEE7E8683A4680190399FBF754
:104E9000CFF80098EA6880B2002111541C4840689D
:104EA0000028DFD001680029DCD0002012E0002EAD
:104EB00012D1022BE3D10399E8680A7849780902F4
:104EC00051180180124840680028CBD001680029A1
:104ED000C8D001208847C5E70B24C3E7002EFBD1CB
:104EE000062BCCD10622E8680399FBF7A1F8B9E7B5
:104EF000002EF1D1012BC2D103980078002803D0F5
:104F0000012801D08024ADE7E9680870AAE7000015
:104F10003071FF1FF8B507461C4615460E46122095
:104F2000FBF7F4F90C204743124838184168490848
:104F30004900416041680722120391433203114343
:104F400041604168FF22013291432A0211434160CE
:104F500041681022914322011143416041680122BE
:104F6000D20711434160002211461220FBF7D4F909
:104F7000F8BD000000E0004070B504460D460A3060
:104F8000C1B22846FBF7CEF90C2005496043401812
:104F900041680122114341600248055570BD00007F
:104FA00000E00040F470FF1F10B5914215D80C23AB
:104FB00058430A4BC018446801231B049C434460B7
:104FC00084680904A4B20C4384608168090C090454
:104FD0001143816041681943416010BD00E0004009
:104FE00010B5094C206800280CD11220FBF73AF9C3
:104FF0000648026801210A430260026810231A432E
:105000000260216010BD0000F070FF1F00E0004052
:1050100070B505460D4885420CD00D4C01290AD0CB
:10502000022905D10121284600F01AFD002802D0EE
:105030000020607070BD06492846891CFCF77AFB89
:1050400060780028F6D0FBF773F970BDFEFF000012
:105050007C72FF1F08B509488368002B0CD01A78B2
:10506000694601205B1CFDF7FCFF002804D0007896
:10507000C00701D0012008BD002008BDF475FF1F46
:1050800010B503460B4A00200A214143891849887C
:10509000002905D0401CC0B20328F5D3002010BD64
:1050A0000A21002441435454044640348818448063
:1050B000037210BDA89BFF1F0A7802700A88120AAB
:1050C00042708A7882704A88120AC2700A79027124
:1050D0008A88120A42718A798271C988090AC17163
:1050E00008207047F8B505460C4648680421FBF7D0
:1050F00059F8217A017021890346401C090A017080
:10510000217841702188090A8170207A001DC2B27D
:10511000FB2A36D81C48854215D114461E460C2061
:10512000FBF716F801000CD09020087002200871DF
:105130004D808E601548CC800078FAF7E5FF002797
:105140001DE013271BE05C201149684344182646E4
:105150004036307E002806D008465C30416A07277A
:10516000491C41620BE02146284600F095F90746AC
:10517000307E002803D121462846FBF7DFF8384669
:10518000F8BD0220F8BD0000FEFF00003976FF1FC9
:10519000249CFF1F10B50A4A00210A234B439B1889
:1051A0005C88002C06D01B79834203D10A2041433E
:1051B000881810BD491CC9B20329EED3002010BDC8
:1051C000A89BFF1F002141800170704770477CB58C
:1051D00004000FD0608800280CD0002500950195B0
:1051E0001323E188207A172200F028F8FF2060724C
:1051F000658025707CBDF8B5074615460E46102023
:10520000FAF7A6FF040017D0A020207000206070DD
:105210006680002D05D00C222946201DFAF708FFD4
:1052200004E00C220021201DFAF71AFF214638461F
:10523000FAF76AFF0020F8BD0120F8BDFFB581B084
:105240001E46174614200B9DFAF782FF04001AD061
:10525000A22020706770029860800A9820716671A1
:10526000002D06D020460C2229460830FAF7E0FE31
:1052700005E020460C2200210830FAF7F1FE214615
:105280000198FAF741FF05B0F0BD022A1CD34B7814
:105290000A781B02D21892B20280012A02D0022A96
:1052A00006D00FE08A78C97809025118418009E0D8
:1052B000CB788A781B02D21842800A794979090290
:1052C000511881800020704701207047F8B50646CC
:1052D0004D88002070600A790C46022A12D02901FC
:1052E00060480091415A002906D0009B1F18BB68F6
:1052F000002B01D0012A7DD05A486C304169491CED
:105300004161A9E0E288042A43D3A0684378017888
:105310001B02C91889B20091C37881781B02C91891
:105320008FB2017AC079000208184F49488000996D
:10533000091D8A4220D1072F13D0052F11D0042F29
:1053400002D0062F25D10CE046482901405A0028FA
:1053500007D02846FCF79AFE42486C300169491C88
:1053600001610098308137800321C943A068FAF7B2
:1053700019FF70600020F8BD072F18D0052F16D038
:10538000042F07D0062F12D036486C30C168491C54
:10539000C16064E033482901405A002807D02846FC
:1053A000FCF774FE2F486C300169491C01612D49DE
:1053B0002D01002048536E180098B081B7800098E6
:1053C000FCF7C8FEB060002818D00321C943A068CC
:1053D000FAF7E8FEE2880146224F121FB068FAF79A
:1053E00027FE785BE1884018001F785338466C3000
:1053F000016800E008E0491C016030E019486C30A9
:105400008169491C81612AE0E2888918009A89B281
:105410008152BA8991421AD80546B868E288401884
:10542000801AA168FAF704FE0098295AB8898142C7
:1054300015D13081B8883080B8687060009900203C
:10544000685208486C304168491C416007E00548D3
:105450006C308168491C81602846FCF717FE0120EA
:10546000F8BD0000149CFF1F4A76FF1F022A01D0DE
:10547000012070470A7849780902511801800020FC
:1054800070470A7802704A7842708A78C9780902AF
:105490005118418070470000FFB50C4607463D4952
:1054A000A1208000096878434018FF30C130067E93
:1054B00089B015463846FBF7D3FA001DB04204D236
:1054C0003846FBF7CDFA001DC6B2B54207D82A46CA
:1054D000002138460C9BFAF737FF0DB0F0BD31467E
:1054E0002846FAF78FFE2746403738740C996165D5
:1054F00001467143691AC9B202910C99049102994B
:10550000002901D0401C3874002523E002990029AD
:1055100004D0401EA84201D1084600E03046E90010
:10552000059103916054FCF749FD039909194860FE
:1055300000281BD00599625C0499FAF779FD05985B
:10554000215C0498081804901348C169491C6D1C1B
:10555000EDB2C161387CA842D8D8606D002803D074
:10556000FAF714FE002060650020B6E700203874CA
:105570000646606506E0F00000194068FAF706FE8E
:10558000761CF6B2AE42F6D30348C16A491CC1622A
:105590001320A2E73409FF1F809CFF1FF7B586B0D8
:1055A00016460D464878FFF7F5FD040010D0002799
:1055B00027712878012802D0132809D105E06A88CC
:1055C000314602A8FFF761FE0AE02078032802D0E6
:1055D000002009B0F0BD6A88314602A8FFF746FFF7
:1055E0000646204600F046F902A8019000972B7865
:1055F000207A32460699FFF721FE2046FFF7E2FDAA
:105600003046E6E7FEB50446468801466846FFF7A1
:105610005DFE0546019800282FD0684600880528C1
:1056200006D0042809D0062807D0072805D026E090
:105630006946304600F030F821E08100154808182E
:1056400001464039098E002919D02038807C6A46ED
:105650003146FFF7D0FD002811D1684600880428A4
:1056600003D001213046FCF7ADFC012D04D1A06828
:10567000002801D0FAF78AFDFEBD012D04D1A068F3
:10568000002801D0FAF782FD01213046FCF79AFC90
:10569000FEBD0000989BFF1F30B50546088987B006
:1056A0000C46042817D302A86168FFF7EAFE684693
:1056B0004089172837D82189001D81421ED16846AC
:1056C000007AC10709D0626802A92846121DFFF7B7
:1056D00065FF002812D107B030BD6168091D12288E
:1056E00005D0002069460880497A6A4622E068466B
:1056F000428903A8FCF796FC002803D02846FFF750
:1057000065FDE8E70D4881880029E4D06946497ABB
:1057100003AA0192009169460B7A807900222946FA
:10572000FFF78CFDD7E701216846018017214180F2
:10573000417A6A462846FCF729FCCCE7989BFF1F74
:1057400070B5144C00262680A681A680A068354638
:10575000002802D0FAF71AFDA5600E4C103420463E
:105760004030057445740576606D002802D0FAF764
:105770000DFD65655C20002546433419E8002018BE
:105780004068002801D0FAF701FD6D1C0A2DF5DBF9
:1057900070BD0000149CFF1FFFB589B015460E4672
:1057A0001720129FFCF7D6FC040021D06846067033
:1057B0004570002F03D0201D0C99B84700E0002051
:1057C00069464880267065704888A070010AE170BB
:1057D000052269468A82001D0694888305A90998D6
:1057E000FFF780FC050004D02046FAF7CFFC00E06C
:1057F000132528460DB0F0BDFFB581B01E46054605
:1058000001210A9F0B9C00F02BF9002811D02046A3
:10581000FFF736FC00280AD0C580044607701248FE
:105820004178491C0A06120E427004D005E0152585
:105830000FE014250DE001224270227100962846E7
:10584000039B0299FFF7A8FF050005D02046FFF74C
:10585000B9FC284605B0F0BD23462146034A09336A
:105860000348FAF777FDF4E74A76FF1F307500002A
:10587000CF51021110B50446407AFAF741FDFF20DE
:10588000607210BD10B500240F22835C5B002343BF
:105890008B54835C521EDC0952B2002AF5DA10BD2B
:1058A000FFB581B01E4617460D46084600F04AF87F
:1058B000002802D0112005B0F0BD0E4800F042F8DB
:1058C000040015D00A98A0710622E01D0B99FAF782
:1058D000AFFB6580277166710198207000206062BF
:1058E0000C98E0810021284600F0B8FA0020E2E799
:1058F0001520E0E7FFFF000070B514460D46064690
:1059000000F020F800280BD0416A007900290CD063
:10591000C20611D580070AD4002C08D0052070BD1E
:10592000074886420AD0142070BDC006F6D5887E8E
:10593000A84203D20C2070BD0F2070BD002070BDA6
:10594000FEFF0000084A002128234B439B185B8878
:10595000834203D12820414388187047491C090617
:10596000090EF1D000207047C89BFF1F30B50B4CCB
:105970000B4B002128224A43D5186D88A54206D03A
:105980009A5C824203D128204143C81830BD491C8B
:105990000906090EEED0002030BD0000FFFF000018
:1059A000C89BFF1F10B500200B4C0C4B0146282252
:1059B0004243D2185480401C117100065162000EFF
:1059C000F5D0064A002028328300401CC0B2D150D6
:1059D0000528F9D310BD0000FFFF0000C89BFF1F82
:1059E0000020074A014628234B439B181B79002BB4
:1059F00001D0401CC0B2491C0906090EF3D0704703
:105A0000C89BFF1F074A00218B00D358002B05D0ED
:105A1000491CC9B20529F7D313207047890050509B
:105A200000207047F09BFF1F10B5FFF78BFF0400AD
:105A300013D06088012100F011FA606A002801D0BB
:105A4000FAF75CFB282200212046FAF709FB002028
:105A5000C04360800020207110BD022010BD0000F6
:105A600010B50C460649884206D0FFF76BFF0028A8
:105A700004D00079204201D0012010BD002010BDCB
:105A8000FEFF00000748416B0806020F06484270FF
:105A90000A05120F82700A0B0902C270090F017108
:105AA0007047000000F000403599FF1F097A02207E
:105AB000C90600D508207047FEB515460A7A0024AD
:105AC000089E920601D50820FEBD0A78022A0AD057
:105AD00048891349498D884203D1D9B2284600F03C
