:020000041102E7
:1000000003B40148019001BDADAE000003B4014846
:10001000019001BD456B010003B40148019001BD91
:100020000189000003B40148019001BDC53F0000F3
:1000300003B40148019001BDE94C010003B401483B
:10004000019001BDC95C010003B40148019001BDEC
:10005000CD4C010003B40148019001BD618900004D
:1000600003B40148019001BD154D010003B40148DE
:10007000019001BDF54E010003B40148019001BD9E
:10008000434D010003B40148019001BD2526000045
:1000900003B40148019001BD8B52010003B4014833
:1000A000019001BDB352010003B40148019001BDAC
:1000B0000D52010003B40148019001BDC94A01007D
:1000C00003B40148019001BD691F000003B4014859
:1000D000019001BD5D17000003B40148019001BD0E
:1000E0003D4B010003B40148019001BD595201008C
:1000F00003B40148019001BD5125000003B401483B
:10010000019001BD014C010003B40148019001BD03
:10011000594F010003B40148019001BD1D4B01007E
:1001200003B40148019001BD8D12000003B40148E1
:10013000019001BD4D1F000003B40148019001BDB5
:100140005522000003B40148019001BDDD520100B9
:1001500003B40148019001BD1D4D010003B40148E5
:10016000019001BD810E000003B40148019001BD62
:10017000017F000003B40148019001BDE1170000B8
:1001800003B40148019001BD7918000003B401488F
:10019000019001BDD949010003B40148019001BD9E
:1001A000E928000003B40148019001BD5549010050
:1001B00003B40148019001BD0957FF1F03B4014872
:1001C000019001BDB936FF1F03B40148019001BD84
:1001D000015BFF1F03B40148019001BDCD36FF1F35
:1001E00003B40148019001BDF554FF1F03B4014859
:1001F000019001BD255AFF1F03B40148019001BDC4
:100200005154FF1F03B40148019001BD090E0000C5
:1002100003B40148019001BD5167FF1F03B40148B9
:10022000019001BDAD3EFF1F03B40148019001BD27
:10023000395DFF1F03B40148019001BD5F29FF1F15
:1002400003B40148019001BD4529FF1F03B40148D3
:10025000019001BD6767FF1F03B40148019001BD14
:100260006129FF1F03B40148019001BDCD2DFF1F7F
:1002700003B40148019001BDCD59FF1F03B40148EB
:10028000019001BD4551010003B40148019001BD39
:10029000C926000003B40148019001BD694CFF1F4D
:1002A00003B40148019001BDB527FF1F03B4014805
:1002B000019001BD1DBC000003B40148019001BDC7
:1002C0006DBC000003B40148019001BD355500002C
:1002D00003B40148019001BDC51D000003B40148ED
:1002E000019001BDD95EFF1F03B40148019001BD1B
:1002F000755EFF1F03B40148019001BDF94C010078
:1003000003B40148019001BDC521000003B40148B8
:10031000019001BD291C000003B40148019001BDFA
:10032000851F000003B40148019001BD1147010081
:1003300003B40148019001BD014BFF1F03B4014804
:10034000019001BD955AFF1F03B40148019001BD02
:100350005D53FF1F03B40148019001BD155DFF1FF0
:1003600003B40148019001BD3327FF1F03B40148C6
:10037000019001BD0D27FF1F03B40148019001BD8D
:10038000A946010003B40148019001BDB13E00003F
:1003900003B40148019001BD2124000003B40148C9
:1003A000019001BDF936FF1F03B40148019001BD62
:1003B000C90E000003B40148019001BD055E0000B4
:1003C00003B40148019001BDE548000003B40148B1
:1003D000019001BD2951010003B40148019001BD04
:1003E000D91B000003B40148019001BDCD27FF1FB8
:1003F00003B40148019001BDF527FF1F03B4014874
:10040000019001BD51470100F8B5D349D14A002000
:1004100004464A608300401CD450FF28FADD486837
:10042000CE4A014680318A606E22C262CC4A12787E
:10043000002A01D07F22C2620A220265C94A1378CB
:100440008363C94BC36115781023022D08D015783A
:10045000012D05D01578032D02D01578042D00D17B
:100460000362C24D45611925AD0185613725CD6017
:1004700036272826C7630825466405644F6032275F
:100480000F603B27CF634127CF6439274031E0C15C
:1004900032274F6002274F6142270831E0C11E27F3
:1004A0004F60CE608D6005264E6142260E615A2651
:1004B00060390E614D613C258D61AF25ED00056011
:1004C000AB4D05631578022D09D01578012D08D0A4
:1004D0001578032D07D01578042D06D007E01525D3
:1004E00004E0436003E00E2500E00C254560FF2595
:1004F0002D358560C560FF25F53505619D4D856409
:100500007D25ED009C4ECD67C66445629B4D85629E
:100510007325C565062545658565C51D0826F9351C
:1005200002272E6047664B27FF0087660927C766AC
:10053000934F07674667BE108467C667914F8E4E1C
:100540003E601678022E09D01678012E0AD0167851
:10055000032E0BD01278042A0CD00EE01A22CA61A6
:10056000212205E01422CA61182201E01322CB6186
:100570000A6202E00E220B62CA617E4A8A627D2212
:10058000D2008A6764224A620522CA6202220A6392
:10059000C8228C634A63382169607B4929647B499E
:1005A000A9614B21C900E9617349FF3064392962AF
:1005B0007D2109016962EC661E212C67A9667049DC
:1005C000A965E96589102966696469677049A96741
:1005D0007049714A8130E967026082604160FF21A1
:1005E000F531C16001616E486C495A4A81606D49BC
:1005F000803A11616A496C4A80318A626B4ACA62E8
:100600006B4A82616B4AC2626B4A02636B4A6448FE
:100610004038C2636A4ACA616A49816360496A486C
:10062000403188616A49694888605D48694A803814
:100630004260694A4263694A0A626949816058496D
:100640006848C039C860FFF7DBFC0120FFF7DEFC1B
:10065000F8BDF3B50746644881B0C169634A1140EB
:10066000FF310931C161002613E000252C4611201D
:10067000FFF7D2FC5C48406A8007800F6100884029
:100680002843641CE4B20546102CF0D301C7761C45
:10069000F6B202988642E8D3FEBD10B52E4C6078C3
:1006A00000280AD104215248FFF7D3FF5048042103
:1006B0001030FFF7CEFF0120607010BDF0B50024B0
:1006C0008BB00D460646102902D901200BB0F0BDB3
:1006D000FFF7E3FF464900200A5C401C1419C0B232
:1006E0001028F9D3002C03D0102D03D90B20EDE7EF
:1006F0000E20EBE73F483E4C0023006802A910346F
:10070000E25CC75C7A40CA545B1CDBB2102BF7D3A7
:1007100006AA3748FFF786FC102D00D910252A4677
:1007200006A93046FFF784FCFFF788FC21684018D3
:100730002060FFF783FC616840186060FFF77EFC73
:10074000A1684018A060FFF779FCE1684018E060FC
:100750000020BBE70004FF1F0C7CFF1F88C3FF1FA6
:100760008877FF1F4A0AFF1F3A07000080C3C901AC
:100770009A02000050C30000280A00006A18000016
:10078000204E0000F009FF1F00400011681000001B
:10079000DC05000040420F00102700007963FF1FB6
:1007A0000001FF1F8931FF1F4968FF1F216BFF1FD9
:1007B000F12DFF1F852FFF1F0D2EFF1FC13EFF1FB5
:1007C0009574FF1FB972FF1F8D27FF1F4135FF1F53
:1007D0000002FF1FF15FFF1FCD61FF1F1161FF1FAF
:1007E000AD5FFF1F7135FF1F40F0004000FEFEFFB0
:1007F0000CA2FF1F307CFF1F0A7802708A784270BB
:100800004A88120A82700979C170042070470A78F8
:1008100002700988090A41700220704710B5002251
:100820000EE093005B189C7804705C88521C240ACC
:1008300044701C7984709B88D2B21B0AC370001D5F
:100840000B789342EDD81806800D10BDF8B50D4613
:1008500006464978012031700024761C16E069783C
:10086000012917D01221614349198A7832704A88C8
:10087000871C120A7270B61C10223046091DFFF741
:10088000D7FB1037B8B21036641CE4B22978A14205
:10089000E5D8F8BDA10049198A7832704A88871CCA
:1008A000120A7270B61C02223046091DFFF7C0FB07
:1008B000BF1CB8B2B61CE7E710B50C46097801704A
:1008C0002188090A41706288211D801CFFF7B0FB56
:1008D0006088801C80B210BD10B50C46097801708C
:1008E0002188090A4170A17881706188090AC17064
:1008F000A288A11D001DFFF79BFBA088001D80B2F0
:1009000010BD10B50C460A88891CFFF791FB2088A2
:1009100010BD10B50B788A7802705343DCB22246C2
:10092000401C091DFFF784FB601C10BD10B50B783F
:100930008A7802705343DCB22246401C091DFFF73F
:1009400077FB601C10BD10B50C460A88891CFFF7A8
:100950006FFB208810BD10B50C460A88891CFFF774
:1009600067FB208810BD7FB515460446022901D0DB
:10097000102903D1022B04D0102B02D0002004B088
:1009800070BD994202D10A46294607E010296946FE
:1009900007D000F00DF8102269462846FFF754FBF7
:1009A000EDE7104600F004F8102269462046F5E70E
:1009B00070B50C4605000CD0002C0AD01022064958
:1009C0002046FFF735FB2878207368786073012094
:1009D00070BD002070BD00002481021110B50B46CF
:1009E0000122024902F0B4FB10BD0000F907021118
:1009F00070B5064608880C46172812D30B4603220A
:100A00000949304602F0A4FB050008D107492088B7
:100A10000988884200D20146304600F0B7F92846DE
:100A200070BD022070BD00000F0802113E7CFF1F48
:100A300010B500231922194602F08AFB10BD0000F0
:100A400010B50A78002A05D00B460722024902F0A9
:100A50007FFB10BD022010BD1D08021110B54A78A1
:100A6000012A01D0022A08D10A78002A05D00B46B3
:100A70000522034902F06CFB10BD022010BD0000EE
:100A80004D08021101494000085A70473C7CFF1F85
:100A900010B50B461B22024902F05AFB10BD0000A4
:100AA000B908021101491720088070473C7CFF1FDC
:100AB0000098022B01D0042070471178527812025E
:100AC00089180180002070470098012B01D0042074
:100AD0007047117801700020704770B5049C1E4665
:100AE0001546062B1BD36978287809024018208008
:100AF000E978A87809024018608002222271291D35
:100B0000601DFFF795FAB61FB2B22281F02A06D80F
:100B10002046A91D0A30FFF78BFA002070BD042083
:100B200070BD0098042B01D00420704753781178D1
:100B30001B02C91801809178D2781202891841806D
:100B400000207047F8B584890D460646002C26D053
:100B5000B2681778380620D50C2C20D90C3CA4B2EA
:100B60001019009001217088234602F01FF9002817
:100B700011D0022028707806C00F6870B806800E69
:100B8000A870641E2004000CA88001D0B068401C2E
:100B9000A8600020F8BD0120ECE70020EAE7012072
:100BA000F8BD10B502981146042B14D34C780A787E
:100BB000240212190280CC788A7824021219428009
:100BC0001B1F9AB28280F22A05D8801D091DFFF7EB
:100BD0002FFA002010BD042010BD0098042B01D076
:100BE00004207047537811781B02C918018091784E
:100BF000D2781202891841800020704710B50298FF
:100C00001146062B03D0142B03D0042010BD022262
:100C100000E0102202714B780A781B02D218028081
:100C2000CB788A781B02D21842800279401D091DB8
:100C3000FFF7FEF9002010BD30B5039CD80718D18E
:100C4000D805010E022914D30B488088814210D8A0
:100C5000F6200155002008E0557813782D025B1925
:100C60004500401C6353C0B2921C8842F4D300205C
:100C700030BD042030BD0000367CFF1F0098022BE1
:100C800001D004207047117852781202891801802F
:100C90000020704770B5144602460498022B18D302
:100CA000667825783602AD1905800546E0352A7646
:100CB0006976002A0BD0E8219B1E9AB242808A42B4
:100CC00007D8A11C001DFFF7B3F9002070BDF42167
:100CD000F2E7042070BD000010B50B461722024950
:100CE00002F036FA10BD0000D908021110B50B460B
:100CF0000D22024902F02CFA10BD00000309021176
:100D000010B50A78002A05D00B461122024902F0DC
:100D10001FFA10BD022010BD1309021110B50A7888
:100D2000002A05D00B460922024902F011FA10BD33
:100D3000022010BD2D09021110B50B460F220249E9
:100D400002F006FA10BD00004709021110B50B466B
:100D50000B22024902F0FCF910BD000057090211F4
:100D6000F72800D9F720084A01461080401EC31713
:100D70009B0F18188003000C5080491EC80F4018A4
:100D8000C003000C90807047367CFF1F044A128815
:100D9000914203D8024A4000921D11527047000050
:100DA000367CFF1F10B500231322194602F0D0F93C
:100DB00010BD000070B50C460146032000020A1A5F
:100DC000002534481300FFF745F91D1012151C1FAC
:100DD0002326282C303234383A3C3E4042444648A0
:100DE0004A4E50525A5456585A00C07911E01022B7
:100DF000294902E02849102210312046FFF718F94E
:100E000045E0C06A206042E0224906223C31F4E716
:100E1000007820703BE0808936E01E4942784231FC
:100E2000EBE71D4982781F39E7E7007AF1E7407A5E
:100E3000EFE7184906223031DFE7807AE9E7C07A28
:100E4000E7E7C08920E0808A1EE0C0781CE0C08A05
:100E50001AE0008B18E0408B16E0808B14E00D49FF
:100E600006223631C9E7C08B0EE0008C0CE0408CC6
:100E70000AE08079CDE7008A06E0408A04E027296D
:100E800004D2084600F078FA208000E002252846C7
:100E900070BD00007478FF1F819CFF1F70B50E4C61
:100EA00000256071A571691EE18100F095FB0420A9
:100EB000E071102200210948FFF7D2F807481022FC
:100EC00000211030FFF7CCF8E5622572657207202B
:100ED000A072E57270BD00007478FF1F819CFF1F37
:100EE000FEB53B4D0C4608040CD56879FFF7BEF8FB
:100EF000050004D002F0D2FE2846FFF7BDF801201D
:100F0000C00360E0600403D5012080034840FEBDBB
:100F10002F48E1070126807900292AD02978002965
:100F200020D0052821D0297A68460170697A41705D
:100F3000274906223031801CFFF77AF8A97A6846E3
:100F40000172E97A41726946687900F031FA002845
:100F500008D00720A871696A002903D00968002910
:100F600000D0884720467040FEBD032069460870C7
:100F7000E4E7A1070DD5052809D1E889FFF782F834
:100F8000AA8A002A03D002216879FFF781F802209B
:100F900019E0600704D5002002F0D8FE042012E01A
:100FA000200712D52879012802D002280AD107E0AB
:100FB0000096AB8B6A8B298BE88A00F00BF801E076
:100FC00000F05AF908206040FEBD0020FEBD000080
:100FD0007478FF1FF8B5134C069EA579052D01D036
:100FE0001420F8BD104F851FBD4219D2062917D312
:100FF000BD1DA94214D2FF27F537BA4210D20A2BE1
:101000000ED3AB420CD2E08221836283A3833046AD
:1010100002F09CFE04216079FFF740F80020F8BD43
:101020001820F8BD7478FF1F7A0C0000F7B50D4644
:1010300080490098164642187F4F00247879B97984
:101040001300FFF707F8190E141BE92040455970EB
:10105000777E888FE996A2A9B4BFC8E9E9E9E9D308
:10106000E900102D76D11022314674486FE0102D22
:1010700070D1724810223146103068E0042D69D1D9
:101080003068F862CEE0012D64D13B7832783A7056
:10109000002B0AD0002A07D1022903D0062901D04B
:1010A000042901D100F03EF9BCE0002A0AD0012950
:1010B00005D0032903D0052901D0042902D101213B
:1010C000FEF7F2FFAEE0022D44D13088B881A9E0EE
:1010D0001F2D3FD858481F2200214230FEF7C0FF85
:1010E00055482A4631464230FEF7A2FF524B7D70EA
:1010F00042332A46012112E01F2D7CD84F481F227F
:1011000000211F38FEF7ACFF4C482A4631461F38F5
:10111000FEF78EFF494B2A461F3BBD7000217879B0
:1011200000F0D0FA83E0012D65D13078042862D830
:10113000387277E0012D5ED1307803285BD8787261
:1011400070E0062D57D13C48062231463030FEF77C
:101150006FFF67E04FE0012D4DD1307807284AD866
:10116000B8725FE0012D46D13078032843D8F87279
:1011700058E0022D3FD13288BA82002A52D0052988
:1011800050D10221FEF784FF4CE0012D33D130789D
:10119000012830D8F87045E03088022D2BD1062880
:1011A00029D31921C901884225D8F8823AE030882C
:1011B000022D20D106281ED31921C90188421AD830
:1011C00038832FE03088022D15D1FF21F531884278
:1011D00011D2788326E03088022D0CD10A280AD358
:1011E0001921C901884206D8B8831BE03178012D46
:1011F00001D1012901D0182414E00821FEF75AFF7B
:10120000002801D016240DE0002002F09FFD0421EB
:101210007879FEF743FF05E00098272801D2022DD8
:1012200002D002242046FEBD318800F0FBF90446BE
:10123000F8E70000FFFCFFFF7478FF1F819CFF1F91
:101240001CB50B4CA179002901D011201CBD002830
:1012500000D06062064907482C3103460191009096
:10126000103B0022E179607900F016F800201CBDE7
:101270007478FF1F919CFF1F10B5064881790529DE
:1012800001D0122010BDC1891322407900F0DAF993
:1012900010BD00007478FF1FFFB581B01E460D46DB
:1012A00002240B9F0B00FEF7D5FE0D1A0B1A1A0B2A
:1012B0001A1A1A1A1A1A1A081A000AA001F086FF36
:1012C0002946019800F0D8F8040008D13A46304683
:1012D0000A9900F087F900F0EBF801F057FD20467D
:1012E00005B0F0BD4741505F446576696365496E5E
:1012F00069743A204741505F50524F46494C455F10
:1013000043454E5452414C207C204741505F50523F
:101310004F46494C455F5045524950484552414C13
:10132000200A000070B5104C2168002904D009780B
:10133000814203D0032070BD122070BD0B4D0221ED
:101340002878FEF7ABFE0A4800264680042128785C
:10135000FEF7A4FE0748068021680320487000209D
:10136000FEF7AEFE70BD0000A07CFF1FD17CFF1F0A
:10137000B47CFF1F467CFF1F272803D20249400090
:10138000085A7047014870474E7CFF1FFFFF00005E
:1013900010B5064C607004F049FC6078FEF796FECC
:1013A0000521607800F0BCFE10BD0000D07CFF1F5E
:1013B00070B5284E054630680C46002801D0112033
:1013C00070BD254801780520014216D02348806869
:1013D000002805D00078002802D0C80706D101E017
:1013E000102070BD00F044F8002808D020780328B1
:1013F00005D0022803D0002801D0122070BD0C2097
:10140000FEF76AFE3060002820D005700021417090
:101410000A222146801CFEF70BFE02F07BFD040031
:1014200002D001F06FFF12E00D48007803280ED1C2
:101430001D20FFF7A1FF0B490028088007D00B48AB
:10144000094A04210078FEF74DFE00E013242046EF
:1014500070BD0000A07CFF1F437CFF1FB47CFF1FFA
:10146000447CFF1F467CFF1F60EA0000D17CFF1F09
:1014700010B504F0F9FB10BD70B50C4605461C22F2
:1014800000210948FEF7ECFD084805704470FEF79E
:101490002FFE0549002803D000200870122070BDDF
:1014A00001220A7070BD00003CA2FF1F427CFF1F9A
:1014B00070B50F4C0025A068002802D0FEF71EFE74
:1014C000A560E068002802D0FEF718FEE560094834
:1014D00005210078084206D00548103002F0E4FAF1
:1014E00001F0B2FE70BD002002F0DEFA002070BDF7
:1014F000B47CFF1F437CFF1FFEB5344D0C4608042F
:1015000019D56878FEF7B2FD0121C9034C400646A3
:1015100000280ED002F0E8F9002807D12878FF282B
:1015200004D03146FEF7F0FD002802D03046FEF729
:10153000A3FD2046FEBDE007012700280AD0A868C9
:10154000002804D04168002901D0002088472046A7
:101550007840FEBDA00709D56868002804D041681E
:10156000002901D00120884702202AE060072AD5FF
:10157000174E308800281FD0401E0004000C308019
:101580001ED101F031FF002809D0124807706868A9
:10159000002804D04168002901D00120884701F0CB
:1015A000FDFE694601F04CFB684602F087F91D20FC
:1015B000FFF7E2FE308003E004216878FEF76EFD5D
:1015C00004206040FEBD0020FEBD0000D07CFF1F57
:1015D000467CFF1F457CFF1F0149087070470000D3
:1015E000D07CFF1F70B50E4C0B46261D07C6054666
:1015F000102200211846FEF78DFD012803D110218D
:10160000A06805F01FFB102200212846FEF782FD8E
:10161000012803D11021606805F014FB70BD0000A3
:101620003CA2FF1F272807D2044A914204D0044A53
:10163000400011520020704702207047FFFF000059
:101640004E7CFF1FF8B50D4617461D4906461B4A3E
:101650001224C868954208D100282DD00268002ABB
:101660002AD029463046904723E0144A521C95421E
:1016700013D1002807D00268002A04D0294630463A
:101680009047040005D03946304601F0B7FD04000C
:1016900012D10B48067047700EE0284604F096FA07
:1016A000002809D00078B04205D139462846FEF717
:1016B00037FD044600E003242046F8BDFEFF00008D
:1016C000A47CFF1FF8B50E46014619481546007860
:1016D00005221F46104028D0304326D01548012E41
:1016E0001BD0C468002C20D01F2D18D8002D01D08D
:1016F000002F14D001701F220021601CFEF7B0FCE7
:101700002A463946601CFEF793FC28462570002EB9
:1017100007D0611CFEF70AFDF8BD8468E2E70220ED
:10172000F8BD611CFEF708FDF8BD1220F8BD0000F1
:10173000437CFF1FB47CFF1F014610B50020C90782
:1017400004D0034A0421034800F0A6F910BD0000AC
:101750008C800211F878FF1F70B50F4D0F4CA870E8
:1017600029461831204600F01DF8002128460B4676
:101770001030CA0084521218491C09065360090E21
:10178000F7D0012003F0A6FAA87800F023FB044864
:1017900004F07CFA70BD0000D878FF1FFFFF000046
:1017A0000D45021170B50A4C0025A04209D1002058
:1017B00082008C525218401CC0B295700228F7D398
:1017C00070BD02F072FE0028FAD00480857070BDF2
:1017D000FFFF0000F8B50E4607460699002407985B
:1017E000002902D00B242046F8BD022B01D00D2485
:1017F000F9E711785278120289188DB2294681438F
:1018000001D08024EFE73846F16800F03DF9A842A6
:10181000E9D02A463846F16800F0A8F90400E2D180
:1018200071892A46384600F065F9DCE770B50C4648
:10183000080412D50A488078FEF718FC050008D085
:101840002878B02802D1284602F04CFF2846FEF73F
:1018500013FC0120C003604070BD002070BD00007B
:10186000D878FF1FFFB587B0087A0025109E1C4668
:101870000F46C0060DD5099802F010FE030006D0F1
:101880000A22394607989847050035D101E00E2510
:1018900032E0387802281DD1786829220178407812
:1018A00012020002081880B2811A90427ED009DC30
:1018B0007249401A23D0012821D0022851D0032890
:1018C00008D125E0012972D0022971D003296DD0F9
:1018D00004296ED0099802F009FE0028D7D00568C7
:1018E000002DD4D0129911980191009033462246D0
:1018F00039460798A847054628460BB0F0BD119811
:10190000002873D1F868017831800278416897E047
:10191000119800286AD101203080F86800210078F1
:1019200020707889401C80B200F04EF900280FD05A
:10193000318802788918891C3180817A61704189E7
:10194000090AA17002784168E01CFEF771FBD3E739
:1019500030880422001D30800021601CFEF780FBCF
:10196000CAE71198002872D1F86804A9008800908D
:1019700004203080009820700098000A6070009861
:1019800000F022F9070028D0F86805906846028A1E
:1019900003AB3B49384600F06FF900280FD13B7884
:1019A000022138487A68FEF7DEFF03E027E031E0E5
:1019B0001DE049E0002802D1401E69468881059853
:1019C000007802280CD1059802224168201DFEF7FC
:1019D0002FFB3088801C308002E0694600988881A7
:1019E00068468089A070000AE07085E72FE01198B2
:1019F00000282CD1F968079800F046F804E0119807
:101A0000002824D1F8680088022131802070000A63
:101A1000607071E7F868FEF795FB1199C0B28142DA
:101A200010D8814201D1002206E0129A8918814221
:101A300002D31199401AC2B23280F968119809187C
:101A4000204682E7072557E71198002801D00B258B
:101A500052E70721F8683180017821704178617080
:101A60008178A1704188090AE17001792171817939
:101A70006171C088000AA0713EE7000000280000E4
:101A8000FFFF00009A81021110B502F00EFD002840
:101A900000D0807810BD00007CB51446050019D038
:101AA00068460195018000F09BF903001DD1002CD0
:101AB0001BD06D89002D0DD00C20FEF70DFB0028EA
:101AC0000AD0002303608580094A84609168002958
:101AD00004D006E0022308E0132306E0906004E04F
:101AE00011460A68002AFBD1086018467CBD000038
:101AF000D878FF1FF8B50C4C0746207815460E46DF
:101B0000FF280FD00A20FEF723FB01000AD0B120E6
:101B100008700020487008714F80CE800D812078B9
:101B2000FEF7F2FAF8BD0000D878FF1FFFB583B0CA
:101B300008461F4601A90C9E00F046F8050012D089
:101B40006846808802F0D2FC00280AD04468002C45
:101B500007D000963B462946059A0398A04707B050
:101B6000F0BD0E20FBE70120F9E7000070B5144638
:101B70000E46054602F099FC002806D1314605487C
:101B800002F093FC002803D005808470002070BD13
:101B9000112070BDFFFF000010B50178B0290BD1F6
:101BA0004178002908D10179122906D01B2903D1D7
:101BB0004088012100F03EFA10BDFF210231095C8E
:101BC0000129F5D010BD0000F0B58C4610494B68D6
:101BD00019E09F687C89A04214D39E883119814204
:101BE00010D900220CE011017D186989814205D1CC
:101BF0006046002800D004802846F0BD521C92B2F6
:101C00009642F0D81B68002BE3D10020F0BD000005
:101C1000DC7CFF1FFFB5174881B00A9F446824E0B1
:101C200000251EE0A06829014618708901998842A4
:101C300015D30299884212D80498002807D0317829
:101C40007068049B039AFEF78EFE002807D0002FD1
:101C500002D0A06840893880304605B0F0BD6D1CC8
:101C6000ADB2A088A842DDD82468002CD8D10020CD
:101C7000F3E70000DC7CFF1FFEB5174600256A462F
:101C80009580044640891D4A1E46904208D001AA0C
:101C90000092401C237880B26268FFF7BBFF0546C4
:101CA0002378022116486268FEF75DFE002807D1FE
:101CB0002378022113486268FEF755FE002801D000
:101CC00060890EE0237802210F486268FEF74BFE20
:101CD00000280DD0002D03D068468088B84203D07C
:101CE000384603F0F5F804E06889401E80B200E051
:101CF0006089002E00D030802846FEBDFFFF000026
:101D0000988102119A8102119E81021110B5054934
:101D10000870042100F004FA00F006F8FEF7C2FE95
:101D200010BD0000EC7CFF1F70B50E4C00200C4B6A
:101D3000651CFF228100C91800280ED00D80401CB0
:101D4000CA70C0B28A700228F4D3074802F098FB28
:101D5000064803F09BFF002070BD0C80EFE70000F9
:101D6000E47CFF1FFEFF0000014E0211814D0211B5
:101D7000F8B50D4614460646694602F0DDF9172807
:101D80000CD0002C06D001221021304603F0F8FEC2
:101D9000002803D129463046FEF77AFEF8BD000040
:101DA00070B50C46080411D509480078FEF75EF9B5
:101DB000050007D00178A02901D102F005FB2846D3
:101DC000FEF75AF90120C003604070BD002070BDCD
:101DD000EC7CFF1F0149087070470000DC7CFF1F8E
:101DE00070B50546008800281DD068680221037878
:101DF00042682248FEF7B7FD002808D16868022132
:101E0000037842681E48FEF7AEFD00280BD01D4C3B
:101E10006088002805D0012229881204101A814206
:101E200003D9012070BD022070BD0C20FEF754F9CB
:101E3000060001D000200AE0132070BD02016B688B
:101E400061880A329952491C401C618080B22988FD
:101E50008142F3D80020306008222946301DFEF769
:101E6000E7F86068002802D1666004E0084601686F
:101E70000029FBD10660002070BD0000988102118E
:101E80009A810211DC7CFF1F0649496806E08A68D6
:101E90005289824201D18888704709680029F6D1A9
:101EA00000207047DC7CFF1F10B51422114201D0C6
:101EB000012202E04A0604D50022102103F060FE50
:101EC00010BDC80701D0002010BD022010BD10B504
:101ED00014468A0604D50122102103F051FE10BDDC
:101EE000882211420ED008220A40102103F048FE39
:101EF00000280BD0E034617E0029F0D0217E01293A
:101F0000EDD103E0880701D4032010BD002010BDEF
:101F1000014610B50020C90704D0034A0721034831
:101F2000FFF7BAFD10BD0000788002110078FF1F96
:101F300070B50D46164600241D490300FEF78AF8C9
:101F400008051234341934222934152D23D81622C9
:101F500000211848FEF784F82A4631461548FEF756
:101F600067F822E0022D16D1114910881039088037
:101F70001BE0082D0FD10E48082231460838FEF725
:101F8000EDF812E0012D06D1CA69094930782831EF
:101F900007E0012D01D0182407E0CA6B044930780E
:101FA000483103F05CF800E00224204670BD0000D8
:101FB0000078FF1F4C9CFF1F0B7803700B880222D8
:101FC0001B0A43700B88801C012B02D0022B07D008
:101FD00011E08A7802704988090A417004220AE0F7
:101FE0008A7802704A88120A42700A798270898857
:101FF000090AC170062210467047000008B5044B5C
:10200000009313460A46012103F00AFD08BD0000B3
:10201000B91F02111CB50323019200930A46024B1B
:10202000122103F02DFD1CBD4153021110B5FEF726
:102030009BF810BD13B504480078012803D101AA0C
:102040006946FEF797F81CBDF87CFF1F70B50F4975
:102050000F4A087000210B468C00491CC9B213536B
:102060000429F9D30A4C00211034FF260A460A2518
:102070006A4315196B80491CA354C9B26E720329B7
:10208000F4D3FEF77DF803F09FFC70BDF97CFF1FD1
:1020900058A2FF1F082A01D0012070474B780A7808
:1020A0001B02D2180280CB788A781B02D218428099
:1020B0004B790A791B02D21882808A79C979090280
:1020C0005118C1800020704770B50C46080411D526
:1020D00009480078FDF7CAFF050007D0017890296C
:1020E00001D103F0D3FB2846FDF7C6FF0120C00352
:1020F000604070BD002070BDF97CFF1F70B50028E6
:102100000AD1064C00252580A581A580A06800285D
:1021100002D0FEF73BF8A56070BD0000D4A2FF1FFF
:10212000072907D0052905D0042903D0062901D0A5
:1021300002207047044A8B009A181346403B1986C8
:10214000203A90740020704758A2FF1F70B5060017
:102150001BD10E4C0025214640310D744D740D7677
:10216000606D002802D0FEF711F865655C2000253F
:1021700046433419E80020184068002801D0FEF7D3
:1021800005F86D1CEDB20A2DF4D370BDE4A2FF1F5B
:1021900070B50A880C460546072A07D0052A05D0DF
:1021A000042A03D0062A01D0022070BD012103F0C9
:1021B0009BFD002804D02146284603F0D7F870BDC7
:1021C000142070BD10B5001D80B2FDF7E5FF00289A
:1021D00003D00321C943FDF7E5FF10BD10B501464B
:1021E000044800F035FB0348102118380078FDF74B
:1021F0005BFF10BDF07BFF1F10B5002801D001214F
:1022000000E000210420FDF7D3FF10BDF8B5002841
:1022100010D000240120FFF7EFFF6420FDF7CEFF70
:102220000020FFF7E9FF6420FDF7C8FF641CE4B25B
:10223000022CEFD300F058F80FA000F0C7FF0921DF
:102240006846017000214170052141806820FDF73A
:10225000BBFF0D4D7624EC600C4E03E03046FDF7DD
:10226000B9FFEC600920FDF7BBFF0028F6D0012183
:102270006846FDF7BBFFF8BD73797374656D206622
:102280006C61675B5D0A00000020004010270000C1
:1022900010B50D4C207E012815D1E1690BA0491E17
:1022A000E16100F093FFE06900280CD10D480221A4
:1022B0000078FDF7F3FE00202076E07C012802D1B3
:1022C000002000F0B1F910BD547BFF1F776F726BD7
:1022D000696E672074696D65203D202564205B73FD
:1022E0005D0A0000D87BFF1F10B501211620FDF705
:1022F00083FF00211620FDF75BFF01210220FDF77F
:102300007BFF00210220FDF753FF01210320FDF791
:1023100073FF00210320FDF74BFF01210720FDF78C
:102320006BFF01210720FDF743FF01210420FDF78A
:1023300063FF00210420FDF73BFF10BD10B5FFF740
:10234000D3FF00F0ADF9002201230321104602F073
:1023500025FF1621002002F053FF01230022032154
:10236000184602F01BFF0221012002F049FF012361
:1023700000220321022002F011FF0321022002F0BB
:102380003FFF00F01BF802F06FFF10BD10B50146D3
:10239000044800F05DFA034810210C380078FDF77E
:1023A00083FE10BDE47BFF1F10B5002801D0002183
:1023B00000E001210720FDF7FBFE10BD10B5084C21
:1023C000FF222188002002F033FF6188FF220120D4
:1023D00002F02EFFA188FF22022002F029FF10BD8B
:1023E000547BFF1F06480178491CC9B201701329AC
:1023F00004D9002101704188491C418070470000C8
:10240000907BFF1F10B50548417D912904D1C289F9
:102410000349072000F006F810BD0000547BFF1FA1
:10242000FC800211F7B51A480F46418882B09142EC
:102430002CD90021174C4180267C64217000301873
:102440000090385C257D6843FDF7DCFE2080009815
:102450006421C71978786843FDF7D4FE6080B878A6
:1024600064216843FDF7CEFEA080761CF0B2207494
:10247000029988420AD300202074E07D012805D10A
:1024800071206075A08900F007F8E08105B0F0BD0B
:10249000907BFF1F547BFF1F10B510490246497DFA
:1024A00000200B46703B0B2B05D805211046FDF78D
:1024B000A9FE1E2106E00B46803B112B05D85000DB
:1024C0007D210901081A80B210BDA029FCD1052187
:1024D0001046FDF797FE1921F4E70000547BFF1F1B
:1024E00010B560380300FDF7B5FD0705080B1411A2
:1024F0000E17070000F060F810BD00F037F810BDAF
:1025000000F00EF810BD00F01FF810BD00F07AF8D2
:1025100010BD00F03FF810BD00F062F810BD0000E3
:1025200010B5084C0020E0802081FF216181217DD1
:10253000208060800802401A6421FDF763FEA080BD
:1025400010BD0000547BFF1F10B5074C0020E08039
:10255000802121816181217D2080C8016421FDF7D6
:1025600051FE6080A08010BD547BFF1F70B5084CE9
:102570000025E580FF2020816581207D25800102E6
:10258000081A6421FDF73EFE6080A58070BD000042
:10259000547BFF1F70B5074C8020E080002525810B
:1025A0006081207D6421C001FDF72CFE20806580C4
:1025B000A08070BD547BFF1F70B5084CFF20E080E9
:1025C000002525816581207D0102081A6421FDF71F
:1025D00019FE20806580A58070BD0000547BFF1F20
:1025E00010B5074C8020E08020816081207D64212F
:1025F000C001FDF707FE20806080A08010BD0000B4
:10260000547BFF1F70B5074C8020E080208100259F
:102610006581207D6421C001FDF7F4FD208060808C
:10262000A58070BD547BFF1F10B50021124C0028FF
:1026300018D00120E074A07D60750246603A062A39
:1026400002D8FFF74DFF09E0902807D108460B4953
:1026500048802074A081FFF71FFFE08108A000F0F0
:10266000B5FD10BD607DA075E17421806180A18001
:10267000617507A0F3E70000547BFF1F907BFF1FED
:102680007475726E206F6E206C65640A0000000025
:102690007475726E206F6666206C65640A000000B7
:1026A00000B589B06A4610218820FDF7B1FD1BA056
:1026B00000F08CFD1021684603F09AFC6846007813
:1026C00055281ED16846407819490128487503D01D
:1026D0000246603A062A16D86846807802026846A2
:1026E000C078101808806846007902026846407970
:1026F000101848806846807902026846C079101830
:10270000888009B000BD70383028FAD86846007B50
:1027100002026846407B1018C881F2E77265616466
:1027200020666C617368206D6F64650A00000000AC
:10273000547BFF1FF8B5214F01243A79002A01D0BC
:102740007C71F8BD0E46002819D033E07D20C00012
:10275000FDF740FD1921A868FDF760FD00280FD0A6
:10276000FDF762FD2043A8600920FDF739FD002830
:1027700002D0002078711DE0761EF6B200E0104D08
:10278000002EE3D1FDF750FD2043FF26F536A8606B
:102790000AE03146A868FDF741FD002804D0FDF7A6
:1027A00043FD2043A860CBE70920FDF719FD002871
:1027B000EFD07C710020FFF729FDF8BD487BFF1F9B
:1027C000D87BFF1F70B50446007900283BD0FDF789
:1027D0002BFD02460121A0680A43821A8B07921E34
:1027E0009A4230D3A279002A06D06079002806D018
:1027F000FF2811D0401E6071607900280CD120792B
:10280000062568432368401D185C20716843001D3D
:10281000185C6071002806D020790625236868437B
:10282000185A002810D0002A10D00020A071FDF7FF
:10283000FBFC217906225143A279520089182268B3
:10284000515A4018A06070BDA171F0E70120EDE77A
:1028500010B504460268084606235843001D105C64
:10286000607121710020A071FDF7DEFC0121084399
:10287000A06010BDF0B5A1480D460078BFB00904B6
:102880000BD5FDF7F3FB040004D0FDF7D3FC204685
:10289000FDF7F2FB0120C0032BE1E90703D0FFF7AE
:1028A0008DFD012025E1A90708D57D22D200022156
:1028B000FDF7EEFBFFF7ECFC02201AE1904C6807F5
:1028C0007ED5904F01AE39463A7A203902A8FDF7FD
:1028D000AFFB397A6846C180BB2101723846203887
:1028E0008178401C891CFDF7ABFC0146009086A056
:1028F00000F06CFC397A38462138095C0098814236
:102900007DD1384620380178AA29F9D18249497AFF
:102910000029F5D14278F71C012A0AD0022A0DD0ED
:10292000032A12D0042A2FD0052A53D0062A73D0A6
:1029300097E0E07C002865D1012003E0E07C0128DD
:1029400060D10020FFF770FE5CE0E27C012A59D1E3
:10295000C078421E062A05D85F30C0B26075FFF706
:10296000BFFD4FE0082803D06CA000F02FFC49E029
:102970009120607508466C4908802074E075A0813C
:10298000FFF78AFDE0813DE0C178204621750C46C5
:10299000C17C012936D1417D6039062932D8584899
:1029A0006421C0886043FDF72DFC55490880084626
:1029B000008964216043FDF725FC5149488000E00F
:1029C00057E00846408964216043FDF71BFC4C49F1
:1029D000888017E0C278012A02D0002A11D011E0C5
:1029E00001212176817940793C225043401C08180E
:1029F000E061424802210078FDF756FB02E036E034
:102A00000AE021766946897A701D891CFDF718FC59
:102A10006946C988C85524E0062268468272E27C6D
:102A2000C272607D0246603A062A02D86A465F3862
:102A300003E0912802D108206A461073207E6A467E
:102A4000507391733C21E069FDF7DCFB6A46D0735B
:102A500011740821701DFDF7F3FB6A4650740A20BB
:102A6000D0800220FFF7BAFB01A803F059FF042031
:102A70003FE0280727D52D4B6E460FCB0FC6607D54
:102A800069464870012802D0603806280CD8218891
:102A900068460A0A8270C17061880A0A027141712F
:102AA000A1880A0A8271C171E0896946020A0A7323
:102AB00048736A4610218820FDF7C8FB1CA000F06F
:102AC00085FB082015E0E80616D513484079012853
:102AD00002D0002809D00BE000F068F80748642213
:102AE00010210078FDF7D4FA02E00120FFF78EFBF9
:102AF000102068403FB0F0BD0020FBE7D87BFF1FEF
:102B0000547BFF1F00A2FF1F636865636B20737512
:102B10006D203D2025780A00487BFF1F6D6F64659E
:102B2000206572720A000000927BFF1F148102115F
:102B3000777269746520666C617368206D6F646577
:102B40000A00000010B50F4C20700FA000F03EFBF3
:102B5000FDF782FB50210020FFF7ECFDFFF7EEFBB5
:102B6000FDF780FB1048407901280AD10A22102184
:102B70002078FDF78DFA0220FFF708FC0120FFF70F
:102B80002DFB10BDD87BFF1F4C435F4770696F5F03
:102B900055495F4C65645F42757A7A65725F496E2C
:102BA00069743A0A00000000487BFF1FF8B522480C
:102BB000FFF708FE009020480C30FFF703FE1E4E82
:102BC0000025307937460C371C4C002802D1387963
:102BD000002810D0B079002802D1B879002808D098
:102BE0000125A571FDF720FB134928430C394860E6
:102BF00010E0A57111E0104A0C3A5068002809D085
:102C00006421FDF70BFB002804D00B48A5710C389C
:102C1000456002E0A079022803D06820FDF7D4FACD
:102C200002E06820FDF724FBB079FFF7BDFBB8791F
:102C3000FFF7E2FA0098F8BDE47BFF1F487BFF1F17
:102C400038B50C46050014D0002C12D0032168467C
:102C500003F0F8FF6946887840218006800E08431B
:102C6000694688702246284604F024FD050002D0FB
:102C700006E0022038BD03226946E01CFDF7D8F9C2
:102C8000284638BDF7B58EB00E9815460E4600287A
:102C90002DD0002D2BD0301DC0B20190FDF71CFAB5
:102CA000040039D000F086FB07463246201D0E99FD
:102CB000FDF7E4FAF8B20890E0703804000E0B90CB
:102CC000A0703802000E0A9060703F0E277000F06E
:102CD0006BFB0146102202A8FDF7D0FA06AB214695
:102CE00002A8019A04F03CFC060003D010E0022088
:102CF00011B0F0BD089828700B9868700A98A870F9
:102D0000EF70082206A9281DFDF7B8FA00F058FB5D
:102D10002046FDF7F3F900E013263046E8E700000F
:102D200010B5064C2070FDF7AFFA06212078FFF7AA
:102D3000F7F9034802F0AAFF10BD0000087DFF1F4D
:102D4000996C021170B50C46080419D50D4800782D
:102D5000FDF78CF905000FD004F0BEF8002808D16B
:102D600009480078FF2804D02946FDF7CDF900284E
:102D700002D02846FDF780F90120C003604070BDF5
:102D8000002070BD087DFF1FD07CFF1F10B50548D7
:102D90000078400701D5044800E0002004F024F941
:102DA000002010BD437CFF1FFC7CFF1FFFB58DB0D2
:102DB0000F98169C0E46002815D0002C13D00D98A5
:102DC00002F004FF050011D0617820780902401854
:102DD000A178E2780904120689184718286AB842CF
:102DE00006D3401C04D0022011B0F0BD1420FBE734
:102DF000002E04D02879800701D40120F4E70822AE
:102E0000002106A8FDF72CF91098001DC0B2019012
:102E1000FDF762F9060017D0301D109A0F99FDF7E3
:102E20002DFA042221463046FDF728FA1022A9186F
:102E300002A8FDF723FA06AB314602A8019A04F076
:102E40008FFB050002D013E01320CDE7082206A96E
:102E500008A8FDF713FA0822211D08A8FDF7F4F8C9
:102E6000012801D0012503E039460D9801F0ACF8A6
:102E70003046FDF743F92846B6E7000030B5614C0F
:102E80008DB0A07006211F20FEF7CCFB0020694604
:102E9000087001220A7107220A72088418228A84A3
:102EA00030220A858885FF202D30088656A003C869
:102EB000079106900222E11C5548FDF7EBF9042228
:102EC000611D1003FDF7E6F952A000F07FF906211D
:102ED000E01C03F08DF8E11C084606221530FDF7D2
:102EE000A7F820786946087303AA01214E48FEF727
:102EF0009DF84D4806AA0621801CFEF797F8C320CE
:102F000002AA01218000FEF791F847486A46012194
:102F1000001FFEF78BF8444808AA0221C01EFEF7E6
:102F200085F82246612014320F21C000FEF77EF89A
:102F30003D48224623321121801EFEF777F83120CA
:102F400001AA01210001FEF771F8374809AA022100
:102F50000830FEF76BF834480AAA02210930FEF760
:102F600065F831480BAA02210A30FEF75FF8C52048
:102F70000CAA02218000FEF759F8224634321521AE
:102F80000020FEF7D5FFFF25913529460620FEF7E4
:102F900049FB29460720FEF745FB29460820FEF796
:102FA00041FB29460920FEF73DFB0025ED4328465D
:102FB000FEF7AEFF2846FEF7BFFBFDF771F9284686
:102FC00000F0A0F819A103C90591049004A90820F4
:102FD00003F040F91720FDF7C3FE0020FDF766F966
:102FE0000020FDF769F90121A078FDF75DF8A078D0
:102FF000FEF7F2FA0F48FDF765F90FA000F0E6F8CA
:103000000DB030BDFC7AFF1F01020304050600006D
:10301000044000006465765F6D61635F64617461A4
:103020003A20307800000000090300004641434583
:103030004D41534B24A0FF1F3D3D3D3D3D53696D28
:10304000706C65424C455065726970686572616C60
:103050005F496E697420446F6E653D3D3D3D3D3D69
:103060003D0A000038B50C46080415D5184880788C
:10307000FCF7FCFF05000CD02878912806D1687871
:103080000E2803D1A98813A000F0A0F82846FCF769
:10309000F3FF0120C00316E0E0070125002808D057
:1030A0000B480C30FEF7CCF8FDF712F920466840CB
:1030B00038BDA00709D5684605706A460121104849
:1030C000FDF7B4FF0220604038BD002038BD00008D
:1030D000FC7AFF1F3D3D3E204843495F434F4D4D25
:1030E000414E445F434F4D504C4554455F45564516
:1030F0004E545F434F44453A2025780A00000000B3
:103100000503000070B50546002409490948FEF78B
:1031100049FB094802F0BAFDE80706D00448074A0F
:1031200008210830FEF7B8FC0446204670BD0000B8
:10313000B079FF1FFFFF0000F1680211F08002115B
:103140000A4610B501460020FDF7C8F810BD000082
:10315000FFB583B00F4603981B4940001646085A36
:10316000FFF730F804002AD00125601C2670002FDC
:1031700003D00699B847401C85B2300610D51021FF
:10318000039802F0B1FD002801D0192613E062195E
:10319000E9B22046FFF776FD06000CD10C35ADB242
:1031A0000421684601800194058169460398FEF771
:1031B000EFFF060004D02046FCF7E8FF00E01326EE
:1031C000304607B0F0BD00003C7CFF1F0FB410B5C7
:1031D00003AA0448029902F0D7FD10BC08BC04B051
:1031E000184700004131021138B5034B00240FCBC2
:1031F0000094FDF779F838BD6080021110B50C46D7
:1032000002F0F8FC002804D040882146FCF788FF33
:1032100010BD122010BD0022002913D0002811D0AB
:10322000012806D04A799206920E4A71032805D0E9
:1032300007E04879C0221043487102E04020024371
:103240004A7101221046704770B512480025007877
:10325000052108421BD02020FCF73EFF0E4C002821
:10326000A06013D020220021FCF7FAFE2020FCF7FA
:1032700033FFE060002804D020220021FCF7F0FE9C
:1032800005E0A068FCF73AFF0020A060132528465F
:1032900070BD0000437CFF1FB47CFF1F002909D0D4
:1032A000012807D1497989098901C02902D040291B
:1032B00001D00220704703207047FFB500200E4662
:1032C00008701AE01C5C401CC5B2002C17D02819ED
:1032D000904214D85F5D6D1CEDB2384600F09DFE43
:1032E000002806D0641EE0B2307000998F4202D1EF
:1032F000581904B0F0BD4019C0B29042E2D300208A
:10330000F7E7000010B5044C2068002803D0FCF754
:10331000F5FE0020206010BDA07CFF1F70B50E4D93
:1033200084002859002815D0006A002801D0FCF735
:10333000E5FE2859406A002801D0FCF7DFFE285935
:10334000806A002801D0FCF7D9FE2859FCF7D6FE88
:103350000020285170BD0000AC7CFF1F10B5044C4C
:103360006068002803D0FCF7C9FE0020606010BD33
:10337000A47CFF1F0100044805D104498978002975
:1033800001D00248801D70474CA2FF1F427CFF1FE6
:103390000148807870470000427CFF1F0148406868
:1033A000704700003CA2FF1F014880687047000082
:1033B0003CA2FF1F0148C068006870473CA2FF1F85
:1033C00010B50748C0680168491C016005480078CD
:1033D000FF2803D001218903FCF766FE10BD000021
:1033E0003CA2FF1F427CFF1F02484068002800D01B
:1033F000012070479C7CFF1FFFB581B00F460D9EDA
:103400000A9D039802F0E2FB040042D001980028D4
:103410003FD120791021084320710499490702D532
:103420000221084301E0FD21084020710B99284644
:1034300008430C9908433043207902D00421084303
:1034400001E0FB2108402071002E06D030691022D7
:1034500020623146A018FCF7EBFD002D01D0002FB3
:1034600005D00B98002814D0012F08D011E0606A15
:10347000002801D0FCF742FE1C21284606E0606AC5
:10348000002801D0FCF73AFE1C210B98FCF732FF14
:1034900060620398224C8700E05900283ED0002D3E
:1034A0000FD0006A002806D11C20FCF715FEE15958
:1034B0000028086205D0E0591C22006A2946FCF762
:1034C000B7FD0C98002810D0E059406A002806D1BA
:1034D0001620FCF701FEE1590028486205D0E059AA
:1034E0001622406A0C99FCF7A3FD002E10D0E0597B
:1034F000806A002806D11420FCF7EEFDE15900286F
:10350000886205D0E0591422806A3146FCF790FDAC
:103510000B9B049A0399019803F0FEF805B0F0BDE7
:10352000AC7CFF1FF3B581B0019802F04FFB0500A2
:1035300029D00E20FCF70CFE040024D02620FDF735
:103540001BFF060000D12E78D02020700027677066
:103550000B20A0700622E91DE01CFCF769FD019814
:1035600060810298C1070120002901D0207300E08A
:1035700027730299890701D5607300E06773F0B281
:103580002146FCF7C1FDFEBD10B581881F4B01240B
:10359000CA1A994237D011DC1D4BCA1A994219D068
:1035A00007DC1C4A8A1810D0022A1ED0032A29D10F
:1035B0001BE0472A27D0482A24D124E01300FCF737
:1035C00049FD06212222222222218068007800F073
:1035D000E5FC08E08068827841781202891889B297
:1035E000007800F03BFD04460DE0094A921E91422E
:1035F00001D1012200E0002280680178104600F02D
:1036000015FD00E00024204610BD000053200000FE
:103610000A200000FADFFFFF70B51A4D1A4A014672
:10362000002628781268194C01290CD0002A09D0EC
:1036300017490978490705D50221FCF72FFD668057
:10364000FFF760FE70BD6188002903D0114B1B7825
:10365000002B05D0002AF5D01078FDF763FE70BD71
:103660003C2902D33C39618070BD0221FCF716FD74
:1036700062887D20C000424302212878FCF708FDC3
:10368000668070BDD17CFF1FA07CFF1FB47CFF1F34
:10369000437CFF1F457CFF1F08B5418900910389CA
:1036A000C2888188C07800F0C5FB08BDF0B504462B
:1036B0008088A12189004843304987B009684018B3
:1036C000FF30FF300230A1794167002C54D02C4DDF
:1036D0006868002823D006782A480068002804D0AB
:1036E0004168002901D0002088472146E07908314F
:1036F0000591FFF7D3FDE0710246277D638A218A99
:10370000E089019002A88AC0A0880090E078314644
:10371000059B03F077F8E078002802D00DE01A4806
:10372000D9E7E079E2896B46059907C3A379A188B7
:103730000122304602F0F8F9E0706868002811D0E4
:10374000FFF70CFE287800280CD06978FFF756FDAB
:10375000002807D0E078A2880346297803F0A6F86D
:1037600000202870A0881721FDF710FBA088FEF725
:10377000C5FCA088FEF7EAFC07B0F0BD3409FF1FC6
:10378000A47CFF1FD47CFF1F427CFF1F70B5044642
:103790000026808802F01AFA002803D00678A08854
:1037A00002F086FA144D2878002808D0864206D107
:1037B0006978FFF723FD002809D000202870002E2B
:1037C00005D0A379A288A078314603F06FF8A088CD
:1037D000094A810008325158002901D0FFF79EFDA7
:1037E000A0881721FDF7D2FAA088FEF787FCA088F1
:1037F000FEF7ACFC70BD0000A47CFF1F70B5828892
:10380000294D0124531B2949AA4242D019DC284DD5
:10381000531BAA4218D00BDC264BD21826D0254BBE
:103820001033D2181ED0032A17D0042A39D10BE046
:10383000012B09D0022B07D0032B21D0042B30D130
:103840001AE0433B072B2CD8496800292AD0096885
:10385000002927D08847044624E08068007800F0DB
:10386000ADF81FE0806800F001F9F4E78068411CC2
:10387000007800F0D9F8EEE783681B78002B11D0B0
:10388000896800290ED00B6808E001461046984769
:10389000E1E709490968002904D04B68002BF4D1FD
:1038A00000E00024204670BD0E200000D07CFF1FE9
:1038B00008200000F7EFFFFFB07CFF1F10B5094C98
:1038C000A17800290CD001460622A01DFCF7B0FB10
:1038D000A11DA078FFF79FFCA01DFCF711FD10BDF6
:1038E000002010BD427CFF1F1CB52F490378012426
:1038F0000A68912B02D0A22B2ED13EE041780529F7
:1039000009D00E2904D00F2908D03E2924D115E072
:10391000FFF774FF10E0FFF739FF3AE001468088B7
:10392000224B0124C31801D0062B15D1002A30D018
:103930005268002A2DD0904704462AE0817801245D
:10394000032917D004DC012911D0022904D105E094
:1039500015291ED016291CD000241AE014498968A4
:10396000002916D04968002913D0884711E0FFF7D5
:103970009DFE0EE0FFF790FE0BE00E49097804294A
:1039800009D0002A05D05268002A02D001460A4810
:10399000904720461CBD00216A461180017940886D
:1039A000FEF72CFBF5E70000B07CFF1FF3DFFFFF05
:1039B000D07CFF1F437CFF1FFFFF0000F8B5164FB0
:1039C0000646BD1F2878FF2814D00A20FCF7C0FB4C
:1039D00004000FD0D020207066700820A070A87856
:1039E000E07006223946201DFCF722FB214628788C
:1039F000FCF78AFBE87801280DD108480068002808
:103A000003D08068002800D080470648044A04217B
:103A10000078FCF767FBF8BD487CFF1FD47CFF1FD4
:103A200060EA0000D17CFF1F70B500240546002825
:103A300005D1002903D006220B48FCF7F9FA0A4801
:103A400010380178012907D10124002D06D000216A
:103A50000170284600F0CAF9204670BD02210170AD
:103A6000FCF754FCF8E700004CA2FF1F10B500243F
:103A7000002813D002780B49002A03D14288CA8259
:103A800002790A760A78022A08D102780124002AEB
:103A900006D000220A70007800F0A8F9204610BD78
:103AA0000322F7E73CA2FF1F01494860704700006E
:103AB000D07CFF1FF8B5774C877801460025072694
:103AC0006079A2793B00FCF7C5FA0805361A37374A
:103AD0005F94C736487800285CD16E4806223C3097
:103AE000C91CFCF7A5FA0120A0716A4B01464233BC
:103AF00062786079FDF7E6FD00284BD1A2E00F4621
:103B00004978002946D1F978002906D0624BA2787D
:103B10000021FDF7D7FD78700AE0022A0BD00121C1
:103B2000FCF7C8FA002803D101216079FCF7BCFA40
:103B3000787800282ED1F8BD497800292AD1032FA2
:103B400009D0A289002A0CD0217800290AD00121AD
:103B5000FCF79EFA06E0052A01D0022012E00620BA
:103B600010E02570A079062802D0042802D008E0D1
:103B7000052007E00120207001466079FCF794FAE7
:103B800060E00320A0715DE048780F46002803D074
:103B900031282CD0A67155E03E480622391D36301A
:103BA000FCF746FA7889E081B8892082F88960823A
:103BB0000520A071A28A002A03D002216079FCF7B7
:103BC00067FAB889E083F8892084388A6084E078CD
:103BD00001280AD11F20FDF7CFFB7D21C9004843F2
:103BE000024604216079FCF753FA25702AE025701B
:103BF000C7E728480E46062200213630FCF730FA87
:103C0000E5832584658404216079FCF747FA08215F
:103C10006079FCF743FAB079082808D00320A07136
:103C20002078002805D06079FDF77CFB07E00420B0
:103C3000F5E70120207001466079FCF735FA002095
:103C4000C043E081606A002800D174E70168002960
:103C5000FBD0A0798847F8BD0D460821FCF71EFA75
:103C6000687829460028F6D1E888E08328892084EE
:103C70004889608404216079FCF71CFA0028EAD1A5
:103C8000A06A0028E7D00368628C218CE08B9847FB
:103C9000F8BD00007478FF1F629CFF1F10B501780B
:103CA000224C912906D0A22926D0D02901D1FFF794
:103CB00001FF10BD41780E29FBD181881C4A914239
:103CC0000FD1816803200856A1790529F1D17F28F9
:103CD000EFD0616A0029ECD049680029E9D0884713
:103CE00010BD144A9142FBD18068837842780178F4
:103CF00011A0FFF76BFA10BD41791329FBD10089A0
:103D0000012802D12079022808D00520FDF734FBD4
:103D1000024608216079FCF7BBF910BD08216079E3
:103D2000FCF7BCF9FDF7A8FA10BD00007478FF1F7E
:103D300005140000222000005B48434920444C4504
:103D40005D25642025642025640A00007CB5154C9F
:103D50000546E08BE18A88420AD3218B884207D846
:103D6000208C618B884203D1608CA18B884217D054
:103D70000520FDF701FB0646E18A68460180218B9C
:103D80004180618B8180A18BC18062796946E08925
:103D9000FEF740F92571324608216079FCF778F981
:103DA0007CBD00007478FF1FF8B507460E46084634
:103DB00001F00CFF040018D02620FDF7DDFA050005
:103DC00000D125780620FCF7C3F904000DD00622A7
:103DD0000021FCF745F9D020207067700E20A070FC
:103DE000A680E8B22146FCF78FF9F8BD70B50F4DFB
:103DF00006462878FF2818D00E20FCF7A9F9040001
:103E000013D0D020207066700020A07006220849D0
:103E1000E01CFCF70DF906481038C18A6181007E6C
:103E2000207321462878FCF76FF970BD427CFF1F94
:103E30004CA2FF1FFFB581B01E4617460D460C2051
:103E4000FCF786F9040013D0284601F0BFFE0028D5
:103E500010D00078D0212170019961700721A170E4
:103E6000A580E78026810A9961812146FCF74CF9FB
:103E700005B0F0BD0048ECE7427CFF1F70B50D4D6A
:103E8000044628680E46002812D00620FCF760F988
:103E9000010009D0D02008704C70032088708E80FB
:103EA00028680078FCF730F9002C01D0FFF72AFAD7
:103EB00070BD0000A07CFF1FFFB581B01F460E46FD
:103EC000084601F083FE050022D01020FCF740F9DF
:103ED00004001DD010220021FCF7C2F82620FDF7B7
:103EE0004BFA002800D12878D02121700199617007
:103EF0000F21A170A6800399217267720A99A1729D
:103F00000B99E1720C99E160C0B22146FCF7FCF814
:103F100005B0F0BDF0B51F4D85B02868002837D03A
:103F20008778FDF7A5FA002805D00A20FDF724FAC6
:103F300004900B200EE001F0D1F9002805D00620F6
:103F4000FDF71AFA0490072004E00820FDF714FAA0
:103F500004900920FDF710FA04460F480078002865
:103F600014D001262968C878091DFFF754F929687B
:103F70006D46CA7A8B7A091D0BC5039233463A46C1
:103F800021460498FCF7C8F905B0F0BD0026E9E722
:103F90000120F9E7A07CFF1F447CFF1F10B50949F1
:103FA000096800290CD0002805D101204870FCF7D1
:103FB00087F8002802D00021FFF760FF012010BD24
:103FC000002010BDA07CFF1FF8B50C4601F0FEFDDF
:103FD000020021D026201462FDF7CEF905062D0E31
:103FE00000D115789679D01D00901020176AFCF743
:103FF000AFF8040010D0D02020700020607009209D
:10400000A070E6700622201D0099FCF711F82146E9
:104010002846E760FCF778F8F8BD411E152903D95A
:10402000FF2801D0002070470120704770B50A4E6C
:10403000054630780C46FF280DD00420FCF788F8A0
:10404000010008D0D02008704C7002208870CD701C
:104050003078FCF759F870BDB47CFF1FF3B5284DDC
:1040600081B0286800284AD04078264E012803D025
:104070003078002831D041E001F030F9224F00289B
:1040800013D00120FDF778F90446412808D91F4ACA
:1040900002213878FCF726F81D483C3C44800EE0AD
:1040A0007D20C0002246424303E00020FDF764F972
:1040B0000246002A03D002213878FBF7E9FF29687D
:1040C000022048703078002802D00020307015E0BF
:1040D00002990198FFF7D2FE10E00320019CFCF743
:1040E00037F8010008D0D02008704C700420887088
:1040F00028680078FCF708F8FFF704F90120FEBDF6
:10410000A07CFF1F457CFF1FD17CFF1F60EA0000E1
:10411000B47CFF1F074A00218B00D35A834202D18F
:10412000880080187047491CC9B20229F4D30020C6
:1041300070470000E47CFF1F10B50C46FFF7EAFF54
:1041400000280DD0002C00D020608078FE2803D0FD
:10415000FF2803D0162010BD172010BD002010BD71
:10416000022010BDFFB581B0FF201E461746053066
:104170000A9DFBF7EDFF04001BD0B0202070677094
:10418000029860802671002D06D02046FC22294628
:104190000830FBF74DFF05E02046FC2200210830E7
:1041A000FBF75EFF21460198FBF7AEFF002005B04C
:1041B000F0BD1320FBE700000548172202800988A4
:1041C000172901D2042070470180002070470000A9
:1041D0003E7CFF1F0020704708B50A4608884988C2
:1041E00088420BD8002809D0002300931379521D70
:1041F000FDF710FD002803D0002008BD012008BDF8
:104200000A2008BDF3B50D4608884988002687B006
:10421000814215D3002813D0002769460F710097FB
:10422000002369881A46FDF7F5FC04004FD0684664
:104230000079002807D069464979012925D008E08E
:10424000012009B0F0BD217802291BD002216A4665
:1042500051711222504301AA618980184180684639
:1042600000791223584380181022001D6168FBF763
:10427000DFFE68460079401C0106090E68460171A0
:104280001FD11AE001216A465171217802291ED1FD
:10429000820001A86189121851806A46127961680A
:1042A000920010180222001DFBF7C2FE6A46107928
:1042B000401CC0B21071052803D261890A488142AE
:1042C00000D101266089401C80B2002EA7D068462C
:1042D0000079002805D001A90798FCF7BFFB002052
:1042E000AFE70A20ADE70000FFFF000038B50C463D
:1042F00008884988884215D8002813D02379621D80
:1043000002210B48FCF72FFB00280DD00020009065
:10431000237961882088621DFDF77CFC002805D088
:10432000002038BD012038BD102038BD0A2038BD1E
:104330009881021108B50A460888498888420BD836
:10434000002809D0002300931379521DFDF762FC69
:10435000002803D0002008BD012008BD0A2008BDA8
:10436000F8B500250F4606460C46E03717E0680012
:10437000205A0021FDF728FC002809D0017A304698
:10438000FDF792FD002808D06900615A2180F8BD30
:104390006800205A20800120F8BD6D1CEDB2B87D68
:1043A000A842E4D80020F8BD10B5044608880021D2
:1043B000FDF70AFC002804D0017A2046FDF774FDC1
:1043C00010BD012010BD000030B585B0054669461E
:1043D000FCF7B8FB040026D168468078C1071E4868
:1043E00009D08268002A04D068886946904704464C
:1043F00019E0062417E04268002A05D0688869465B
:104400009047040001D10EE0062468464078002859
:1044100009D16846817801730021C18104746888DC
:1044200003A9FCF7DBFAA868002801D0FBF7AEFE71
:10443000002C05D168468078122807D01B2803D0AD
:1044400068880121FDF7F6FD05B030BD684640786B
:104450000128F5D1F8E70000EC7CFF1F70B5054698
:104460000C4608880021FDF7AFFB002805D0017A33
:1044700022462846FDF72BFD70BD012070BD0000CF
:104480000149486070470000EC7CFF1F10B50446EE
:10449000801C00F029FDFF20E07010BD10B500F079
:1044A00025F8002800D0806810BD00229300CB5A68
:1044B000834202D1900040187047521CD2B2022AA7
:1044C000F4D3002070470000074A0021CB00D35AE4
:1044D000834202D1C80080187047491C0906090EA2
:1044E000F4D0002070470000E878FF1F0649896873
:1044F00005E08A88824201D18868704709680029EE
:10450000F7D1002070470000D878FF1FF8B50746A4
:10451000012906D0022924D1012101F0E5FB002860
:104520001FD13846FFF7D0FF050015D000240D4EEF
:104530000CE0F8206968604308180188002908D059
:10454000F8220021FBF78CFD641CE4B270788442F1
:10455000EFD30020C0432880024938461831FDF7C8
:1045600021F9F8BDD878FF1FF3B5064683B00830AF
:104570000190002000907088FFF7A6FF07002FD061
:10458000002523E0F820796868430C182188002969
:1045900020D00198007801280FD160880090A3886E
:1045A0007088A21DFDF7C2FA0090002805D001997D
:1045B00000200870049821880180F82200212046FC
:1045C000FBF74EFD00206D1C2080EDB207484078BF
:1045D0008542D7D30020C04338800098002802D1FC
:1045E0007088FCF725FA009805B0F0BDD878FF1F59
:1045F000F3B50546374C064685B00835F62200214E
:104600002046FBF72DFD03A800902B7969882888A8
:104610006A1DFDF7FFFA074645E070882E4A410003
:10462000515C2E4BC91FC9B2009300220291019226
:10463000284B69468A89F63B3946FDF713F900286D
:1046400012D126482989001F828891420CD1214924
:104650002846F6390A30FBF7F7FC002804D0217809
:10466000788989000919488068468289698804AB7D
:104670003846FDF701FB07462078810009194A8872
:10468000002A10D0002F05D06A46128A401C2070E4
:104690008A800AE002060021920DC9431219401CCB
:1046A0002070918006E0002F04D00D48217800880A
:1046B0008142B2D32078002806D070882146FCF7CA
:1046C000BFF9002007B0F0BD0698298801800A20B4
:1046D000F8E70000909EFF1F3C7CFF1FDC78FF1F67
:1046E000387CFF1FF0B585B00446002069468881FC
:1046F00020790E2869D00FDC082823D004DC02289A
:1047000013D0062818D118E025460835484F0A2846
:104710001DD00C2810D138E010285BD012285ED0B4
:10472000162861D0182877D163E0434841490088B2
:1047300008806088FCF75CF96EE003A92046FFF76B
:1047400057FF5AE003A9204600F076F955E0288883
:1047500004A9FDF739FA010015D06088354E4200F2
:10476000BA5C0023521ED2B20193029200966A46AE
:10477000B31C128AFDF776F800281DD160883146F7
:10478000FCF7E4FA48E0012016E0288804A9FDF7C8
:104790001BFA0100F7D060886B884200BA5C254E96
:1047A000521ED2B20193029200966A46B31C128A3C
:1047B000FDF758F8002803D029886A4691811CE04B
:1047C00060883146FCF792FA26E003A9204600F003
:1047D000D3F912E003A9204600F082F80DE003A906
:1047E000204600F039FA08E003A9204600F028F836
:1047F00003E003A92046FFF7B7FE00280CD061783C
:10480000142909D00B4922790A706A4692894A8094
:1048100008716088FCF7E2F82046FDF7BDF907480B
:10482000C168002901D02046884705B0F0BD0000CE
:104830003C7CFF1F909EFF1F367CFF1FD878FF1F18
:10484000F8B504460F460546083400896946FDF769
:10485000BBF906003AD0307A80060ED5684600884B
:10486000FFF71CFE030006D06888122231469847E5
:10487000060002D02BE00E2629E06E883046FFF7B6
:1048800023FE010005D11448FFF71EFE01000ED0E3
:104890000E80124A0020527807E0F8264B68464303
:1048A0009B5B002B05D0401CC0B29042F5D309267B
:1048B0000DE04968F822504308182146FBF7B8FB81
:1048C000002668882146FCF707FA02E001262088C6
:1048D00038803046F8BD0000FFFF0000D878FF1F89
:1048E000F3B58BB000200B9E0746039004A8009000
:1048F0003246337B718930894C4C0D320836FDF7D6
:1049000089F9054678E00B98297A4088FDF7CCFABA
:10491000070003D00C98698901806FE00B98444927
:104920004088444B4200895C0093891FC9B2002231
:10493000029101923D4B69460A8AF63B2946FCF7F3
:1049400091FF0700E6D10398002833D039486188E9
:10495000001F8088021D914253D1039909180B98BA
:10496000408842003248805A801F814249DC0399C6
:10497000A87A6118087103986989401C80B22218CE
:10498000090A401C117180B203906846028A71883E
:1049900007AB2846FDF770F9050011D0039869466A
:1049A000898B2018017103986946401C898B80B25D
:1049B000090A0CE01F48001F8088001D6080D6E7B0
:1049C0000398FF21201801710398401C80B222181F
:1049D0001171401C80B217490390091F8A8813493E
:1049E0002018F639001DFBF723FB12490398091F15
:1049F0008988401880B20390002D84D10398002844
:104A00000CD061880398FBF7FDFB20700B982146C2
:104A10004088FCF775F900200DB0F0BD002F00D1E3
:104A20000A270C98318801803846F5E7909EFF1FD1
:104A30003C7CFF1FDC78FF1FF3B5074604460837B0
:104A40008BB049480490388800252E4605906AE0CE
:104A500007A800903B7979887A1D0598FDF7DAF868
:104A60000890002852D0408905900898017A608803
:104A7000FDF71AFA06005DD160883C494200895C66
:104A80003B4B091FC9B20093002202910192364BA1
:104A900069468A8BF63B0899FCF7E4FE060049D18B
:104AA000002D36D0049841883148001F8088801C32
:104AB000814241D12E4B1B1F9888291860884200E3
:104AC0002A48805A001F814220DC0898817A049885
:104AD0004019017108996D1C4989E8B20A0A0499C4
:104AE00009180A71401CC5B2194604988A881E49E3
:104AF0004019F639001DFBF79BFA1D481D49001FA0
:104B000000792818C5B20598884209D1002D13D123
:104B100023E017480499001F8088801C4880C9E75B
:104B2000401C80B20590608841001048405A001F28
:104B3000A8428DDA002D0ED0049841882846FBF754
:104B400061FB01460498017060880499FCF7E6F85F
:104B500000200DB0F0BD002E00D10A260C9905985A
:104B600008803046F5E70000909EFF1F3C7CFF1F49
:104B7000DC78FF1FFFFF0000F3B506460446002067
:104B800085B0324D00900836288007463046E03028
:104B9000049048E07800305A03A9FDF715F80100A9
:104BA0001AD060882B4B844642002948805C0093D1
:104BB000401EC0B2002202900192244B68468289B6
:104BC000F63B6046FCF74EFE0090002807D07800C8
:104BD000315A0698018035E001200090F7E71D4921
:104BE0002888091F8988421861884B001849C95ACA
:104BF0004B1E9A4204DD081A1649091F401E888080
:104C00002988A81C08181349091F8A880F49F639F2
:104C1000FBF70EFA0F482988001F808808182880A3
:104C20007F1C0498FFB2807DB84207D9608829882C
:104C300042000748805A401E8142ABDB608829460B
:104C4000FCF77AF8009807B0F0BD0000909EFF1FB7
:104C50003C7CFF1FDC78FF1FF3B5054683B004469C
:104C60000835008901A9FCF7AFFF2746E83706465B
:104C7000002822D0307A80060ED568468088FFF75B
:104C80000DFC030006D060881222314698470600CA
:104C900002D013E00E2611E0002000906B882988D6
:104CA00060882A1DFCF742FF060007D1787E0028A5
:104CB00007D16088FCF776F803E00126049829887C
:104CC0000180787E002802D0002005B0F0BD30467B
:104CD000FBE70000F8B504460246F82042431948B5
:104CE00000250746457010377868002807D0002057
:104CF000C100C919401C00064D60000EF8D0124ECC
:104D000000213046FBF7ACF9002001466143C9B2EF
:104D1000F82251438B190B49C2001031521800215F
:104D2000536005E0F8274F435368491CDD53C9B26F
:104D3000A142F7D3401C0006000EE6D001484470A3
:104D40000020F8BDD878FF1FA29CFF1F7CB50C780F
:104D5000069D022C0FD14C68267864782402341901
:104D6000064EA4B2F44206D10224DBB200950194AF
:104D7000FCF730FD7CBD01207CBD0000FED6FFFFAE
:104D8000F8B505461D48854223D0461C002921D090
:104D900001292BD002291CD10121284600F0A4FFB3
:104DA000002816D12846FFF7B5F9040011D0A078E5
:104DB000FF280ED0FE2807D000200090E0781E23A8
:104DC00014222946FFF7CEF92046FFF75FFBFF20AC
:104DD000A070F8BD2846FFF79DF90028F9D13046AC
:104DE000FFF798F90028F4D00580F8BD2846FFF7B2
:104DF00091F90400F9D02680D9E70000FEFF0000F9
:104E0000F3B50C468978C1B01E2914D02E4D2878F0
:104E1000FF2829D0182927D84808C2002B48121883
:104E2000803A976F002F1FD0D06F00281CD02078B9
:104E3000002817D113E04198FFF76CF905000BD05B
:104E400000200090A378E87800224199FFF78AF9C2
:104E500006462846FFF71AFB304643B0F0BD62789D
:104E6000012A03D1122901D00620F6E702AE0096EE
:104E7000A3886178A268B8470028EED1A0784008DE
:104E8000C100124808188038C26F02A941989047A3
:104E900000280FD061780029DFD1A27869460A7016
:104EA000087168460189418069464198FBF796FD83
:104EB0000020D2E7A378042BCFD0009600222878D8
:104EC0004199FFF74FF9C8E7DC7CFF1F34810211DD
:104ED00000B50346FCF7D8FF002803D0C018401ED9
:104EE00080B200BD184600BD10B5040008D020787F
:104EF000FF2805D0FE2803D0FBF714FAFF2020700E
:104F000010BD0000F7B506460F461020FBF7E4F889
:104F100005461020FBF7E0F80446002D3AD0002C9F
:104F20002DD010220021FBF79BF82A46214630465F
:104F300001F006FE060023D12878000604D4394685
:104F4000284600F0E3FD08E02146284600F0DEFD9B
:104F50003A461149204603F077F83878000604D421
:104F60003846029900F0D2FD0AE02146384600F0AA
:104F7000CDFD09492046029A03F066F800E01326A9
:104F80002846FBF7BBF8002C02D02046FBF7B6F80A
:104F90003046FEBD1326F6E7BE810211F8B506982D
:104FA00000271D4614460E46002801D00B20F8BDF0
:104FB00030780021022801D019804DE07068027815
:104FC000407800021018152280B25202801A0300A5
:104FD000FBF740F80504121F1A254100F068FBF7A3
:104FE000B1F8C2B20798824200D902462A80F1681D
:104FF0002046FBF71DF830E0F06802210088298088
:105000002070000A607028E0062028800246F168BF
:10501000EEE701202880F068007820701DE0F0683D
:10502000002816D008212980017821700188090AFA
:1050300061708178A1704188090AE170017921715C
:105040008188090A61718179A171C088000AE071C3
:1050500003E0298001E0298001273846F8BD10B51A
:105060000B78840702D50224234301E0FD2423406A
:105070000B7003070B7802D50824234301E0F724C3
:1050800023400B7083060B7802D52024234301E0D4
:10509000DF2423400B700A21084201D1810603D589
:1050A00010780C21084304E0002803D11078F32184
:1050B0000840107010BD0000FFB581B008780024D2
:1050C0000A9E1F460D4602280FD168680178407875
:1050D00000020818152180B24902401A09D001289F
:1050E00029D0022848D003283CD00124204605B00E
:1050F000F0BDE868FBF726F8C0B2864205D8F01983
:105100000090152803D90D24F0E70724EEE7E8689E
:105110003A4680190399FAF78BFF0098EA6880B243
:10512000002111541C4840680028DFD00168002984
:10513000DCD0002012E0002E12D1022BE3D1039923
:10514000E8680A78497809025118018012484068D5
:105150000028CBD001680029C8D001208847C5E7C6
:105160000B24C3E7002EFBD1062BCCD10622E86826
:105170000399FAF75DFFB9E7002EF1D1012BC2D1F7
:1051800003980078002803D0012801D08024ADE7DF
:10519000E9680870AAE70000F077FF1FF8B5074636
:1051A0001C4615460E461220FBF7C2F80C2047435A
:1051B000124838184168490849004160416807228F
:1051C000120391433203114341604168FF220132CF
:1051D00091432A0211434160416810229143220108
:1051E0001143416041680122D2071143416000220E
:1051F00011461220FBF7A2F8F8BD000000E00040C5
:1052000070B504460D460A30C1B22846FBF79CF83B
:105210000C20054960434018416801221143416058
:105220000248055570BD000000E00040B477FF1F44
:1052300010B5914215D80C2358430A4BC018446846
:1052400001231B049C43446084680904A4B20C43FA
:1052500084608168090C0904114381604168194325
:10526000416010BD00E0004010B5094C20680028E6
:105270000CD11220FAF7FCFF0648026801210A430C
:105280000260026810231A430260216010BD000012
:10529000B077FF1F00E0004070B505460D4885421D
:1052A0000CD00D4C01290AD0022905D10121284634
:1052B00000F01AFD002802D00020607070BD064981
:1052C0002846891CFCF76EFA60780028F6D0FBF7B8
:1052D00041F870BDFEFF00003C79FF1F08B509488A
:1052E0008368002B0CD01A78694601205B1CFDF7FF
:1052F000E4FF002804D00078C00701D0012008BDD9
:10530000002008BDB47CFF1F10B503460B4A0020E7
:105310000A21414389184988002905D0401CC0B2A0
:105320000328F5D3002010BD0A2100244143545422
:105330000446403488184480037210BD68A2FF1FE1
:105340000A7802700A88120A42708A7882704A8843
:10535000120AC2700A7902718A88120A42718A7925
:105360008271C988090AC17108207047F8B50546DD
:105370000C4648680421FAF715FF217A017021894B
:105380000346401C090A0170217841702188090AEE
:105390008170207A001DC2B2FB2A36D81C48854293
:1053A00015D114461E460C20FAF7D2FE01000CD08F
:1053B00090200870022008714D808E601548CC80C6
:1053C0000078FAF7A1FE00271DE013271BE05C2000
:1053D00011496843441826464036307E002806D0DE
:1053E00008465C30416A0727491C41620BE02146B0
:1053F000284600F095F90746307E002803D1214663
:105400002846FAF7ADFF3846F8BD0220F8BD000087
:10541000FEFF0000F97CFF1FE4A2FF1F10B50A4A3F
:1054200000210A234B439B185C88002C06D01B7973
:10543000834203D10A204143881810BD491CC9B2D8
:105440000329EED3002010BD68A2FF1F0021418078
:105450000170704770477CB504000FD06088002849
:105460000CD00025009501951323E188207A17229E
:1054700000F028F8FF206072658025707CBDF8B5CB
:10548000074615460E461020FAF762FE040017D0B4
:10549000A0202070002060706680002D05D00C22B6
:1054A0002946201DFAF7C4FD04E00C220021201D2E
:1054B000FAF7D6FD21463846FAF726FE0020F8BD59
:1054C0000120F8BDFFB581B01E46174614200B9D84
:1054D000FAF73EFE04001AD0A220207067700298EE
:1054E00060800A9820716671002D06D020460C223B
:1054F00029460830FAF79CFD05E020460C220021E1
:105500000830FAF7ADFD21460198FAF7FDFD05B028
:10551000F0BD022A1CD34B780A781B02D21892B233
:105520000280012A02D0022A06D00FE08A78C978C8
:1055300009025118418009E0CB788A781B02D21801
:1055400042800A7949790902511881800020704708
:1055500001207047F8B506464D88002070600A7932
:105560000C46022A12D0290160480091415A0029B4
:1055700006D0009B1F18BB68002B01D0012A7DD0EC
:105580005A486C304169491C4161A9E0E288042A0B
:1055900043D3A068437801781B02C91889B20091EF
:1055A000C37881781B02C9188FB2017AC0790002D2
:1055B00008184F4948800099091D8A4220D1072FB9
:1055C00013D0052F11D0042F02D0062F25D10CE0C7
:1055D00046482901405A002807D02846FCF78EFD8E
:1055E00042486C300169491C016100983081378064
:1055F0000321C943A068FAF7D5FD70600020F8BD0B
:10560000072F18D0052F16D0042F07D0062F12D041
:1056100036486C30C168491CC16064E033482901D8
:10562000405A002807D02846FCF768FD2F486C3008
:105630000169491C01612D492D01002048536E1854
:105640000098B081B7800098FCF7BCFDB0600028DE
:1056500018D00321C943A068FAF7A4FDE2880146E7
:10566000224F121FB068FAF7E3FC785BE18840181C
:10567000001F785338466C30016800E008E0491C90
:10568000016030E019486C308169491C81612AE071
:10569000E2888918009A89B28152BA8991421AD84F
:1056A0000546B868E2884018801AA168FAF7C0FC7D
:1056B0000098295AB889814215D13081B888308044
:1056C000B868706000990020685208486C304168E2
:1056D000491C416007E005486C308168491C8160C5
:1056E0002846FCF70BFD0120F8BD0000D4A2FF1FE7
:1056F0000A7DFF1F022A01D0012070470A784978ED
:10570000090251180180002070470A7802704A7817
:1057100042708A78C97809025118418070470000A8
:10572000FFB50C4607463D49A12080000968784333
:105730004018FF30C130067E89B015463846FBF769
:10574000A1F9001DB04204D23846FBF79BF9001DB9
:10575000C6B2B54207D82A46002138460C9BFAF754
:1057600005FE0DB0F0BD31462846FAF74BFD274641
:10577000403738740C99616501467143691AC9B2A2
:1057800002910C9904910299002901D0401C3874AF
:10579000002523E00299002904D0401EA84201D12F
:1057A000084600E03046E900059103916054FCF79B
:1057B0003DFC03990919486000281BD00599625CDB
:1057C0000499FAF735FC0598215C049808180490B0
:1057D0001348C169491C6D1CEDB2C161387CA842F7
:1057E000D8D8606D002803D0FAF7D0FC002060659F
:1057F0000020B6E7002038740646606506E0F00039
:1058000000194068FAF7C2FC761CF6B2AE42F6D335
:105810000348C16A491CC1621320A2E73409FF1F73
:1058200040A3FF1FF7B586B016460D464878FFF730
:10583000F5FD040010D0002727712878012802D038
:10584000132809D105E06A88314602A8FFF761FEF6
:105850000AE02078032802D0002009B0F0BD6A8851
:10586000314602A8FFF746FF0646204600F046F9FB
:1058700002A8019000972B78207A32460699FFF70C
:1058800021FE2046FFF7E2FD3046E6E7FEB504467E
:10589000468801466846FFF75DFE054601980028E8
:1058A0002FD068460088052806D0042809D006288D
:1058B00007D0072805D026E06946304600F030F8CA
:1058C00021E081001548081801464039098E002959
:1058D00019D02038807C6A463146FFF7D0FD002879
:1058E00011D168460088042803D001213046FCF716
:1058F000A1FB012D04D1A068002801D0FAF746FCD5
:10590000FEBD012D04D1A068002801D0FAF73EFCAD
:1059100001213046FCF78EFBFEBD000058A2FF1FA0
:1059200030B50546088987B00C46042817D302A86D
:105930006168FFF7EAFE68464089172837D8218951
:10594000001D81421ED16846007AC10709D06268F5
:1059500002A92846121DFFF765FF002812D107B0E3
:1059600030BD6168091D122805D0002069460880F5
:10597000497A6A4622E06846428903A8FCF78AFB16
:10598000002803D02846FFF765FDE8E70D48818829
:105990000029E4D06946497A03AA01920091694638
:1059A0000B7A807900222946FFF78CFDD7E7012189
:1059B0006846018017214180417A6A462846FCF7F3
:1059C0001DFBCCE758A2FF1F70B5144C00262680A3
:1059D000A681A680A0683546002802D0FAF7D6FB3B
:1059E000A5600E4C10342046403005744574057691
:1059F000606D002802D0FAF7C9FB65655C200025C0
:105A000046433419E80020184068002801D0FAF70E
:105A1000BDFB6D1C0A2DF5DB70BD0000D4A2FF1F7D
:105A2000FFB589B015460E461720129FFCF7CAFB3A
:105A3000040021D0684606704570002F03D0201D59
:105A40000C99B84700E000206946488026706570D0
:105A50004888A070010AE170052269468A82001D0B
:105A60000694888305A90998FFF780FC050004D0F7
:105A70002046FAF78BFB00E0132528460DB0F0BD59
:105A8000FFB581B01E46054601210A9F0B9C00F020
:105A90002BF9002811D02046FFF736FC00280AD049
:105AA000C5800446077012484178491C0A06120E48
:105AB000427004D005E015250FE014250DE0012209
:105AC0004270227100962846039B0299FFF7A8FFB7
:105AD000050005D02046FFF7B9FC284605B0F0BD0B
